:020000040800F2
:1000000078160024390300085F2B0008B926000881
:100010005D2B00082F0500082335000800000000B4
:10002000000000000000000000000000A52D0008F6
:100030003105000800000000612B0008A72D000812
:100040005303000853030008530300085303000838
:100050005303000853030008530300085303000828
:1000600053030008530300083B050008530300082E
:100070005303000853030008530300085303000808
:1000800053030008530300085303000853030008F8
:1000900053030008530300085303000841050008F8
:1000A00053030008530300085303000853030008D8
:1000B00053030008530300085303000853030008C8
:1000C00053030008530300085303000853030008B8
:1000D00053030008530300085303000853030008A8
:1000E0003305000853030008000000005303000814
:1000F0005303000853030008530300085303000888
:100100005303000853030008530300085303000877
:100110005303000853030008530300085303000867
:100120005303000853030008530300085303000857
:100130005303000853030008530300085303000847
:1001400000000000000000000000000000000000AF
:100150005303000853030008530300085303000827
:100160005303000853030008530300085303000817
:100170005303000853030008530300080000000065
:1001800053030008530300085303000853030008F7
:1001900053030008530300085303000853030008E7
:1001A00053030008530300085303000853030008D7
:1001B00053030008530300085303000853030008C7
:1001C00053030008530300085303000853030008B7
:1001D00053030008530300085303000853030008A7
:1001E0005303000853030008530300085303000897
:1001F0005303000853030008530300085303000887
:100200005303000853030008530300085303000876
:100210005303000853030008530300085303000866
:1002200053030008530300085303000800000000B4
:1002300053030008530300080000000053030008A4
:100240005303000853030008530300085303000836
:100250005303000853030008530300085303000826
:100260005303000853030008530300085303000816
:100270005303000853030008530300080000000064
:100280005303000853030008530300080000000054
:10029000000000005303000800F002F800F03CF8F2
:1002A0000AA090E8000C82448344AAF10107DA45D1
:1002B00001D100F031F8AFF2090EBAE80F0013F0E7
:1002C000010F18BFFB1A43F00103184788330000E1
:1002D000A8330000103A24BF78C878C1FAD8520772
:1002E00024BF30C830C144BF04680C6070470000B0
:1002F0000023002400250026103A28BF78C1FBD82F
:10030000520728BF30C148BF0B6070471FB503F0CC
:100310007FF91FBD10B510BD00F0CFF81146FFF7F3
:10032000F5FF03F011F900F0EDF803B4FFF7F2FF69
:1003300003BC00F0F5F80000094880470948004771
:10034000FEE7FEE7FEE7FEE7FEE7FEE7FEE7FEE785
:10035000FEE7FEE704480549054A064B70470000E2
:10036000652E0008990200087802002478160024FF
:10037000780600247806002453EA020C00F0698015
:100380002DE9F04B4FF00006002B1FBFB3FA83F5A9
:1003900003FA05F424FA05F65E4012BF1643B2FADA
:1003A00082F502FA05F4C5F120051EBF22FA05FC0C
:1003B00044EA0C04203556EA044C4FEA144418BFB2
:1003C000641C4FF000084FF00009904271EB030CE1
:1003D00039D3002919BFB1FA81F701FA07F6B0FA4B
:1003E00080F700FA07F6C7F120071EBF20FA07FCC6
:1003F00046EA0C062037B6FBF4FCA7EB0507103FD6
:1004000007F01F0BCBF120060CFA0BFB2CFA06F6BB
:1004100044BFB3460026202FA4BF5E464FF0000B1A
:100420005BEA060C08BF4FF0010B19EB0B09ABFBA5
:10043000027C48EB0608C01B06FB02CC0BFB03CC7E
:1004400071EB0C01C1E70B46024641464846BDE848
:10045000F08B13B54FF000004FF00001AFF30080B8
:10046000BDE81C4070474FF0000200B513469446AB
:100470009646203922BFA0E80C50A0E80C50B1F1FC
:100480002001BFF4F7AF090728BFA0E80C5048BF10
:100490000CC05DF804EB890028BF40F8042B08BFAE
:1004A000704748BF20F8022B11F0804F18BF00F8AA
:1004B000012B7047704770477047754600F02CF865
:1004C000AE4605006946534620F00700854618B041
:1004D00020B5FFF73FFFBDE820404FF000064FF08A
:1004E00000074FF000084FF0000B21F00701AC4669
:1004F000ACE8C009ACE8C009ACE8C009ACE8C00988
:100500008D46704710B50446AFF300802046BDE825
:100510001040FFF70ABF000000487047180200248F
:1005200001491820ABBEFEE7260002007047FEE737
:1005300070474FF4806000F02AB9102000F027B90E
:10054000402000F024B972B6FEE70000F0B5B3F524
:10055000804F05D06FF0704140F822100020F0BDB0
:1005600091E838008F898E6950F8221024013343B6
:10057000054E44EA05242343314043EA07430B4335
:1005800040F82230EAE700000000F0CFF0B50A683A
:1005900050F8223023F0010340F822308C68082CF8
:1005A0002CD000264A68D1E903CE22434CEA060C3F
:1005B00001F1140342EA0C0242EA0E0293E8F850F9
:1005C0001A4322430C682A43D1E90C35324350F8D0
:1005D00024603A4342EA0C02DFF840C042EA0E02CD
:1005E0008F6B13431D432F4326EA0C063E4340F80E
:1005F00024600A6BB2F5801F02D007E04026D1E7E5
:100600000A684AB1026842F4801202600A681AB1AC
:100610000268496B0A4302600020F0BD7FFB3F0087
:10062000F0B58C6800EB8202D1E90036B1F80CE03D
:100630004FEA042C134C0D8A43EA06130E7D670122
:100640004CEA0E4C43EA0C0304EB05552B438D6931
:1006500007EB0666576833432B4307F040452B43AF
:1006600053600268D2020BD5098A4268436804EBE2
:10067000015122F47002114323F470030B434360D1
:100680000020F0BD0000F0FF70B5044600F0AEF9A8
:100690000546601C02D004480078044400F0A6F926
:1006A000401BA042FAD370BD080000242DE9F041A0
:1006B000B6B014212FA8FFF7D6FE2D4801680029F7
:1006C00052D14FF00108C0F80080BC216846FFF706
:1006D000CAFE4FF08070009000246846119400F02C
:1006E000A3FC08B1FFF72FFF2248016841F48051B5
:1006F00001600068022531AA00F48050349028027D
:10070000CDE92F0503261C480C2782E8D0002FA92D
:1007100000F04AF831AA4CF23370CDE92F051748A2
:100720002FA982E8D00000F03FF831AA4FF683707D
:10073000CDE92F0512482FA982E8D00000F034F847
:10074000092131948020CDE93261CDE92F050D4892
:100750002FA900F029F831AA0B482FA982E8D00070
:10076000CDE92F8500F020F836B0BDE8F08100001B
:1007700000000024D444025800180258000C02580B
:1007800000100258000802580014025870474FF039
:10079000B04110B5D1F88820024203D0C1F88800DA
:1007A000FFF7F4FF10BD00002DE9F84F03247D4D45
:1007B00000234FF001094FF0B04B4FF00F0AE9E072
:1007C00009FA03F73A4076D00E7906F00306012EB7
:1007D00001D0022E18D1D0F808C04FEA430ECE68DF
:1007E00004FA0EF82CEA080C06FA0EF646EA0C0695
:1007F0008660D0F804C00E792CEA070CC6F3001608
:100800009E4046EA0C0646600E79F643B6070BD0CA
:10081000C6684FEA43088F6804FA08FC26EA0C060B
:1008200007FA08F73743C7600E7906F00306022E71
:1008300012D1DE080F694FEA437C00EB8606B6460C
:10084000366A4FEADC6C0AFA0CF807FA0CF726EA6B
:1008500008063743CEF820700F7906684FEA430840
:1008600007F0030704FA08FC07FA08F726EA0C0663
:10087000374307604E6816F4403F1CD04A4E376835
:1008800047F00207376036689F0706F002060096B9
:1008900023F0030606F1B046B6463F0FD6F80864CB
:1008A000DFF808810AFA07FC404526EA0C0603D166
:1008B0004FF0000C41E06CE0DFF8F4C0604502D17D
:1008C0004FF0010C39E0DFF8ECC0604502D14FF089
:1008D000020C32E0DFF8E0C0604502D14FF0030CBB
:1008E0002BE0DFF8D8C0604502D14FF0040C24E0C3
:1008F000DFF8CCC0604502D14FF0050C1DE0DFF8F9
:10090000C4C0604502D14FF0060C16E0DFF8B8C055
:10091000604502D14FF0070C0FE0DFF8B0C0604532
:1009200002D14FF0080C08E0DFF8A4C0604502D106
:100930004FF0090C01E04FF00A0C0CFA07FC4CEAEE
:10094000060CCEF808C44F68DBF80060FF0226EA08
:10095000020600D516435F46CBF80060D1F804C00C
:10096000DBF804605FEA8C2C26EA020600D5164309
:100970007E606E684F6826EA0206BF0300D5164304
:100980006E602E684F6826EA0206FF0300D5164304
:100990002E605B1C0A6832FA03F67FF411AFBDE8E3
:1009A000F88F000080000058F444025800000258FC
:1009B0000004025800080258000C025800100258A7
:1009C0000014025800180258001C02580020025857
:1009D000002402580AB1816170470904FBE7000056
:1009E00001480068000C70470010005C01488068F6
:1009F000704700000800002430B590F84120202AFC
:100A000024D190F84020012A20D0012380F84030E2
:100A1000242280F84120202300240268156825F054
:100A2000010515600268156825F480551560026897
:100A300015680D43156001680A6842F001020A60FA
:100A400080F8413080F84040002030BD022030BDA9
:100A500030B590F84120202A22D190F84020012A78
:100A60001ED0012380F84030242280F84120202429
:100A700000250268136823F00103136002681368FD
:100A800023F4706343EA0121116001680A6842F0AF
:100A900001020A6080F8414080F84050002030BDDB
:100AA000022030BD70B5040004D094F84100002548
:100AB00010B106E0012070BD204684F8405000F0DF
:100AC0004DF8242084F841002068016821F00101DC
:100AD0000160D4E9001020F070600861206881682E
:100AE00021F400418160E06821680128A06806D0F7
:100AF00040F404408860E068022803D006E040F437
:100B00000040F7E721684FF400604860202120682A
:100B1000114A4368134343602068C26822F40042CC
:100B2000C26054F8106B0DCC104340EA0320F06013
:100B300054F81C3CD4E900021043186054F81C0D12
:100B4000026842F001020260656484F84110256386
:100B500084F84250002070BD0080000210B5B6B08D
:100B6000044614212FA8FFF77EFCBC216846FFF73E
:100B70007AFC18492068884229D108200090002476
:100B80006846209400F050FA08B1FFF7DCFC1248E8
:100B9000016841F00201016000682FAB122100F0F2
:100BA000020034904FF4C070042283E813000B4815
:100BB0002FA9CDE93242FFF7F7FD07480830016859
:100BC00041F400110160006800F40010349036B068
:100BD00010BD000000540040E044025800040258D8
:100BE000024881680278114481607047080000243F
:100BF000032010B500F086F800F0F4FF0F4A10490A
:100C000014681368C4F3032203F00F038A5CC95C01
:100C100002F01F0201F01F01D0400A4A20FA01F140
:100C2000116009490860002000F010F808B10120A7
:100C300010BD00F02BF8002010BD00001844025831
:100C400042360008180000241400002470B50D4D31
:100C500004462878A0B14FF47A71B1FBF0F00A494C
:100C60000968B1FBF0F001F033FC48B9102C07D251
:100C700000222146501E00F025F800206C6070BD57
:100C8000012070BD0800002414000024054808B5A8
:100C9000016841F002010160006800F0020000906C
:100CA00008BD0000F4440258002809DB410900F0A7
:100CB0001F028900012001F1E0219040C1F80001EC
:100CC000704700000E4BF0B41B680D46C3F30223BF
:100CD000C3F10706042E00D90426191D072901D2E5
:100CE000002300E0DB1E012404FA06F19C40491EAB
:100CF0002940641E994014402143F0BC02F012BC0C
:100D00000CED00E0064900F0070210B54FF6FF04B5
:100D10000868044B204040EA02201843086010BDD8
:100D20000CED00E00000FA05134970B50A68D243E3
:100D3000520705D5096801F00701814213D118E077
:100D40000A6822F0070202430A60FFF74FFE0A4DCD
:100D50004FF47A760446083D07E000BFFFF746FEF1
:100D6000001BB04201D9012070BD2868C043800437
:100D7000F4D4002070BD00000C48025810B500F0FB
:100D8000EBFE05490968054AC1F30211515C01F007
:100D90001F01C84010BD0000204402584236000820
:100DA000494930B5484C0B1D0A68143409681D6860
:100DB000246802F00303C5F30012C1F30531C4F344
:100DC000CC04002914FB02F200EE102AF8EE400ACF
:100DD00075D03F4A9FED3D1AB7EE000A6BB1DFEDCB
:100DE0003D1A012B01D0022B64D002EE101A1168BB
:100DF000F8EE422A81EEA22A21E0334C283C2368F7
:100E00009B0612D5344B246801EE901A1168C4F386
:100E1000C104F8EE612AE34001EE903AC1F3080103
:100E2000F8EE611A81EEA22A0BE001EE901ADFEDD6
:100E30002B2A00BFF8EE611A116882EEA12AC1F3D5
:100E4000080101EE901A1168F8EE611A40EE811A5D
:100E500071EE800A62EE200AC1F3462101EE101AFB
:100E6000B8EE411A31EE001AC0EE811ABCEEE11A5A
:100E700080ED001A1168C1F3064101EE101AB8EEB8
:100E8000411A31EE001AC0EE811ABCEEE11A80ED73
:100E9000011A1168C1F3066101EE101AB8EE411A89
:100EA00031EE000A80EE801ABCEEC10A80ED020A23
:100EB00030BD04E001EE901ADFED092ABAE7002107
:100EC000016041608160F3E7284402580000003966
:100ED000384402580024744A0090D0030024744C13
:100EE00020BCBE4B494930B5484C0B1D0A681C3428
:100EF00009681D68246802F00303C5F30022C1F3EA
:100F00000551C4F3CC04002914FB02F200EE102AB0
:100F1000F8EE400A75D03F4A9FED3D1AB7EE000A41
:100F20006BB1DFED3D1A012B01D0022B64D002EE34
:100F3000101A1168F8EE422A81EEA22A21E0334C01
:100F4000283C23689B0612D5344B246801EE901A86
:100F50001168C4F3C104F8EE612AE34001EE903A4F
:100F6000C1F30801F8EE611A81EEA22A0BE001EE4E
:100F7000901ADFED2B2A00BFF8EE611A116882EE9D
:100F8000A12AC1F3080101EE901A1168F8EE611A66
:100F900040EE811A71EE800A62EE200AC1F346210A
:100FA00001EE101AB8EE411A31EE001AC0EE811AA5
:100FB000BCEEE11A80ED001A1168C1F3064101EEA2
:100FC000101AB8EE411A31EE001AC0EE811ABCEECA
:100FD000E11A80ED011A1168C1F3066101EE101AE1
:100FE000B8EE411A31EE000A80EE801ABCEEC10A5A
:100FF00080ED020A30BD04E001EE901ADFED092A0F
:10100000BAE70021016041608160F3E7284402589B
:1010100000000039404402580024744A0090D00374
:101020000024744C20BCBE4B2DE9FC5F044650F8F4
:10103000241B002500902E460801FE4FDFF8F883A0
:101040001DD5606E50B1B0F5801F0CD0B0F5001FFB
:101050000ED0B0F5401F1DD001250FE0386840F4D8
:101060000030386016E00221201D01F07BFD03E016
:101070000098022101F006FE05000BD02E462088C4
:10108000C00523D5606D05281ED2DFE800F00C11E5
:10109000161B1B00626ED8F8001021F4401111439A
:1010A000C8F80010EBE7386840F40030386009E019
:1010B0000021201D01F056FD03E00098002101F001
:1010C000E1FD05466DB100E001252E462088800532
:1010D00028D5A06D80281ED00CDC90B140280ED100
:1010E00014E0626DD8F8001021F007011143C8F830
:1010F0000010EBE7C02813D0B0F5807F10D0012599
:101100000FE0386840F40030386009E00021201D0D
:1011100001F028FD03E00098002101F0B3FD054631
:1011200095B12E462088DFF81093400509F1080993
:101130002CD5D4F8A400B0F5800F20D00DDCA0B1E0
:10114000B0F5001F0FD115E0A26DD8F8001021F402
:10115000E0711143C8F80010E4E7B0F5C00F13D0F8
:10116000B0F5000F10D001250FE0386840F40030D2
:10117000386009E00021201D01F0F4FC03E0009834
:10118000002101F07FFD054675B12E46208800053F
:101190002DD5D4F8A800B0F1007F21D00EDCA8B185
:1011A000B0F1807F10D116E0D4F8A420D9F8001057
:1011B00021F460011143C9F80010E7E7B0F1407F66
:1011C00013D0B0F1806F10D001250FE0386840F4E3
:1011D0000030386009E00021201D01F0C3FC03E06D
:1011E0000098002101F04EFD05466DB12E462068A5
:1011F00080011FD5A06CD8B110280FD0202812D0A4
:10120000302815D0012514E0D4F8A820D9F8001012
:1012100021F0E0611143C9F80010E8E7386840F4B4
:101220000030386004E00221201D01F09BFC0546DF
:101230006DB12E462088C0042BD5E06DB0F5005F5F
:1012400020D00DDCA0B1B0F5805F0FD115E07A4859
:10125000A26C001F016821F0300111430160E9E731
:10126000B0F5405F13D0B0F5804F10D001250FE0EE
:10127000386840F40030386009E00021201D01F09A
:1012800071FC03E00098002101F0FCFC054685B1EB
:101290002E462088800429D5206EB0F5403F23D00B
:1012A00010DC08B3B0F5803F14D0B0F5003F0FD18B
:1012B00015E0E26DD8F8001021F4E0411143C8F8C0
:1012C0000010E6E7B0F5802F0ED0B0F5A02F0BD0C0
:1012D00001250AE00121201D01F044FC03E00098F3
:1012E000012101F0CFFC05468DB12E462088400437
:1012F0002AD5D4F8AC00B0F1405F23D010DC08B39D
:10130000B0F1805F14D0B0F1005F0FD115E0226E14
:10131000D8F8001021F4E0211143C8F80010E5E7E7
:10132000B0F1804F0ED0B0F1A04F0BD001250AE0F4
:101330000121201D01F016FC03E00098012101F0BD
:10134000A1FC05466DB12E46208800041FD5E06E35
:10135000D8B1B0F1805F0ED0B0F1005F10D00125A0
:1013600014E0D4F8AC20D9F8001021F0E04111438A
:10137000C9F80010E8E7386840F40030386004E04D
:101380000121201D01F0EEFB05466DB12E462068BF
:10139000C0011ED5606CD0B101280ED0022811D03A
:1013A000032814D0012513E0E26ED8F8001021F0D4
:1013B00040511143C8F80010E9E7386840F40030A4
:1013C000386004E00221201D01F0CCFB054685B108
:1013D0002E462068DFF85CB04002ABF11C0B57D5FD
:1013E0001648016841F480710160FFF7FFFA8246F8
:1013F0000EE01148626C001F016821F003011143E7
:101400000160E6E7FFF7F2FAA0EB0A0064283DD896
:101410000A480068C005F5D57DBBDFF81CA0B4F80C
:10142000B0200AF1200ADAF8001002F4407001F44A
:10143000407105E02C4402585044025800480258BC
:10144000814211D0DAF80010DAF8002021F440715E
:1014500042F48032CAF80020DAF8002022F4803208
:10146000CAF80020CAF80010D4F8B000B0F5807FA8
:1014700021D1FFF7BBFA019019E008E0FFF7B6FAB7
:101480000199411A41F28830814210D903252E4634
:101490002078DFF844A4C0073DD0A06F182838D0CA
:1014A00026DC80B3082829D0102825D12CE0DAF8D2
:1014B00000008007E2D5D4F8B010C1F30120032862
:1014C00058460DD0016821F47C510160B4F8B02079
:1014D000DAF80010C2F30B021143CAF80010D7E784
:1014E000FE4A036802EA111223F47C511143ECE72F
:1014F00020280ED028280CD001250BE00121201D2A
:1015000001F030FB04E004E00098012101F0BAFB97
:1015100005465DB12E46207880071ED5606F0628EF
:1015200019D2DFE800F0160C11161616A26FDAF8C1
:10153000001021F038011143CAF80010EBE7012137
:10154000201D01F00FFB03E00098012101F09AFB40
:10155000054675B100E001252E46207840071FD5CD
:10156000D4F89000062819D2DFE800F0160C111606
:101570001616626FDAF8001021F007011143CAF85D
:101580000010EAE70121201D01F0ECFA03E00098C9
:10159000012101F077FB05469DB100E001252E46B3
:1015A000207880062BD5D4F88C00B0F1405F24D091
:1015B00011DC10B3B0F1805F15D0B0F1005F10D135
:1015C00016E0D4F89020D9F8001021F0070111435B
:1015D000C9F80010E4E7B0F1804F0ED0B0F1A04F91
:1015E0000BD001250AE00021201D01F0BBFA03E029
:1015F0000098022101F046FB05468DB12E46207869
:1016000040062BD5D4F89800B0F5406F24D011DCFB
:1016100010B3B0F5806F15D0B0F5006F10D116E0A3
:10162000D4F88C20DAF8001021F0E0411143CAF818
:101630000010E4E7B0F5805F0ED0B0F5A05F0BD0EE
:1016400001250AE00021201D01F08CFA03E000983A
:10165000022101F017FB05468DB12E4620780006C9
:101660002BD5D4F89C00B0F5C04F24D011DC10B3BA
:10167000B0F5005F15D0B0F5804F10D116E0D4F86A
:101680009820D9F8001021F4E0511143C9F8001056
:10169000E4E7B0F5004F0ED0B0F5204F0BD0012598
:1016A0000AE00021201D01F05DFA03E0009802210C
:1016B00001F0E8FA05464DB12E46207800071ED508
:1016C000D4F88000B0F5805F0AD00FE0D4F89C20F9
:1016D000D9F8001021F460411143C9F80010ECE77B
:1016E0000098022101F0CEFA00B10126D4F8802042
:1016F000DAF8001021F440511143CAF800102078A4
:10170000C00613D5D4F89400B0F5807F05D10098B9
:10171000022101F0B7FA00B10126D4F89420D9F8DB
:10172000001021F440711143C9F800102068000333
:1017300016D5D4F8A00038B1B0F5803F09D0B0F587
:10174000003F0BD001250AE00021201D01F00AFA1C
:1017500003E00098022101F095FA054685B12E4676
:101760002068400322D5D4F88400B0F5801F11D042
:10177000B0F5001F13D0B0F5401F15D0012514E0BF
:10178000D4F8A020D9F8001021F440311143C9F851
:101790000010E5E7386840F40030386004E0009855
:1017A000012101F06FFA054655B12E462068C003AD
:1017B0001CD5E06C70B1B0F5803F10D0012514E06D
:1017C000D4F88420DAF8001021F440111143CAF84B
:1017D0000010EBE7386840F40030386004E0022184
:1017E000201D01F0BFF90546CDB12E4620688000CE
:1017F00005D50098022101F045FA00B101262068C4
:1018000080031BD5E06FB8B1B0F5807F10D0B0F584
:10181000007F11D0B0F5407F0ED001250DE02E489D
:10182000E26C0838016821F4803111430160DDE782
:10183000386840F400303860F5B32E462068C002A6
:1018400007D5226FD8F8001021F000411143C8F8E5
:1018500000102068C00008D5D4F8B420DBF80010D0
:1018600021F480411143CBF800102068800207D595
:10187000A26ED8F8001021F080711143C8F8001052
:10188000206840000CD5DBF8001021F40041CBF8B3
:101890000010DBF80010D4F8B8201143CBF800108A
:1018A0002068002807DA0C48226D0838016821F00A
:1018B00040511143016000E014E02068000208D5A7
:1018C000D4F88820DAF8001021F440011143CAF856
:1018D000001086B1012003E054440258CFFFFF00FE
:1018E000BDE8FC9FE26FDAF8001021F4407111436B
:1018F000CAF80010A2E70020EDE700002DE9F05F34
:1019000004000F467ED0DFF83882D8F8000000F0DF
:101910000F00B8420CD2D8F8001021F00F01394363
:10192000C8F80010D8F8000000F00F00B84269D1E4
:101930002078844D40070AD52069296801F070019C
:10194000884204D9296821F0700101432960207878
:101950007C4E361D00070AD56069316801F07001C0
:10196000884204D9316821F0700101433160207848
:10197000C0060AD5A069316801F4E061884204D943
:10198000316821F4E061014331602078DFF8B4B1BF
:1019900080060BF1080B0CD5E1695846DBF80020F6
:1019A00002F07002914204D9026822F070020A43E8
:1019B0000260207880070AD5E068296801F00F01ED
:1019C000884204D9296821F00F0101432960207859
:1019D000C0073ED05B49A2682868183920F47060BF
:1019E000104328606068022818D0032819D00968BD
:1019F000012819D0490700294ADADFF848A1AAF1DD
:101A0000080A00E044E0DAF8002022F0070202436E
:101A1000CAF80020FEF7EAFF814612E00968890350
:101A2000E9E709688901E6E7C905E4E7FEF7DEFFB3
:101A3000A0EB090141F28830814202D90320BDE8C0
:101A4000F09F6168DAF8000000F03800B0EBC10FD9
:101A5000ECD1207880070AD5E068296801F00F01F1
:101A6000884204D2296821F00F0101432960D8F887
:101A70000010404601F00F01B9420BD9016821F076
:101A80000F0139430160006800F00F00B84201D037
:101A90000120D4E7207840070AD52069296801F0A1
:101AA0007001884204D2296821F070010143296045
:101AB000207800070AD56069316801F0700188421A
:101AC00004D2316821F07001014331602078C006F2
:101AD0000AD5A069316801F4E061884204D2316816
:101AE00021F4E06101433160207880060CD5E16982
:101AF0005846DBF8002002F07002914204D20268DE
:101B000022F070020A43026000F06CF80E492A6865
:101B10002B68C2F3032203F00F038A5CC95C02F056
:101B20001F0201F01F01D040084A20FA01F11160A4
:101B30000749086007480068BDE8F05FFFF786B80E
:101B400000200052184402584236000818000024B1
:101B5000140000240C00002430B500F043F80B4AB8
:101B60000B490C4B15681468C5F3032204F00F04ED
:101B70008A5C095D02F01F0201F01F01D040064A95
:101B800020FA01F119601060084630BD184402586F
:101B900042360008180000241400002400B5FFF7A6
:101BA000DBFF05490968054AC1F30211515C01F0E8
:101BB0001F01C84000BD00001C4402584236000806
:101BC00000B5FFF7C9FF05490968054AC1F30221BD
:101BD000515C01F01F01C84000BD00001C440258C8
:101BE00042360008454970B545480968434B103BEB
:101BF00011F0380208D00111082A03D0102A0BD0A6
:101C0000182A0BD0084670BD19688906FBD51968DB
:101C1000C1F3C101C84070BD3A4870BD3749374D66
:101C200018310C1D24350A68096826682D6802F0F1
:101C3000030406F00102C1F30511C5F3CC0515FB41
:101C400002F200EE102AB8EE400AE9B32F4ADFEDA7
:101C50002E0AB7EE001A6CB1DFED2D1A012C01D05F
:101C6000022C43D002EE101A1068F8EE422A81EEE0
:101C7000A22A1EE01C68A40611D51B6801EE901A6A
:101C80001168C3F3C103F8EE612AD84001EE900A4F
:101C9000C1F30800F8EE611A81EEA22A0BE001EE12
:101CA000901ADFED1C2A00BFF8EE611A106882EE70
:101CB000A12AC0F3080001EE900AF8EE611A40EE86
:101CC000201A31EE810A00E015E022EE000A1068C9
:101CD000C0F34620401C00EE900AF8EE600A80EE49
:101CE000201ABCEEC10A10EE100A70BD01EE901A67
:101CF000DFED092AD8E7002070BD0000104402582B
:101D00000090D00340787D01000000393044025833
:101D10000024744A0024744C20BCBE4B2DE9F05FB3
:101D200004007DD0FF4F2078FE4D1837DFF8F49384
:101D3000103DC00748D0D9F80000396800F03800DD
:101D4000102815D0182803D101F0030002280FD065
:101D50006068B0F5803F12D010B1B0F5A02F18D058
:101D6000286820F480302860286820F4802009E06A
:101D70002868800328D560680028D2D024E028682D
:101D800040F480302860606888B1FEF72FFE064678
:101D900009E0286840F480202860F0E7FEF726FE7E
:101DA000801B64286FD828688003F7D50CE0FEF705
:101DB0001DFE064605E000BFFEF718FE801B6428E6
:101DC000F0D828688003F7D4207841F20308D54E74
:101DD0000C3E800769D5D9F80000396810F038004A
:101DE0000ED0182801D188070AD0E06890B329687E
:101DF00021F0190101432960FEF7F8FD824631E028
:101E00002868400702D5E06800288AD0E168286881
:101E100020F0190008432860FEF7E8FD824607E03D
:101E2000DFE000BFFEF7E2FDA0EB0A000228B9D810
:101E300028684007F6D500BFFEF7D2FD40451BD805
:101E40002069402812D0316821F47C3141EA003009
:101E500030602AE018E000BFFEF7C8FDA0EB0A00E2
:101E600002289FD828684007F6D5E5E7306820F4B7
:101E70007C3040F40030EBE7207C316821F0FE41FB
:101E800041EA0060E4E70DE1286820F001002860E5
:101E9000FEF7ACFD824605E0FEF7A8FDA0EB0A00C8
:101EA00002288DD828684007F6D42078C0065DD572
:101EB000D9F80000DFF86CB2396800F03800ABF1F7
:101EC000040B082810D0182803D101F003000128C2
:101ED0000AD0E0690028286838D040F080002860E7
:101EE000FEF784FD824623E02868C00523D5E0691B
:101EF000802876D11FE0206A202821D0316821F087
:101F0000F84141EA8060306030E000BF94F8201072
:101F1000DBF8002022F07C5242EA0161CBF800108D
:101F200024E000BFFEF762FDA0EB0A00022898D86B
:101F30002868C005F6D5FEF753FD4045E6D8DAE738
:101F4000306820F0F84040F08040DCE720F080006E
:101F50002860FEF74BFD064605E000BFFEF746FD94
:101F6000801B02289DD82868C005F7D42078000778
:101F700029D56C486169643000298046016811D018
:101F800041F001010160FEF731FD064605E000BFAA
:101F9000FEF72CFD801B0228C9D8D8F80000800766
:101FA000F6D510E021F001010160FEF71FFD0646A5
:101FB00005E000BFFEF71AFD801B022872D8D8F892
:101FC00000008007F6D42078800623D5A069002879
:101FD000286810D040F480502860FEF707FD0646C0
:101FE00005E02CE1FEF702FD801B02285AD8286884
:101FF0008004F7D50EE020F480502860FEF7F6FC50
:10200000064604E0FEF7F2FC801B02284AD8286846
:102010008004F7D4207840074FD5DFF80C81D8F83A
:10202000001041F48071C8F80010FEF7DFFC06468E
:1020300005E000BFFEF7DAFC801B642832D8D8F830
:102040000000C005F6D5374EA068603601280AD0DA
:1020500008B1052813D0306820F0010030603068E6
:1020600020F0040002E0306840F001003060A06819
:1020700041F2883A90B1FEF7B9FC80460AE0306838
:1020800040F004003060EEE7FEF7B0FCA0EB080182
:10209000514507D830688007F6D50EE0FEF7A6FC5C
:1020A000804607E084E000BFFEF7A0FCA0EB08013B
:1020B00051457DD830688007F6D4606AB0B3DFF848
:1020C0006480D9F8001008F12008C1F3C201032987
:1020D0006FD00228286820F08070286003D0FEF7B7
:1020E00085FC044680E0FEF781FC064605E000BF63
:1020F000FEF77CFC801B022873D828688001F7D487
:10210000E26A40F2F331386854F8283F884340EAE5
:10211000021018433860217B4FF4FE0C22894FF0E7
:10212000FE4704E0104402580048025889E0208A23
:102130004902521E267DA1F5007189B2401EC2F3EC
:1021400008021143761E0CEA004001433E4807EAAC
:10215000066211433C4AC8F800100832016821F0B9
:102160000101016011684FF6F876236AB14341EA34
:10217000C30111600168A26921F00C0111430160E3
:102180000168E26921F0020111430160016841F434
:1021900080310160016841F400310160016841F45F
:1021A00080210160016841F001010160286801E0BF
:1021B00017E01DE040F080702860FEF717FC044631
:1021C00005E000BFFEF712FC001B022809D82868B2
:1021D0008001F7D535E000BFFEF708FC001B0228A0
:1021E00002D90320BDE8F09F28688001F4D428E0DC
:1021F00039680128D8F8000021D0A26A01F0030351
:1022000093421CD1E26AC1F305118A4217D1216BB6
:10221000C0F30802491E8A4211D1616BC0F3462205
:10222000491E91420BD1A16BC0F30642491E914257
:1022300005D1E16BC0F30660491E814201D0012047
:10224000D0E70020CEE700002C4402582DE9F047EB
:10225000040029D0504A4FF0000920684F4B504DE0
:102260009042C4F8289006D0984204D0A84202D0E8
:10227000E1680F2918D8E1684FF0010AE76B0831CF
:10228000C9080AEB57167143904205D0984203D013
:10229000A84201D0082907D8904203D0984201D023
:1022A000A84204D1102902D90120BDE8F08794F892
:1022B000810020B9204684F8809000F073F8022055
:1022C00084F881002068016821F001010160216823
:1022D000A0698A68B0F1806F02F4F81010D16268CA
:1022E000B2F5800F01D01AB10AE0A26B22B107E06B
:1022F000A26BB2F1805F03D10A6842F480520A6097
:10230000A66AE169E26B25683143E3680243114341
:102310001943A960D4E90D02D4E90571636A2569FE
:102320001843D4F820C00A43266810432843A56DFB
:102330003843D4E90182D4E9123140EA0C0040EA82
:1023400008000843104318432843F060606868B9E8
:102350002068816821F4C05141F4006181602068E7
:10236000816821F4C06141F4806181602068016D61
:1023700021F0010101656068400206D52068626DA8
:10238000C16821F000411143C160C4F8849084F811
:1023900081A0002089E700000030014000380040A3
:1023A000003C0040F0B5B5B0044614212FA8FEF75C
:1023B0005AF8BC216846FEF756F82549206888423D
:1023C00044D102AB0225C021062283E82600002466
:1023D000059505260894802780141790CDE906748A
:1023E000CDE900066846FEF71FFE08B1FEF7ABF820
:1023F0001848016841F480510160006800F4805081
:10240000349014481038016841F0020101600168FD
:1024100001F002013491016841F008010160006897
:102420002FA9CDE9305400F00800349018202F90E7
:102430000948CDE93246FEF7B7F908482FA9CDE99A
:102440003054CDE932462F97FEF7AEF935B0F0BDE6
:1024500000300140F044025800040258000C0258B9
:1024600070B5040015460E4603D094F8450010B12F
:1024700007E0012070BD002084F84400204600F0F1
:1024800025F8206804F10801FEF780F8A2683146BB
:102490002068FEF7C5F8E36A2946D4E90102FEF791
:1024A00055F8A16801232068074A50F8215045F0EB
:1024B000010540F82150106840F00040106084F899
:1024C0004530002070BD000000400052FEF7EEB81D
:1024D000401EB0F1807F10B501D3012010BD4FF038
:1024E000E02460610F21601701F01CF80020A0615A
:1024F0000721216110BD30B590F88010012918D056
:10250000012280F880202421C0F884100022202499
:1025100050F8641B0B680D6823F0005325F001058B
:102520000D60026050F8641C0B6004620277104674
:1025300030BD022030BD70B5044690F880000128FF
:102540001DD0012284F880202420C4F88400206853
:102550000568026822F0010202602068826822F0A9
:1025600060620A438260204600F0EAFC2268202173
:1025700000201560C4F8841084F8800070BD02202B
:1025800070BD70B5044690F8800001281DD001226E
:1025900084F880202420C4F884002068056802683C
:1025A00022F0010202602068826822F060420A4341
:1025B0008260204600F0C4FC2268202100201560C3
:1025C000C4F8841084F8800070BD022070BD10B57E
:1025D000040003D0D4F8840010B107E0012010BD3E
:1025E000002084F88000204600F026F82420C4F85B
:1025F00084002068016821F001010160204600F09C
:1026000055FD0128EBD0A06A10B1204600F0BAFCBD
:102610002068416821F4904141602068816821F080
:102620002A0181602068016841F0010101602046B3
:10263000BDE8104000F00ABD30B5B5B00446142125
:102640002FA8FDF710FFBC216846FDF70CFF1749C6
:102650002068884228D102256846002400951D94F0
:10266000FEF7E2FC08B1FDF76EFF1148016841F08A
:1026700000410160006800F0004034900C480838C8
:10268000016841F40071016000680821CDE930540F
:1026900000F400703490CDE932414FF440702F9037
:1026A00004482FA9FEF780F835B030BD007C00400B
:1026B000E844025800240258FEE700002DE9F047E4
:1026C00088B01C216846FDF7CEFE2A480024DFF8BA
:1026D0009C801026DFF89890FF270F254FF0110AF5
:1026E000C0F800800022C0E90194C4606946C0E9D6
:1026F00004468461C461046244628462C462046307
:1027000044638463C46304640095CDE90157CDE953
:1027100005A4CDE90356FFF7A3FE08B1FDF713FFAB
:1027200014480223002269464C30C0E90234C0E953
:1027300004468461C461046244628462C4620463C6
:1027400044638463C4630464C0E900890095CDE9EF
:102750000157CDE905A4CDE90356FFF781FE002816
:1027600001D0FDF7F0FE08B0BDE8F0870040005250
:10277000044100521C0000242DE9F04F87B01421C1
:102780006846FDF770FEA448016841F4806101606D
:10279000016801F480610591016841F04001016028
:1027A000016801F040010591016841F008010160F4
:1027B000016801F008010591016841F01001016014
:1027C000016801F010010591016841F0020101600A
:1027D000016801F002010591016841F00101016009
:1027E000016801F001010591016841F004010160F7
:1027F000016801F004010591016841F480710160F4
:10280000016801F480710591016841F020010160C7
:10281000016801F020010591016841F0800101602B
:10282000016801F080010591016841F400710160C7
:1028300000680122DFF8E4A1202100F40070059077
:102840005046FEF7C7F8DFF8D8B100226821584695
:10285000FEF7C0F84FF44247724800223946FEF7AF
:10286000B9F84FF40078704800224146FEF7B2F8FC
:102870004FF488596D4800224946FEF7ABF86C4882
:1028800000224FF48061FEF7A5F86A4800224FF459
:102890008061FEF79FF8684800224FF46051FEF710
:1028A00099F8664800228021FEF794F801246946D1
:1028B0002020CDE900040020CDE902045046FDF7B8
:1028C00073FF4FF4041569464020CDE90005002050
:1028D00002905448FDF768FF0020694610260290D8
:1028E000CDE900605046FDF75FFF68206946CDE9FD
:1028F00000040020029003905846FDF755FF002089
:1029000000966946CDE901505846FDF74DFF00207D
:1029100000976946CDE9014003904248FDF744FF26
:10292000A0026946CDE90005002002903E48FDF76F
:102930003BFF0020CDF800806946CDE901403A48D0
:102940000394FDF731FF002160030A468DE807007C
:102950003B486946FDF728FF00213448CDE9009443
:10296000CDE902116946FDF71FFF0021A002CDE964
:102970000004CDE902112E486946FDF715FFA002BB
:102980000021CDE90004CDE902142A486946FDF78B
:102990000BFF00214FF42050CDE90004CDE90211D6
:1029A00025486946FDF700FF20030021CDE900041A
:1029B000CDE9021420486946FDF7F6FE00211C20EF
:1029C0000A468DE807001B486946FDF7EDFE00202A
:1029D0008021CDE90014CDE9020018486946FDF7D1
:1029E000E3FE00220A201146FEF76CF90A20FEF7EA
:1029F0005BF9002217201146FEF764F91720FEF755
:102A000053F9002228201146FEF75CF92820FEF732
:102A10004BF907B0BDE8F08FE04402580028025897
:102A2000001002580004025800000258002002580A
:102A30000014025800240258000C0258001C0258CE
:102A4000000802581348002110B5114C0123124A06
:102A50000460C0E90121C0E9033141618161C161C4
:102A60000162FEF71FF808B1FDF76DFD094800216E
:102A7000FDF7C2FF08B1FDF766FD06480021FDF72E
:102A8000E7FF002803D0BDE81040FDF75CBD10BD96
:102A900000540040B4000024B175703070B5144883
:102AA00007224FF48004114D00212301C0E90212D6
:102AB00001611A01C0E90513C161016241628162CD
:102AC000C162C0E90D21C163016441648164C164D4
:102AD000016541658165C0E90054FFF7B7FB002837
:102AE00003D0BDE87040FDF72EBD70BD0030014041
:102AF000000100241848002110B5164C0C224FF498
:102B000061330460C0E90131C160C0E90412816130
:102B1000C161016241628162FFF759FD08B1FDF7B1
:102B200012FD0D480021FFF72CFD08B1FDF70BFD4C
:102B300009480021FFF7FFFC08B1FDF704FD064836
:102B4000FFF7D9FC002803D0BDE81040FDF7FBBC1F
:102B500010BD0000007C004088010024FEE7FEE775
:102B6000704700002DE9F047454D044689464FF077
:102B7000000A2868C04380070AD0414E283E3068CA
:102B800020F080603060FDF731FF0746B04608E076
:102B90000120BDE8F08700BFFDF728FFC01B022819
:102BA00067D8D8F800000001F6D4206829684FF4EF
:102BB000FE0721F47C313E0241EA00302860207A91
:102BC000A389B4F804C040022D4D2D495B1E227C20
:102BD000ACF1010C1035091DA0F5007080B2521E39
:102BE000CCF3080C07EA034340EA0C00184306EA5A
:102BF0000262104328600868626920F0C000104338
:102C000008600A68A06922F0200202430A60281DB9
:102C10000A6822F010020A6002684FF6F873E4694D
:102C20009A4342EAC40202600868B9F1000F40F01A
:102C300010020A6011D00868B9F1010F11D040F4F8
:102C400000100860D8F80000444640F08060C8F8E2
:102C50000000FDF7CBFE05460DE0086840F40020BB
:102C6000EFE740F48010ECE7FDF7C0FE401B0228C0
:102C700001D903208DE720680001F5D5504688E78B
:102C8000284402582DE9F047454D044689464FF047
:102C9000000A2868C04380070AD0414E283E3068A9
:102CA00020F080503060FDF7A1FE0746B04608E0F6
:102CB0000120BDE8F08700BFFDF798FEC01B022889
:102CC00067D8D8F800008000F6D4208829684FF42F
:102CD000FE0721F07C713E0241EA00502860207A14
:102CE000A389B4F804C040022D4D2D495B1E227CFF
:102CF000ACF1010C1835091DA0F5007080B2521E10
:102D0000CCF3080C07EA034340EA0C00184306EA38
:102D10000262104328600868626920F44060104332
:102D200008600A68A06922F4007202430A60281D44
:102D30000A6822F480720A6002684FF6F873E46948
:102D40009A4342EAC40202600868B9F1000F40F4F5
:102D500080720A6011D00868B9F1010F11D040F0FB
:102D600080700860D8F80000444640F08050C8F8F1
:102D70000000FDF73BFE05460DE0086840F48000CA
:102D8000EFE740F40000ECE7FDF730FE401B0228BF
:102D900001D903208DE720688000F5D5504688E7EB
:102DA000284402587047FDF71BBF0000F0B59DB0E6
:102DB0004C216846FDF757FB202113A8FDF753FB74
:102DC0000220FDF7B1FF244800242449026842F4A0
:102DD0004042026002680A6842F001020A60096823
:102DE00001F001011B9101688904FCD51C490825EB
:102DF0000A6802200123052722F00302921C0A60C0
:102E00004FF4A0260990C021CDE90A07CDE90C10A6
:102E1000CDE90E50CDE91054CDE900366846129444
:102E2000FEF77CFF08B172B6FEE740201A903F2102
:102E30000301CDE916500322CDE9180313AB13A803
:102E400083E816000421FEF759FD002801D072B670
:102E5000FEE71DB0F0BD0000184802582C040058D1
:102E6000284402582C48F0B52C4A016841F47001FE
:102E70000160106800F00F00072804D2106820F0ED
:102E80000F00C01D106026490020254C10340B682F
:102E9000244D43F001030B6020600B682B400B6056
:102EA000136803F00F03072B04D9136823F00F03F3
:102EB000DB1D13601A4C1C4A18341C4B261D371D91
:102EC0002060174C1A4D28343060261D3860371D9D
:102ED00023603B1D35601C1D3A60251D2E1D1860AA
:102EE000331D22602860326018600A680C4B114C58
:102EF00022F4802260330A60186020686FF30F00AC
:102F0000B0F1005F03D20C490120C1F8080143F27F
:102F1000D2000A490860F0BD88ED00E000200052B0
:102F2000004402587FEDF6EA80020101000202022D
:102F30000000FF010010005C0080005100400052C2
:102F400030B5416EB9B101680D4B03F108048A68D0
:102F50008968C2F34262490F5D5C615C2D01B5FB7B
:102F6000F1F1A0F86A10995CA25C0901B1FBF2F1E1
:102F7000A0F8681030BD0121A0F86A10F8E7000041
:102F80003236000890F82810C90706D00168C36AD5
:102F90004A6822F400321A434A6090F828108907E0
:102FA00006D50168036B4A6822F480321A434A60EE
:102FB00090F82810490706D50168436B4A6822F447
:102FC00080221A434A6090F82810090706D5016844
:102FD000836B4A6822F400421A434A6090F8281032
:102FE000C90606D50168C36B8A6822F480521A4369
:102FF0008A6090F82810890606D50168036C8A68F3
:1030000022F400521A438A6090F82810490611D51C
:103010000168436C4A6822F480121A434A60416C8A
:10302000B1F5801F06D10168836C4A6822F4C002A2
:103030001A434A6090F82810090606D50168C26C48
:10304000486820F40020104348607047F8B5002617
:103050000446C0F88C60FDF7C9FC054620686FF097
:103060007E470068000708D500222B464FF4001168
:103070002046009700F0F0F960B92068006840072A
:103080000AD500222B464FF480012046009700F01D
:10309000E3F908B10320F8BD2020C4F88400C4F887
:1030A0008800E666002084F88060F8BD2DE9F043D2
:1030B00004468068D84E87B0D84B2168D4E90427ED
:1030C000D4F81CC010430A68002547EA0C073843AF
:1030D000324002430A602068E268416821F44051AE
:1030E000114341602268A1699A4201D0206A0143DC
:1030F0009768DFF82CC3CB4ECB4807EA0C070F4389
:1031000097602168676ACA6A22F00F023A43CA626E
:103110002268B2420ED1006800F03800182873D03F
:1031200047DCB8B3082879D010286FD178E0282878
:103130007ED17BE0BD498A4209D1006800F00700DA
:10314000062875D2DFE800F0546A6C6E7072B849D8
:103150008A4209D1006800F00700062868D2DFE83B
:1031600000F0475D5F616365B2498A4209D100683A
:1031700000F0070006285BD2DFE800F03A50525416
:103180005658AD498A420BD1006800F00700062866
:103190004ED200E010E0DFE800F02B414345474904
:1031A000A6498A420AD1006800F03800182839D0B0
:1031B000B7DD2028BBD13CE001203AE0A0498A429B
:1031C00009D1006800F00700062831D2DFE800F0DE
:1031D0001026282A2C2E9B498A420BD1006800F029
:1031E0000700062824D2DFE800F003191B1D1F2169
:1031F00000201EE09A421BD18B48001D006800F0A1
:103200000700062814D202E00CE007E010E0DFE837
:1032100000F0030507090B0D02200AE0042008E076
:10322000082006E0102004E0202002E0402000E01A
:1032300080208549DFF814829A42854A4FF4004382
:103240004FEA21174FF000064ED110281AD006DCA5
:10325000022809D004280BD008287CD10DE02028B2
:103260003ED0402877D13DE0FDF788FD014610E0D3
:103270006846FDF795FD01990BE003A8FDF732FEC6
:10328000049906E01068800605D51068C0F3C100F7
:10329000C140002970D0606A676838F8102007EBD9
:1032A0004703B1FBF2F0834255D8B0EB073F52D849
:1032B000002308461946FDF75FF802467808130E0A
:1032C000120243EA012110183A4671410023FDF72A
:1032D00053F8604AA0F5407191423CD821688FE0D4
:1032E0003946D8E71946D6E7D4F81CC04FF6EF792F
:1032F0009C4546D1082819D005DC58B101280CD0CE
:10330000042875D10DE0102815D0202835D040288C
:103310006ED134E0FEF742FC01E0FEF751FC0146BD
:1033200010E06846FDF73CFD01990BE003A8FDF7AE
:10333000D9FD049906E01068800604D51068C0F332
:10334000C100C140C1B1636A606838F81330B1FB95
:10335000F3F1490000E04BE001EB5001B1FBF0F06C
:10336000A0F11001494543D84FF6F0732168C0F32E
:1033700042021840104343E043E03946E3E7194670
:10338000E1E7082819D005DC58B101280CD0042841
:103390002ED10DE0102815D020282BD0402827D181
:1033A0002AE0FEF7FBFB01E0FEF70AFC014610E015
:1033B0006846FDF7F5FC01990BE003A8FDF792FDC7
:1033C000049906E01068800604D51068C0F3C100B7
:1033D000C140B1B1636A606838F81330B1FBF3F1F2
:1033E00001EB5001B1FBF0F0A0F11001494505D906
:1033F000012506E03946EDE71946EBE7216880B282
:10340000C8600120A4F86A00A4F86800284626676E
:10341000666707B0BDE8F083F369FFCF000C005882
:10342000FFF4FF11001001405444025800440040D2
:1034300000480040004C0040005000400014014093
:1034400000780040007C00400090D0031A3600084D
:1034500000440258FFFC0F002DE9F0479A4617463A
:103460000E460446089D4FF000094FF020084CE03E
:10347000681C4AD0FDF7BAFAA0EB0A00A8422AD885
:103480004DB32068016849073FD5C069C0430005B6
:103490003BD421684FF400600862216851E8000FB6
:1034A00020F4D07041E80002002AF6D120680830EC
:1034B00050E8001F21F0010140E80012002AF5D178
:1034C000C4F8848084F88090C4F88880C4F88C8024
:1034D0000320BDE8F087206850E8001F21F4D07178
:1034E00040E80012002AF6D12068083050E8001F9A
:1034F00021F0010140E80012002AF5D1C4F88480CF
:1035000084F88090C4F88880E2E72068C06936EAD1
:10351000000004D00020B842AAD00020D9E7012042
:10352000F9E7FEE7090700284FEA116104DB00F123
:10353000E02080F80014704700F00F0000F1E02058
:1035400080F8141D70470000FDF752FBFFF72EFCBA
:10355000FFF712F9FFF7B2F8FFF7A0FAFFF772FAD8
:10356000FFF7C8FA012225489102FDF733FA4FF41C
:103570008054234D234F4FF40048DFF88C906610A1
:10358000DFF888B04FF4804A6420FDF77DF8002210
:1035900021462846FDF71EFA002231463846FDF73F
:1035A00019FA002241464846FDF714FA0022514616
:1035B0004846FDF70FFA002258468021FDF70AFA27
:1035C0006420FDF761F8012221462846FDF702FA42
:1035D000012231463846FDF7FDF9012241464846B1
:1035E000FDF7F8F9012251464846FDF7F3F90122AB
:1035F00058468021FDF7EEF9C6E700000014025896
:1036000000200258000C025800040258001C025806
:103610004FF04070E1EE100A704701000200040014
:10362000060008000A000C00100020004000800086
:103630000001010101030701000008040204080160
:103640000101000000000102030401020304060757
:103650000809000074360008000000241C00000067
:10366000D4020008903600081C0000245C160000FC
:10367000F00200080000000000000000010000004F
:1036800010000000000000000090D0030090D00364
:040000050800029954
:00000001FF
