:020000040800F2
:100000000036002439030008ED3100085B040008C5
:100010005B040008DD090008FB3C0008000000004C
:100020000000000000000000000000003134000863
:10003000DF09000800000000A703000833340008AF
:100040005303000853030008530300085303000838
:100050005303000853030008530300085303000828
:100060005303000853030008E9090008530300087C
:100070005303000853030008530300085303000808
:1000800053030008530300085303000853030008F8
:10009000530300085303000853030008EF09000846
:1000A00053030008530300085303000853030008D8
:1000B00053030008530300085303000853030008C8
:1000C00053030008530300085303000853030008B8
:1000D00053030008530300085303000853030008A8
:1000E000E109000853030008000000005303000862
:1000F0005303000853030008530300085303000888
:100100005303000853030008530300085303000877
:100110005303000853030008530300085303000867
:100120005303000853030008530300085303000857
:100130005303000853030008530300085303000847
:1001400000000000000000000000000000000000AF
:100150005303000853030008530300085303000827
:100160005303000853030008530300085303000817
:100170005303000853030008530300080000000065
:1001800053030008530300085303000853030008F7
:1001900053030008530300085303000853030008E7
:1001A00053030008530300085303000853030008D7
:1001B00053030008530300085303000853030008C7
:1001C00053030008530300085303000853030008B7
:1001D00053030008530300085303000853030008A7
:1001E0005303000853030008530300085303000897
:1001F0005303000853030008530300085303000887
:100200005303000853030008530300085303000876
:100210005303000853030008530300085303000866
:1002200053030008530300085303000800000000B4
:1002300053030008530300080000000053030008A4
:100240005303000853030008530300085303000836
:100250005303000853030008530300085303000826
:100260005303000853030008530300085303000816
:100270005303000853030008530300080000000064
:100280005303000853030008530300080000000054
:10029000000000005303000800F002F800F03CF8F2
:1002A0000AA090E8000C82448344AAF10107DA45D1
:1002B00001D100F031F8AFF2090EBAE80F0013F0E7
:1002C000010F18BFFB1A43F00103184754640000E4
:1002D00074640000103A24BF78C878C1FAD8520775
:1002E00024BF30C830C144BF04680C6070470000B0
:1002F0000023002400250026103A28BF78C1FBD82F
:10030000520728BF30C148BF0B6070471FB505F0CA
:10031000DAFF1FBD10B510BD00F082FA1146FFF7DD
:10032000F5FF00F0B6FA00F0A0FA03B4FFF7F2FF11
:1003300003BC00F0A7FA00000948804709480047BD
:10034000FEE7FEE7FEE7FEE7FEE7FEE7FEE7FEE785
:10035000FEE7FEE704480549054A064B70470000E2
:100360003D360008990200080022002400360024CF
:100370000026002400260024EFF3108072B6704798
:1003800080F310887047434A1368012B04D04FF064
:1003900001031360404A1060404A116040484FF02A
:1003A000805101607047EFF3108272B639480168DE
:1003B00051B34FF0000101603748016891B1EFF38C
:1003C00009811EF0100F08BF21ED108B21E9F00FFD
:1003D0004FF000041EF0100F08BF012441F8044D37
:1003E000006801602D490968096808C9B1E8F00F83
:1003F000002B18BFB1EC108B81F309884EF0100E62
:10040000002B18BF2EF0100E82F310884EF0040E51
:10041000704722490860EFF3148222F0040282F34D
:1004200014881D494FF0000008601A494FF0010080
:1004300008601C484FF47F01D0F8002041EA020117
:10044000016017484FF0805101601748006800684C
:1004500080F3088861B662B670471EF0040F0CBFC7
:10046000EFF30880EFF3098020E9F00F40F804ED86
:1004700040F804ED1EF0040F0CBF80F3088880F3F1
:10048000098800B504F090FF5DF804EB4EF0040E0F
:10049000704700004C000024440000244800002461
:1004A00004ED00E020ED00E008ED00E053EA020C6E
:1004B00000F069802DE9F04B4FF00006002B1FBFC4
:1004C000B3FA83F503FA05F424FA05F65E4012BF89
:1004D0001643B2FA82F502FA05F4C5F120051EBFF3
:1004E00022FA05FC44EA0C04203556EA044C4FEA93
:1004F000144418BF641C4FF000084FF000099042EC
:1005000071EB030C39D3002919BFB1FA81F701FA55
:1005100007F6B0FA80F700FA07F6C7F120071EBF0A
:1005200020FA07FC46EA0C062037B6FBF4FCA7EBE2
:100530000507103F07F01F0BCBF120060CFA0BFB51
:100540002CFA06F644BFB3460026202FA4BF5E4611
:100550004FF0000B5BEA060C08BF4FF0010B19EBE4
:100560000B09ABFB027C48EB0608C01B06FB02CC68
:100570000BFB03CC71EB0C01C1E70B460246414675
:100580004846BDE8F08B13B54FF000004FF0000176
:10059000AFF30080BDE81C40704740EA010302460B
:1005A00030B59B0710D14FF0013400E008C208C9F4
:1005B0001D1B9D4315EAC41FF8D013F0FF0102F87C
:1005C000011B0DD01B0AF8E711F8013B002B02F8C4
:1005D000013B05D011F8013B002B02F8013BF3D1A0
:1005E00030BD10B5431C02E010F8011B71B181074A
:1005F000FAD14FF0013202C88C1A8C4314EAC211AE
:10060000F9D0C01A0A0603D0C01E10BDC01A10BD12
:100610000A0401D0801E10BD0902FCD0401E10BD8E
:1006200040EA010370B59B072ED14FF00136042A32
:100630002AD308C810C99D1B9D43121F15EAC61571
:1006400017D0D8B2E1B2401A50EA056110D198B281
:10065000A1B2401A50EA05410AD123F07F4024F0AC
:100660007F41401A50EA052102D1180EA0EB146018
:1006700070BDA342DBD018BA21BA884201D901204B
:1006800070BD4FF0FF3070BD0AB9002070BD10F88A
:10069000013B11F8014B63B1A3420AD1521E08D0AD
:1006A00010F8013B11F8014B1BB1A34201D1521EBE
:1006B000EDD1181B70BD421E12F8013F002BFBD17B
:1006C00011F8013B002B02F8013BF9D1704710B53E
:1006D000203AC0F00B80B1E81850203AA0E818503A
:1006E000B1E81850A0E81850BFF4F5AF5FEA027CFB
:1006F00024BFB1E81850A0E8185044BF18C918C06A
:10070000BDE810405FEA827C24BF51F8043B40F80A
:10071000043B08BF7047D20728BF31F8023B48BFEF
:1007200011F8012B28BF20F8023B48BF00F8012B2D
:1007300070474FF000020429C0F0128010F0030C43
:1007400000F01B80CCF1040CBCF1020F18BF00F8C4
:10075000012BA8BF20F8022BA1EB0C0100F00DB873
:100760005FEAC17C24BF00F8012B00F8012B48BFD1
:1007700000F8012B70474FF0000200B51346944675
:100780009646203922BFA0E80C50A0E80C50B1F1E9
:100790002001BFF4F7AF090728BFA0E80C5048BFFD
:1007A0000CC05DF804EB890028BF40F8042B08BF9B
:1007B000704748BF20F8022B11F0804F18BF00F897
:1007C000012B704710B5044610F0030F08BF11F05D
:1007D000030F40F015804FF0013E121FC0F20E8053
:1007E00051F8043BA3EB0E0C2CEA030C1CEACE1CC4
:1007F00008BF40F8043BF0D0A1F1040102F104026B
:10080000521E08DB11F8013B002B00F8013BF7D129
:100810001146FFF78EFF204610BD704770477047A6
:10082000754600F02BF8AE4605006946534620F0A9
:100830000700854618B020B5FFF78CFDBDE82040C5
:100840004FF000064FF000074FF000084FF0000B8C
:1008500021F00701AC46ACE8C009ACE8C009ACE83F
:10086000C009ACE8C0098D46704710B50446AFF327
:1008700000802046BDE81040FFF757BD0048704794
:10088000A021002401491820ABBEFEE7260002008B
:10089000704710B505F062FC002010BD0B490C48F4
:1008A0000C4A0B8803800B8843800B8883800B885D
:1008B000C3800B8803810B8843810B88838109885F
:1008C000C181107840F00100107070470030006066
:1008D000E40F0024050000240B490C480C4A0B8847
:1008E00003800B8843800B8883800B88C3800B8830
:1008F00003810B8843810B8883810988C18110782B
:1009000040F010001070704700300060F40F0024B9
:100910000500002410B5104C00224021204600F0B4
:10092000BAFA01222046402100F0B5FA0122204601
:10093000402100F0B0FA01222046402100F0ABFA3D
:1009400001222046402100F0A6FA00222046BDE800
:100950001040402100F09FBA0010025870B54FF4CB
:1009600000711C4C1C4E024619484D10072A2DD20E
:10097000DFE802F02C0406081222270000221CE007
:1009800000221FE0002200F086FA01222046082102
:1009900000F081FA012209E05FF0010200F07BFA29
:1009A00000222046082100F076FA0022294630462F
:1009B000BDE8704000F06FBA012200F06CFA00222E
:1009C000E4E7012200F067FA0122EAE70022E5E706
:1009D000000402580010025800200258FEE7704739
:1009E0004FF4806000F028B9102000F025B94020B5
:1009F00000F022B972B6FEE7F0B5B3F5804F05D02E
:100A00006FF0704140F822100020F0BD91E83800EE
:100A10008F898E6950F8221024013343054E44EA31
:100A200005242343314043EA07430B4340F8223077
:100A3000EAE700000000F0CFF0B50A6850F8223075
:100A400023F0010340F822308C68082C2CD00026BB
:100A50004A68D1E903CE22434CEA060C01F11403A3
:100A600042EA0C0242EA0E0293E8F8501A4322438B
:100A70000C682A43D1E90C35324350F824603A43DC
:100A800042EA0C02DFF840C042EA0E028F6B1343C9
:100A90001D432F4326EA0C063E4340F824600A6BB0
:100AA000B2F5801F02D007E04026D1E70A684AB1BC
:100AB000026842F4801202600A681AB10268496B47
:100AC0000A4302600020F0BD7FFB3F00F0B58C6858
:100AD00000EB8202D1E90036B1F80CE04FEA042CB9
:100AE000134C0D8A43EA06130E7D67014CEA0E4C47
:100AF00043EA0C0304EB05552B438D6907EB0666AF
:100B0000576833432B4307F040452B43536002683B
:100B1000D2020BD5098A4268436804EB015122F4E2
:100B20007002114323F470030B4343600020F0BDB7
:100B30000000F0FF2DE9F041B6B014212FA8FFF717
:100B40001AFE2D480168002952D14FF00108C0F863
:100B50000080BC216846FFF70EFE4FF080700090C9
:100B600000246846119400F03FFD08B1FFF742FFF2
:100B70002248016841F4805101600068022531AAD1
:100B800000F4805034902802CDE92F0503261C483C
:100B90000C2782E8D0002FA900F05AF831AA4CF2B5
:100BA0003370CDE92F0517482FA982E8D00000F057
:100BB0004FF831AA4FF68370CDE92F0512482FA9BF
:100BC00082E8D00000F044F8092131948020CDE97A
:100BD0003261CDE92F050D482FA900F039F831AA6F
:100BE0000B482FA982E8D000CDE92F8500F030F81E
:100BF00036B0BDE8F081000008000024D44402585B
:100C000000180258000C0258001002580008025840
:100C100000140258102808D0402808D0B0F5806F82
:100C200007D10448802100F02EB9FFF737BEFFF747
:100C300053BE7047001C02584FF0B04110B5D1F8B8
:100C40008820024203D0C1F88800FFF7E3FF10BDFF
:100C50002DE9F84F03247D4D00234FF001094FF09B
:100C6000B04B4FF00F0AE9E009FA03F73A4076D0AB
:100C70000E7906F00306012E01D0022E18D1D0F80D
:100C800008C04FEA430ECE6804FA0EF82CEA080CAE
:100C900006FA0EF646EA0C068660D0F804C00E7915
:100CA0002CEA070CC6F300169E4046EA0C06466086
:100CB0000E79F643B6070BD0C6684FEA43088F6833
:100CC00004FA08FC26EA0C0607FA08F73743C7605F
:100CD0000E7906F00306022E12D1DE080F694FEAE4
:100CE000437C00EB8606B646366A4FEADC6C0AFAAD
:100CF0000CF807FA0CF726EA08063743CEF82070FE
:100D00000F7906684FEA430807F0030704FA08FC66
:100D100007FA08F726EA0C06374307604E6816F410
:100D2000403F1CD04A4E376847F0020737603668AC
:100D30009F0706F00206009623F0030606F1B04670
:100D4000B6463F0FD6F80864DFF808810AFA07FCB8
:100D5000404526EA0C0603D14FF0000C41E06CE060
:100D6000DFF8F4C0604502D14FF0010C39E0DFF844
:100D7000ECC0604502D14FF0020C32E0DFF8E0C079
:100D8000604502D14FF0030C2BE0DFF8D8C060457E
:100D900002D14FF0040C24E0DFF8CCC0604502D152
:100DA0004FF0050C1DE0DFF8C4C0604502D14FF0E4
:100DB000060C16E0DFF8B8C0604502D14FF0070C12
:100DC0000FE0DFF8B0C0604502D14FF0080C08E03A
:100DD000DFF8A4C0604502D14FF0090C01E04FF0EC
:100DE0000A0C0CFA07FC4CEA060CCEF808C44F6853
:100DF000DBF80060FF0226EA020600D516435F46D4
:100E0000CBF80060D1F804C0DBF804605FEA8C2CFA
:100E100026EA020600D516437E606E684F6826EA11
:100E20000206BF0300D516436E602E684F6826EA9F
:100E30000206FF0300D516432E605B1C0A6832FAD7
:100E400003F67FF411AFBDE8F88F00008000005872
:100E5000F4440258000002580004025800080258E6
:100E6000000C0258001002580014025800180258D2
:100E7000001C025800200258002402580069084053
:100E800000D001207047426921EA02030A4043EA88
:100E90000241816170470AB1816170470904FBE733
:100EA00001480068000C70470010005C0148806831
:100EB000704700001000002410B501F073F90E4CCB
:100EC000B0FBF4F10DA004F0B3FB01F025F9B0FB89
:100ED000F4F117A004F0ACFB01F040F9B0FBF4F121
:100EE0001FA004F0A5FB01F04BF9B0FBF4F1BDE845
:100EF000104028A004F09CBB40420F005B48414CCE
:100F00005F4765745F4350555F5243435F436C6F67
:100F1000636B5D48414C5F5243435F537973436C4D
:100F20006F636B467265713A25644D487A0D0A000D
:100F30005B48414C5F4765745F4350555F52434384
:100F40005F436C6F636B5D48414C5F5243435F4846
:100F5000434C4B467265713A25644D487A0D0A0040
:100F60005B48414C5F4765745F4350555F52434354
:100F70005F436C6F636B5D48414C5F5243435F500E
:100F8000434C4B31467265713A25644D487A0D0ADF
:100F9000000000005B48414C5F4765745F4350555B
:100FA0005F5243435F436C6F636B5D48414C5F52DC
:100FB00043435F50434C4B32467265713A25644D52
:100FC000487A0D0A0000000030B590F84120202A30
:100FD00024D190F84020012A20D0012380F840300D
:100FE000242280F84120202300240268156825F07F
:100FF000010515600268156825F4805515600268C2
:1010000015680D43156001680A6842F001020A6024
:1010100080F8413080F84040002030BD022030BDD3
:1010200030B590F84120202A22D190F84020012AA2
:101030001ED0012380F84030242280F84120202453
:1010400000250268136823F0010313600268136827
:1010500023F4706343EA0121116001680A6842F0D9
:1010600001020A6080F8414080F84050002030BD05
:10107000022030BD70B5040004D094F84100002572
:1010800010B106E0012070BD204684F8405000F009
:101090004DF8242084F841002068016821F0010106
:1010A0000160D4E9001020F0706008612068816858
:1010B00021F400418160E06821680128A06806D021
:1010C00040F404408860E068022803D006E040F461
:1010D0000040F7E721684FF4006048602021206855
:1010E000114A4368134343602068C26822F40042F7
:1010F000C26054F8106B0DCC104340EA0320F0603E
:1011000054F81C3CD4E900021043186054F81C0D3C
:10111000026842F001020260656484F841102563B0
:1011200084F84250002070BD0080000210B5B6B0B7
:10113000044614212FA8FFF71EFBBC216846FFF7C9
:101140001AFB18492068884229D108200090002401
:101150006846209400F048FA08B1FFF74BFC1248AB
:10116000016841F00201016000682FAB122100F01C
:10117000020034904FF4C070042283E813000B483F
:101180002FA9CDE93242FFF763FD07480830016817
:1011900041F400110160006800F40010349036B092
:1011A00010BD000000540040E04402580004025802
:1011B000032010B500F086F800F0F4FF0F4A104944
:1011C00014681368C4F3032203F00F038A5CC95C3C
:1011D00002F01F0201F01F01D0400A4A20FA01F17B
:1011E000116009490860002000F010F808B10120E2
:1011F00010BD00F02BF8002010BD0000184402586C
:10120000F8620008200000241C00002470B50D4D79
:1012100004462878A0B14FF47A71B1FBF0F00A4986
:101220000968B1FBF0F001F037FC48B9102C07D287
:1012300000222146501E00F025F800206C6070BD91
:10124000012070BD100000241C000024054808B5D2
:10125000016841F002010160006800F002000090A6
:1012600008BD0000F4440258002809DB410900F0E1
:101270001F028900012001F1E0219040C1F8000126
:10128000704700000E4BF0B41B680D46C3F30223F9
:10129000C3F10706042E00D90426191D072901D21F
:1012A000002300E0DB1E012404FA06F19C40491EE5
:1012B0002940641E994014402143F0BC02F01EBD39
:1012C0000CED00E0064900F0070210B54FF6FF04F0
:1012D0000868044B204040EA02201843086010BD13
:1012E0000CED00E00000FA05134970B50A68D2431E
:1012F000520705D5096801F00701814213D118E0B2
:101300000A6822F0070202430A60FFF7CFFD0A4D88
:101310004FF47A760446083D07E000BFFFF7C6FDAC
:10132000001BB04201D9012070BD2868C043800471
:10133000F4D4002070BD00000C48025810B500F035
:10134000EBFE05490968054AC1F30211515C01F041
:101350001F01C84010BD000020440258F862000878
:10136000494930B5484C0B1D0A68143409681D689A
:10137000246802F00303C5F30012C1F30531C4F37E
:10138000CC04002914FB02F200EE102AF8EE400A09
:1013900075D03F4A9FED3D1AB7EE000A6BB1DFED05
:1013A0003D1A012B01D0022B64D002EE101A1168F5
:1013B000F8EE422A81EEA22A21E0334C283C236831
:1013C0009B0612D5344B246801EE901A1168C4F3C1
:1013D000C104F8EE612AE34001EE903AC1F308013E
:1013E000F8EE611A81EEA22A0BE001EE901ADFED11
:1013F0002B2A00BFF8EE611A116882EEA12AC1F310
:10140000080101EE901A1168F8EE611A40EE811A97
:1014100071EE800A62EE200AC1F3462101EE101A35
:10142000B8EE411A31EE001AC0EE811ABCEEE11A94
:1014300080ED001A1168C1F3064101EE101AB8EEF2
:10144000411A31EE001AC0EE811ABCEEE11A80EDAD
:10145000011A1168C1F3066101EE101AB8EE411AC3
:1014600031EE000A80EE801ABCEEC10A80ED020A5D
:1014700030BD04E001EE901ADFED092ABAE7002141
:10148000016041608160F3E72844025800000039A0
:10149000384402580024744A0090D0030024744C4D
:1014A00020BCBE4B494930B5484C0B1D0A681C3462
:1014B00009681D68246802F00303C5F30022C1F324
:1014C0000551C4F3CC04002914FB02F200EE102AEB
:1014D000F8EE400A75D03F4A9FED3D1AB7EE000A7C
:1014E0006BB1DFED3D1A012B01D0022B64D002EE6F
:1014F000101A1168F8EE422A81EEA22A21E0334C3C
:10150000283C23689B0612D5344B246801EE901AC0
:101510001168C4F3C104F8EE612AE34001EE903A89
:10152000C1F30801F8EE611A81EEA22A0BE001EE88
:10153000901ADFED2B2A00BFF8EE611A116882EED7
:10154000A12AC1F3080101EE901A1168F8EE611AA0
:1015500040EE811A71EE800A62EE200AC1F3462144
:1015600001EE101AB8EE411A31EE001AC0EE811ADF
:10157000BCEEE11A80ED001A1168C1F3064101EEDC
:10158000101AB8EE411A31EE001AC0EE811ABCEE04
:10159000E11A80ED011A1168C1F3066101EE101A1B
:1015A000B8EE411A31EE000A80EE801ABCEEC10A94
:1015B00080ED020A30BD04E001EE901ADFED092A49
:1015C000BAE70021016041608160F3E728440258D6
:1015D00000000039404402580024744A0090D003AF
:1015E0000024744C20BCBE4B2DE9FC5F044650F82F
:1015F000241B002500902E460801FE4FDFF8F883DB
:101600001DD5606E50B1B0F5801F0CD0B0F5001F35
:101610000ED0B0F5401F1DD001250FE0386840F412
:101620000030386016E00221201D01F0E1FD03E0EA
:101630000098022101F06CFE05000BD02E46208898
:10164000C00523D5606D05281ED2DFE800F00C111F
:10165000161B1B00626ED8F8001021F440111143D4
:10166000C8F80010EBE7386840F40030386009E053
:101670000021201D01F0BCFD03E00098002101F0D5
:1016800047FE05466DB100E001252E462088800505
:1016900028D5A06D80281ED00CDC90B140280ED13A
:1016A00014E0626DD8F8001021F007011143C8F86A
:1016B0000010EBE7C02813D0B0F5807F10D00125D3
:1016C0000FE0386840F40030386009E00021201D48
:1016D00001F08EFD03E00098002101F019FE05469F
:1016E00095B12E462088DFF81093400509F10809CE
:1016F0002CD5D4F8A400B0F5800F20D00DDCA0B11B
:10170000B0F5001F0FD115E0A26DD8F8001021F43C
:10171000E0711143C8F80010E4E7B0F5C00F13D032
:10172000B0F5000F10D001250FE0386840F400300C
:10173000386009E00021201D01F05AFD03E0009807
:10174000002101F0E5FD054675B12E462088000513
:101750002DD5D4F8A800B0F1007F21D00EDCA8B1BF
:10176000B0F1807F10D116E0D4F8A420D9F8001091
:1017700021F460011143C9F80010E7E7B0F1407FA0
:1017800013D0B0F1806F10D001250FE0386840F41D
:101790000030386009E00021201D01F029FD03E040
:1017A0000098002101F0B4FD05466DB12E46206879
:1017B00080011FD5A06CD8B110280FD0202812D0DE
:1017C000302815D0012514E0D4F8A820D9F800104D
:1017D00021F0E0611143C9F80010E8E7386840F4EF
:1017E0000030386004E00221201D01F001FD0546B3
:1017F0006DB12E462088C0042BD5E06DB0F5005F9A
:1018000020D00DDCA0B1B0F5805F0FD115E07A4893
:10181000A26C001F016821F0300111430160E9E76B
:10182000B0F5405F13D0B0F5804F10D001250FE028
:10183000386840F40030386009E00021201D01F0D4
:10184000D7FC03E00098002101F062FD054685B158
:101850002E462088800429D5206EB0F5403F23D045
:1018600010DC08B3B0F5803F14D0B0F5003F0FD1C5
:1018700015E0E26DD8F8001021F4E0411143C8F8FA
:101880000010E6E7B0F5802F0ED0B0F5A02F0BD0FA
:1018900001250AE00121201D01F0AAFC03E00098C7
:1018A000012101F035FD05468DB12E46208840040A
:1018B0002AD5D4F8AC00B0F1405F23D010DC08B3D7
:1018C000B0F1805F14D0B0F1005F0FD115E0226E4F
:1018D000D8F8001021F4E0211143C8F80010E5E722
:1018E000B0F1804F0ED0B0F1A04F0BD001250AE02F
:1018F0000121201D01F07CFC03E00098012101F092
:1019000007FD05466DB12E46208800041FD5E06E08
:10191000D8B1B0F1805F0ED0B0F1005F10D00125DA
:1019200014E0D4F8AC20D9F8001021F0E0411143C4
:10193000C9F80010E8E7386840F40030386004E087
:101940000121201D01F054FC05466DB12E46206892
:10195000C0011ED5606CD0B101280ED0022811D074
:10196000032814D0012513E0E26ED8F8001021F00E
:1019700040511143C8F80010E9E7386840F40030DE
:10198000386004E00221201D01F032FC054685B1DB
:101990002E462068DFF85CB04002ABF11C0B57D537
:1019A0001648016841F480710160FFF77FFA8246B2
:1019B0000EE01148626C001F016821F00301114321
:1019C0000160E6E7FFF772FAA0EB0A0064283DD851
:1019D0000A480068C005F5D57DBBDFF81CA0B4F847
:1019E000B0200AF1200ADAF8001002F4407001F485
:1019F000407105E02C4402585044025800480258F7
:101A0000814211D0DAF80010DAF8002021F4407198
:101A100042F48032CAF80020DAF8002022F4803242
:101A2000CAF80020CAF80010D4F8B000B0F5807FE2
:101A300021D1FFF73BFA019019E008E0FFF736FAF1
:101A40000199411A41F28830814210D903252E466E
:101A50002078DFF844A4C0073DD0A06F182838D004
:101A600026DC80B3082829D0102825D12CE0DAF80C
:101A700000008007E2D5D4F8B010C1F3012003289C
:101A800058460DD0016821F47C510160B4F8B020B3
:101A9000DAF80010C2F30B021143CAF80010D7E7BE
:101AA000FE4A036802EA111223F47C511143ECE769
:101AB00020280ED028280CD001250BE00121201D64
:101AC00001F096FB04E004E00098012101F020FC05
:101AD00005465DB12E46207880071ED5606F06282A
:101AE00019D2DFE800F0160C11161616A26FDAF8FC
:101AF000001021F038011143CAF80010EBE7012172
:101B0000201D01F075FB03E00098012101F000FCAD
:101B1000054675B100E001252E46207840071FD507
:101B2000D4F89000062819D2DFE800F0160C111640
:101B30001616626FDAF8001021F007011143CAF897
:101B40000010EAE70121201D01F052FB03E000989C
:101B5000012101F0DDFB05469DB100E001252E4687
:101B6000207880062BD5D4F88C00B0F1405F24D0CB
:101B700011DC10B3B0F1805F15D0B0F1005F10D16F
:101B800016E0D4F89020D9F8001021F00701114395
:101B9000C9F80010E4E7B0F1804F0ED0B0F1A04FCB
:101BA0000BD001250AE00021201D01F021FB03E0FC
:101BB0000098022101F0ACFB05468DB12E4620783D
:101BC00040062BD5D4F89800B0F5406F24D011DC36
:101BD00010B3B0F5806F15D0B0F5006F10D116E0DE
:101BE000D4F88C20DAF8001021F0E0411143CAF853
:101BF0000010E4E7B0F5805F0ED0B0F5A05F0BD029
:101C000001250AE00021201D01F0F2FA03E000980E
:101C1000022101F07DFB05468DB12E46207800069D
:101C20002BD5D4F89C00B0F5C04F24D011DC10B3F4
:101C3000B0F5005F15D0B0F5804F10D116E0D4F8A4
:101C40009820D9F8001021F4E0511143C9F8001090
:101C5000E4E7B0F5004F0ED0B0F5204F0BD00125D2
:101C60000AE00021201D01F0C3FA03E000980221E0
:101C700001F04EFB05464DB12E46207800071ED5DB
:101C8000D4F88000B0F5805F0AD00FE0D4F89C2033
:101C9000D9F8001021F460411143C9F80010ECE7B5
:101CA0000098022101F034FB00B10126D4F8802015
:101CB000DAF8001021F440511143CAF800102078DE
:101CC000C00613D5D4F89400B0F5807F05D10098F4
:101CD000022101F01DFB00B10126D4F89420D9F8AF
:101CE000001021F440711143C9F80010206800036E
:101CF00016D5D4F8A00038B1B0F5803F09D0B0F5C2
:101D0000003F0BD001250AE00021201D01F070FAF0
:101D100003E00098022101F0FBFA054685B12E464A
:101D20002068400322D5D4F88400B0F5801F11D07C
:101D3000B0F5001F13D0B0F5401F15D0012514E0F9
:101D4000D4F8A020D9F8001021F440311143C9F88B
:101D50000010E5E7386840F40030386004E000988F
:101D6000012101F0D5FA054655B12E462068C00381
:101D70001CD5E06C70B1B0F5803F10D0012514E0A7
:101D8000D4F88420DAF8001021F440111143CAF885
:101D90000010EBE7386840F40030386004E00221BE
:101DA000201D01F025FA0546CDB12E4620688000A1
:101DB00005D50098022101F0ABFA00B10126206898
:101DC00080031BD5E06FB8B1B0F5807F10D0B0F5BF
:101DD000007F11D0B0F5407F0ED001250DE02E48D8
:101DE000E26C0838016821F4803111430160DDE7BD
:101DF000386840F400303860F5B32E462068C002E1
:101E000007D5226FD8F8001021F000411143C8F81F
:101E100000102068C00008D5D4F8B420DBF800100A
:101E200021F480411143CBF800102068800207D5CF
:101E3000A26ED8F8001021F080711143C8F800108C
:101E4000206840000CD5DBF8001021F40041CBF8ED
:101E50000010DBF80010D4F8B8201143CBF80010C4
:101E60002068002807DA0C48226D0838016821F044
:101E700040511143016000E014E02068000208D5E1
:101E8000D4F88820DAF8001021F440011143CAF890
:101E9000001086B1012003E054440258CFFFFF0038
:101EA000BDE8FC9FE26FDAF8001021F440711143A5
:101EB000CAF80010A2E70020EDE700002DE9F05F6E
:101EC00004000F467ED0DFF83882D8F8000000F01A
:101ED0000F00B8420CD2D8F8001021F00F0139439E
:101EE000C8F80010D8F8000000F00F00B84269D11F
:101EF0002078844D40070AD52069296801F07001D7
:101F0000884204D9296821F07001014329602078B2
:101F10007C4E361D00070AD56069316801F07001FA
:101F2000884204D9316821F0700101433160207882
:101F3000C0060AD5A069316801F4E061884204D97D
:101F4000316821F4E061014331602078DFF8B4B1F9
:101F500080060BF1080B0CD5E1695846DBF8002030
:101F600002F07002914204D9026822F070020A4322
:101F70000260207880070AD5E068296801F00F0127
:101F8000884204D9296821F00F0101432960207893
:101F9000C0073ED05B49A2682868183920F47060F9
:101FA000104328606068022818D0032819D00968F7
:101FB000012819D0490700294ADADFF848A1AAF117
:101FC000080A00E044E0DAF8002022F007020243A9
:101FD000CAF80020FEF76AFF814612E0096889030B
:101FE000E9E709688901E6E7C905E4E7FEF75EFF6E
:101FF000A0EB090141F28830814202D90320BDE8FB
:10200000F09F6168DAF8000000F03800B0EBC10F13
:10201000ECD1207880070AD5E068296801F00F012B
:10202000884204D2296821F00F0101432960D8F8C1
:102030000010404601F00F01B9420BD9016821F0B0
:102040000F0139430160006800F00F00B84201D071
:102050000120D4E7207840070AD52069296801F0DB
:102060007001884204D2296821F07001014329607F
:10207000207800070AD56069316801F07001884254
:1020800004D2316821F07001014331602078C0062C
:102090000AD5A069316801F4E061884204D2316850
:1020A00021F4E06101433160207880060CD5E169BC
:1020B0005846DBF8002002F07002914204D2026818
:1020C00022F070020A43026000F06CF80E492A68A0
:1020D0002B68C2F3032203F00F038A5CC95C02F091
:1020E0001F0201F01F01D040084A20FA01F11160DF
:1020F0000749086007480068BDE8F05FFFF786B849
:102100000020005218440258F86200082000002401
:102110001C0000241400002430B500F043F80B4AE2
:102120000B490C4B15681468C5F3032204F00F0427
:102130008A5C095D02F01F0201F01F01D040064ACF
:1021400020FA01F119601060084630BD18440258A9
:10215000F8620008200000241C00002400B5FFF7EE
:10216000DBFF05490968054AC1F30211515C01F022
:102170001F01C84000BD00001C440258F86200085E
:1021800000B5FFF7C9FF05490968054AC1F30221F7
:10219000515C01F01F01C84000BD00001C44025802
:1021A000F8620008454970B545480968434B103B43
:1021B00011F0380208D00111082A03D0102A0BD0E0
:1021C000182A0BD0084670BD19688906FBD5196816
:1021D000C1F3C101C84070BD3A4870BD3749374DA1
:1021E00018310C1D24350A68096826682D6802F02C
:1021F000030406F00102C1F30511C5F3CC0515FB7C
:1022000002F200EE102AB8EE400AE9B32F4ADFEDE1
:102210002E0AB7EE001A6CB1DFED2D1A012C01D099
:10222000022C43D002EE101A1068F8EE422A81EE1A
:10223000A22A1EE01C68A40611D51B6801EE901AA4
:102240001168C3F3C103F8EE612AD84001EE900A89
:10225000C1F30800F8EE611A81EEA22A0BE001EE4C
:10226000901ADFED1C2A00BFF8EE611A106882EEAA
:10227000A12AC0F3080001EE900AF8EE611A40EEC0
:10228000201A31EE810A00E015E022EE000A106803
:10229000C0F34620401C00EE900AF8EE600A80EE83
:1022A000201ABCEEC10A10EE100A70BD01EE901AA1
:1022B000DFED092AD8E7002070BD00001044025865
:1022C0000090D00340787D0100000039304402586E
:1022D0000024744A0024744C20BCBE4B2DE9F05FEE
:1022E00004007DD0FF4F2078FE4D1837DFF8F493BF
:1022F000103DC00748D0D9F80000396800F0380018
:10230000102815D0182803D101F0030002280FD09F
:102310006068B0F5803F12D010B1B0F5A02F18D092
:10232000286820F480302860286820F4802009E0A4
:102330002868800328D560680028D2D024E0286867
:1023400040F480302860606888B1FEF7AFFD064633
:1023500009E0286840F480202860F0E7FEF7A6FD39
:10236000801B64286FD828688003F7D50CE0FEF73F
:102370009DFD064605E000BFFEF798FD801B642822
:10238000F0D828688003F7D4207841F20308D54EAE
:102390000C3E800769D5D9F80000396810F0380084
:1023A0000ED0182801D188070AD0E06890B32968B8
:1023B00021F0190101432960FEF778FD824631E0E2
:1023C0002868400702D5E06800288AD0E1682868BC
:1023D00020F0190008432860FEF768FD824607E0F8
:1023E000DFE000BFFEF762FDA0EB0A000228B9D8CB
:1023F00028684007F6D500BFFEF752FD40451BD8C0
:102400002069402812D0316821F47C3141EA003043
:1024100030602AE018E000BFFEF748FDA0EB0A009C
:1024200002289FD828684007F6D5E5E7306820F4F1
:102430007C3040F40030EBE7207C316821F0FE4135
:1024400041EA0060E4E70DE1286820F0010028601F
:10245000FEF72CFD824605E0FEF728FDA0EB0A0002
:1024600002288DD828684007F6D42078C0065DD5AC
:10247000D9F80000DFF86CB2396800F03800ABF131
:10248000040B082810D0182803D101F003000128FC
:102490000AD0E0690028286838D040F08000286021
:1024A000FEF704FD824623E02868C00523D5E069D5
:1024B000802876D11FE0206A202821D0316821F0C1
:1024C000F84141EA8060306030E000BF94F82010AD
:1024D000DBF8002022F07C5242EA0161CBF80010C8
:1024E00024E000BFFEF7E2FCA0EB0A00022898D827
:1024F0002868C005F6D5FEF7D3FC4045E6D8DAE7F4
:10250000306820F0F84040F08040DCE720F08000A8
:102510002860FEF7CBFC064605E000BFFEF7C6FCD0
:10252000801B02289DD82868C005F7D420780007B2
:1025300029D56C486169643000298046016811D052
:1025400041F001010160FEF7B1FC064605E000BF65
:10255000FEF7ACFC801B0228C9D8D8F80000800721
:10256000F6D510E021F001010160FEF79FFC064660
:1025700005E000BFFEF79AFC801B022872D8D8F84D
:1025800000008007F6D42078800623D5A0690028B3
:10259000286810D040F480502860FEF787FC06467B
:1025A00005E02CE1FEF782FC801B02285AD828683F
:1025B0008004F7D50EE020F480502860FEF776FC0A
:1025C000064604E0FEF772FC801B02284AD8286801
:1025D0008004F7D4207840074FD5DFF80C81D8F875
:1025E000001041F48071C8F80010FEF75FFC064649
:1025F00005E000BFFEF75AFC801B642832D8D8F8EB
:102600000000C005F6D5374EA068603601280AD014
:1026100008B1052813D0306820F001003060306820
:1026200020F0040002E0306840F001003060A06853
:1026300041F2883A90B1FEF739FC80460AE03068F2
:1026400040F004003060EEE7FEF730FCA0EB08013C
:10265000514507D830688007F6D50EE0FEF726FC16
:10266000804607E084E000BFFEF720FCA0EB0801F5
:1026700051457DD830688007F6D4606AB0B3DFF882
:102680006480D9F8001008F12008C1F3C2010329C1
:102690006FD00228286820F08070286003D0FEF7F1
:1026A00005FC044680E0FEF701FC064605E000BF9D
:1026B000FEF7FCFB801B022873D828688001F7D442
:1026C000E26A40F2F331386854F8283F884340EA20
:1026D000021018433860217B4FF4FE0C22894FF022
:1026E000FE4704E0104402580048025889E0208A5E
:1026F0004902521E267DA1F5007189B2401EC2F327
:1027000008021143761E0CEA004001433E4807EAE6
:10271000066211433C4AC8F800100832016821F0F3
:102720000101016011684FF6F876236AB14341EA6E
:10273000C30111600168A26921F00C01114301601D
:102740000168E26921F0020111430160016841F46E
:1027500080310160016841F400310160016841F499
:1027600080210160016841F001010160286801E0F9
:1027700017E01DE040F080702860FEF797FB0446EC
:1027800005E000BFFEF792FB001B022809D828686D
:102790008001F7D535E000BFFEF788FB001B02285B
:1027A00002D90320BDE8F09F28688001F4D428E016
:1027B00039680128D8F8000021D0A26A01F003038B
:1027C00093421CD1E26AC1F305118A4217D1216BF1
:1027D000C0F30802491E8A4211D1616BC0F3462240
:1027E000491E91420BD1A16BC0F30642491E914292
:1027F00005D1E16BC0F30660491E814201D0012082
:10280000D0E70020CEE700002C4402582DE9F04725
:10281000040029D0504A4FF0000920684F4B504D1A
:102820009042C4F8289006D0984204D0A84202D022
:10283000E1680F2918D8E1684FF0010AE76B083109
:10284000C9080AEB57167143904205D0984203D04D
:10285000A84201D0082907D8904203D0984201D05D
:10286000A84204D1102902D90120BDE8F08794F8CC
:10287000810020B9204684F8809000F073F802208F
:1028800084F881002068016821F00101016021685D
:10289000A0698A68B0F1806F02F4F81010D1626804
:1028A000B2F5800F01D01AB10AE0A26B22B107E0A5
:1028B000A26BB2F1805F03D10A6842F480520A60D1
:1028C000A66AE169E26B25683143E368024311437C
:1028D0001943A960D4E90D02D4E90571636A256939
:1028E0001843D4F820C00A43266810432843A56D36
:1028F0003843D4E90182D4E9123140EA0C0040EABD
:1029000008000843104318432843F060606868B922
:102910002068816821F4C05141F400618160206821
:10292000816821F4C06141F4806181602068016D9B
:1029300021F0010101656068400206D52068626DE2
:10294000C16821F000411143C160C4F8849084F84B
:1029500081A0002089E700000030014000380040DD
:10296000003C00402DE9F041B6B0044614212FA8E8
:10297000FDF701FFBC216846FDF7FDFE26492068F2
:10298000884245D102A94FF080080224C0220623C4
:1029900081E81C00002505940526089580141790F1
:1029A000CDE90685CDE900066846FEF71DFE08B1B3
:1029B000FEF720F81948016841F480510160006871
:1029C00000F48050349015481038016841F002013D
:1029D0000160016801F002013491016841F00801D1
:1029E000016000682FA90327339600F00800349097
:1029F000182081E8B1000A48FEF72AF930AACDF87C
:102A0000BC8033962FA9074882E8B000FEF720F972
:102A100036B0BDE8F081000000300140F0440258BB
:102A200000040258000C025870B5040015460E460A
:102A300003D094F8450010B107E0012070BD0020DC
:102A400084F84400204600F025F8206804F10801CD
:102A5000FDF7F2FFA26831462068FEF737F8E36A17
:102A60002946D4E90102FDF7C7FFA16801232068C8
:102A7000074A50F8215045F0010540F821501068F0
:102A800040F00040106084F84530002070BD000028
:102A900000400052FEF74EB8401EB0F1807F10B5E6
:102AA00001D3012010BD4FF0E02460610F216017B9
:102AB00001F024F90020A0610721216110BD30B58B
:102AC00090F88010012918D0012280F8802024215C
:102AD000C0F884100022202450F8641B0B680D6895
:102AE00023F0005325F001050D60026050F8641CCE
:102AF0000B6004620277104630BD022030BD70B515
:102B0000044690F8800001281DD0012284F880201E
:102B10002420C4F8840020680568026822F00102BD
:102B200002602068826822F060620A438260204668
:102B300000F0F2FD2268202100201560C4F8841006
:102B400084F8800070BD022070BD70B5044690F816
:102B5000800001281DD0012284F880202420C4F8A0
:102B6000840020680568026822F001020260206883
:102B7000826822F060420A438260204600F0CCFD69
:102B80002268202100201560C4F8841084F8800099
:102B900070BD022070BD10B5040003D0D4F88400CD
:102BA00010B107E0012010BD002084F8800020460D
:102BB00000F026F82420C4F884002068016821F081
:102BC00001010160204600F05DFE0128EBD0A06A03
:102BD00010B1204600F0C2FD2068416821F4904108
:102BE00041602068816821F02A01816020680168C5
:102BF00041F0010101602046BDE8104000F012BE26
:102C000030B5B5B0044614212FA8FDF7B4FDBC21A2
:102C10006846FDF7B0FD17492068884228D1022593
:102C20006846002400951D94FEF7DEFC08B1FDF710
:102C3000E1FE1148016841F000410160006800F0C8
:102C4000004034900C480838016841F4007101607C
:102C500000680821CDE9305400F400703490CDE9CB
:102C600032414FF440702F9004482FA9FDF7F0FF38
:102C700035B030BD007C0040E844025800240258C2
:102C80002DE9F8430446D0F884001F4616460D4649
:102C9000202852D1DDB1D6B194F8800001284CD063
:102CA000012084F8800021224FF00008C4F88C80B5
:102CB000C4F884201834FEF7F9F8814654F8100C53
:102CC000A687E687183CB0F5805F03D004E00120BA
:102CD000BDE8F883206920B12E46002584F8808065
:102CE00010E00026FAE78021204600F0A1FFB8B9E5
:102CF000C6B116F8010B21688862B4F85600401E70
:102D0000A4F85600B4F856004B464FF00002009766
:102D10000028E8D14FF04001204600F089FF38B18B
:102D20000320D5E735F8020B2168C0F30800E3E77C
:102D30002020C4F884000020CAE70220C8E7000071
:102D40002DE9F04188B01C216846FDF714FD2B48A1
:102D50000024DFF8A0801026274F03220621C0F8A8
:102D600000800225C0E90174C4600123C0E9044663
:102D70008461C461046244628462C4620463446323
:102D80008463C463046402A8CDE90012002280E8D1
:102D90002A001A486946CDE90554FFF745FE08B1F7
:102DA000FDF728FE1548FF220F214C301123C0E902
:102DB0000254C0E904468461C461046244628462CE
:102DC000C462046344638463C4630464C0E9008729
:102DD0000091CDE90112CDE9031600226946CDE943
:102DE0000534FFF721FE002801D0FDF703FE08B0EF
:102DF000BDE8F0810040005204410052041000245C
:102E00002DE9F04F87B014216846FDF7B4FCA548C2
:102E1000016841F480610160016801F480610591FD
:102E2000016841F040010160016801F04001059135
:102E3000016841F008010160016801F00801059195
:102E4000016841F010010160016801F01001059175
:102E5000016841F002010160016801F00201059181
:102E6000016841F001010160016801F00101059173
:102E7000016841F004010160016801F0040105915D
:102E8000016841F480710160016801F4807105916D
:102E9000016841F020010160016801F02001059105
:102EA000016841F080010160016801F08001059135
:102EB000016841F40071016000680122DFF8E8A1B7
:102EC000202100F4007005905046FDF7E4FFDFF884
:102ED000DCB1002268215846FDF7DDFF4FF4424780
:102EE000734800223946FDF7D6FF4FF40078714849
:102EF00000224146FDF7CFFF4FF488596E4800226B
:102F00004946FDF7C8FF6D4800224FF48061FDF788
:102F1000C2FF6B4800224FF48061FDF7BCFF694897
:102F200000224FF46051FDF7B6FF67480022802170
:102F3000FDF7B1FF012469462020CDE900040020FF
:102F40000290032003905046FDF782FE4FF40415D3
:102F500069464020CDE90005002002905448FDF765
:102F600077FE0020694610260290CDE900605046A9
:102F7000FDF76EFE68206946CDE90004002002904E
:102F800003905846FDF764FE002000966946CDE99F
:102F900001505846FDF75CFE002000976946CDE9D8
:102FA000014003904248FDF753FEA0026946CDE977
:102FB0000005002002903F48FDF74AFE0020CDF8B2
:102FC00000806946CDE901403A480394FDF740FE90
:102FD000002160030A468DE807003C486946FDF77A
:102FE00037FE00213448CDE90094CDE9021169464D
:102FF000FDF72EFE0021A002CDE90004CDE902116B
:103000002E486946FDF724FEA0020021CDE9000408
:10301000CDE902142A486946FDF71AFE00214FF453
:103020002050CDE90004CDE9021126486946FDF79C
:103030000FFE20030021CDE90004CDE90214214850
:103040006946FDF705FE00211C200A468DE80700B1
:103050001B486946FDF7FCFD00208021CDE90014E6
:10306000CDE9020018486946FDF7F2FD00220A206A
:103070001146FEF707F90A20FEF7F6F8002217209E
:103080001146FEF7FFF81720FEF7EEF80022282081
:103090001146FEF7F7F82820FEF7E6F807B0BDE87E
:1030A000F08F0000E0440258002802580010025837
:1030B0000004025800000258002002580014025870
:1030C00000240258000C0258001C02580008025844
:1030D0001348002110B5114C0123124A0460C0E9C5
:1030E0000121C0E9033141618161C1610162FDF7E4
:1030F000C1FF08B1FDF77EFC09480021FDF764FF20
:1031000008B1FDF777FC06480021FDF789FF00288C
:1031100003D0BDE81040FDF76DBC10BD0054004069
:103120009C100024B17570301548072270B500213D
:10313000124E4FF48003C0E902121D010161C0E983
:103140000063DC010A22C0E90515C0E907414162BC
:103150005307C0E90A12C0E90D31C163016441643B
:103160008164C164016541658165FFF74FFB0028FB
:1031700003D0BDE87040FDF73DBC70BD003001409C
:10318000E81000241848002110B5164C0C224FF40A
:1031900061330460C0E90131C160C0E9041281619A
:1031A000C161016241628162FFF7F5FC08B1FDF780
:1031B00021FC0D480021FFF7C8FC08B1FDF71AFCFF
:1031C00009480021FFF79BFC08B1FDF713FC0648F6
:1031D000FFF775FC002803D0BDE81040FDF70ABCDE
:1031E00010BD0000007C004070110024FEE70000CC
:1031F0002DE9F047454D044689464FF0000A2868FE
:10320000C04380070AD0414E283E306820F08060DD
:103210003060FDF74BFE0746B04608E00120BDE8F0
:10322000F08700BFFDF742FEC01B022867D8D8F820
:1032300000000001F6D4206829684FF4FE0721F44D
:103240007C313E0241EA00302860207AA389B4F83C
:1032500004C040022D4D2D495B1E227CACF1010CB7
:103260001035091DA0F5007080B2521ECCF3080C79
:1032700007EA034340EA0C00184306EA02621043DF
:1032800028600868626920F0C000104308600A687E
:10329000A06922F0200202430A60281D0A6822F079
:1032A00010020A6002684FF6F873E4699A4342EA32
:1032B000C40202600868B9F1000F40F010020A6011
:1032C00011D00868B9F1010F11D040F40010086066
:1032D000D8F80000444640F08060C8F80000FDF7D0
:1032E000E5FD05460DE0086840F40020EFE740F4F6
:1032F0008010ECE7FDF7DAFD401B022801D903201E
:103300008DE720680001F5D5504688E7284402582B
:103310002DE9F047454D044689464FF0000A2868DC
:10332000C04380070AD0414E283E306820F08050CC
:103330003060FDF7BBFD0746B04608E00120BDE860
:10334000F08700BFFDF7B2FDC01B022867D8D8F890
:1033500000008000F6D4208829684FF4FE0721F091
:103360007C713E0241EA00502860207AA389B4F8BB
:1033700004C040022D4D2D495B1E227CACF1010C96
:103380001835091DA0F5007080B2521ECCF3080C50
:1033900007EA034340EA0C00184306EA02621043BE
:1033A00028600868626920F44060104308600A6879
:1033B000A06922F4007202430A60281D0A6822F400
:1033C00080720A6002684FF6F873E4699A4342EA31
:1033D000C40202600868B9F1000F40F480720A600C
:1033E00011D00868B9F1010F11D040F08070086069
:1033F000D8F80000444640F08050C8F80000FDF7BF
:1034000055FD05460DE0086840F48000EFE740F404
:103410000000ECE7FDF74AFD401B022801D903201C
:103420008DE720688000F5D5504688E7284402588B
:10343000704710B502F0E0F802F03CFCBDE8104027
:1034400002F0E8B8F0B59DB04C216846FDF793F95D
:10345000202113A8FDF78FF90220FDF745FF24482E
:1034600000242449026842F44042026002680A686B
:1034700042F001020A60096801F001011B91016834
:103480008904FCD51C4908250A6802200123052768
:1034900022F00302921C0A604FF4A0260990C0217A
:1034A000CDE90A07CDE90C10CDE90E50CDE9105455
:1034B000CDE9003668461294FEF710FF08B172B6E7
:1034C000FEE740201A903F210301CDE91650032268
:1034D000CDE9180313AB13A883E816000421FEF707
:1034E000EDFC002801D072B6FEE71DB0F0BD000073
:1034F000184802582C04005828440258454870B512
:10350000444B0168103B444811F0380105D00829AC
:1035100008D0102908D0182908D01968C1F3C101B2
:10352000C84063E03D4861E03D485FE03949394DBE
:1035300018310C1D24350A68096826682D6802F0C8
:10354000030406F00102C1F30511C5F3CC0515FB18
:1035500002F200EE102AB8EE400AC9B3324ADFED9B
:10356000310AB7EE001A1CB1012C13D0022C30D056
:103570001B6801EE901A1168C3F3C103F8EE612ACB
:10358000D84001EE900AC1F30800F8EE611A81EE0E
:10359000A22A04E001EE901ADFED242A1DE001EEDC
:1035A000900A1068F8EE611A40EE201A31EE810A96
:1035B00022EE000AC0F34620401C00EE900AF8EE0E
:1035C000600A80EE201ABCEEC10A10EE100A0DE06F
:1035D0000BE001EE901ADFED162A1068F8EE611A82
:1035E000C0F3080082EEA12AD9E700200949114B57
:1035F0000831114A0C680D68C4F3032105F00F046B
:10360000595C1B5DC84003F01F0120FA01F1C2E9BB
:10361000000170BD104402580090D00300093D0025
:1036200040787D0100000039304402580024744A7B
:1036300020BCBE4BF86200081C0000242C48F0B5EA
:103640002C4A016841F470010160106800F00F001D
:10365000072804D2106820F00F00C01D1060264912
:103660000020254C10340B68244D43F001030B60FF
:1036700020600B682B400B60136803F00F03072BCF
:1036800004D9136823F00F03DB1D13601A4C1C4A86
:1036900018341C4B261D371D2060174C1A4D28343A
:1036A0003060261D3860371D23603B1D35601C1DB2
:1036B0003A60251D2E1D1860331D2260286032607F
:1036C00018600A680C4B114C22F4802260330A60A7
:1036D000186020686FF30F00B0F1005F03D20C494F
:1036E0000120C1F8080143F2D2000A490860F0BD88
:1036F00088ED00E000200052004402587FEDF6EA19
:1037000080020101000202020000FF010010005CC3
:10371000008000510040005230B5416EB9B10168DF
:103720000D4B03F108048A688968C2F34262490FAD
:103730005D5C615C2D01B5FBF1F1A0F86A10995C4C
:10374000A25C0901B1FBF2F1A0F8681030BD0121C3
:10375000A0F86A10F8E70000E862000890F8281066
:10376000C90706D00168C36A4A6822F400321A43C6
:103770004A6090F82810890706D50168036B4A68EB
:1037800022F480321A434A6090F82810490706D57F
:103790000168436B4A6822F480221A434A6090F819
:1037A0002810090706D50168836B4A6822F4004295
:1037B0001A434A6090F82810C90606D50168C36B01
:1037C0008A6822F480521A438A6090F82810890689
:1037D00006D50168036C8A6822F400521A438A6095
:1037E00090F82810490611D50168436C4A6822F404
:1037F00080121A434A60416CB1F5801F06D10168FE
:10380000836C4A6822F4C0021A434A6090F8281078
:10381000090606D50168C26C486820F400201043F0
:1038200048607047F8B500260446C0F88C60FDF784
:103830003DFB054620686FF07E470068000708D50D
:1038400000222B464FF400112046009700F0F0F9BB
:1038500060B92068006840070AD500222B464FF463
:1038600080012046009700F0E3F908B10320F8BD7D
:103870002020C4F88400C4F88800E666002084F89C
:103880008060F8BD2DE9F04304468068D84E87B0CB
:10389000D84B2168D4E90427D4F81CC010430A6827
:1038A000002547EA0C073843324002430A6020688B
:1038B000E268416821F44051114341602268A169E6
:1038C0009A4201D0206A01439768DFF82CC3CB4E9F
:1038D000CB4807EA0C070F4397602168676ACA6AFA
:1038E00022F00F023A43CA622268B2420ED1006847
:1038F00000F03800182873D047DCB8B3082879D016
:1039000010286FD178E028287ED17BE0BD498A421B
:1039100009D1006800F00700062875D2DFE800F042
:10392000546A6C6E7072B8498A4209D1006800F01E
:103930000700062868D2DFE800F0475D5F61636535
:10394000B2498A4209D1006800F0070006285BD21C
:10395000DFE800F03A5052545658AD498A420BD134
:10396000006800F0070006284ED200E010E0DFE813
:1039700000F02B4143454749A6498A420AD10068D5
:1039800000F03800182839D0B7DD2028BBD13CE042
:1039900001203AE0A0498A4209D1006800F00700FE
:1039A000062831D2DFE800F01026282A2C2E9B4969
:1039B0008A420BD1006800F00700062824D2DFE815
:1039C00000F003191B1D1F2100201EE09A421BD18D
:1039D0008B48001D006800F00700062814D202E0A2
:1039E0000CE007E010E0DFE800F0030507090B0D2D
:1039F00002200AE0042008E0082006E0102004E08D
:103A0000202002E0402000E080208549DFF8148279
:103A10009A42854A4FF400434FEA21174FF00006BF
:103A20004ED110281AD006DC022809D004280BD069
:103A300008287CD10DE020283ED0402877D13DE0F9
:103A4000FDF77CFC014610E06846FDF789FC019912
:103A50000BE003A8FDF726FD049906E01068800638
:103A600005D51068C0F3C100C140002970D0606A5C
:103A7000676838F8102007EB4703B1FBF2F0834288
:103A800055D8B0EB073F52D8002308461946FCF73B
:103A90000DFD02467808130E120243EA01211018A8
:103AA0003A4671410023FCF701FD604AA0F54071E0
:103AB00091423CD821688FE03946D8E71946D6E7CD
:103AC000D4F81CC04FF6EF799C4546D1082819D090
:103AD00005DC58B101280CD0042875D10DE0102860
:103AE00015D0202835D040286ED134E0FEF736FBC3
:103AF00001E0FEF745FB014610E06846FDF730FCAB
:103B000001990BE003A8FDF7CDFC049906E01068CD
:103B1000800604D51068C0F3C100C140C1B1636A1A
:103B2000606838F81330B1FBF3F1490000E04BE076
:103B300001EB5001B1FBF0F0A0F11001494543D871
:103B40004FF6F0732168C0F342021840104343E07F
:103B500043E03946E3E71946E1E7082819D005DCD8
:103B600058B101280CD004282ED10DE0102815D012
:103B700020282BD0402827D12AE0FEF7EFFA01E0D9
:103B8000FEF7FEFA014610E06846FDF7E9FB0199F1
:103B90000BE003A8FDF786FC049906E01068800698
:103BA00004D51068C0F3C100C140B1B1636A606858
:103BB00038F81330B1FBF3F101EB5001B1FBF0F039
:103BC000A0F11001494505D9012506E03946EDE788
:103BD0001946EBE7216880B2C8600120A4F86A00AA
:103BE000A4F8680028462667666707B0BDE8F0833A
:103BF000F369FFCF000C0058FFF4FF1100100140E3
:103C0000544402580044004000480040004C00402A
:103C1000005000400014014000780040007C00404B
:103C20000090D003D062000800440258FFFC0F004F
:103C30002DE9F0479A4617460E460446089D4FF078
:103C400000094FF020084CE0681C4AD0FDF72EF91F
:103C5000A0EB0A00A8422AD84DB3206801684907A2
:103C60003FD5C069C04300053BD421684FF40060D4
:103C70000862216851E8000F20F4D07041E800028A
:103C8000002AF6D12068083050E8001F21F0010119
:103C900040E80012002AF5D1C4F8848084F88090AE
:103CA000C4F88880C4F88C800320BDE8F0872068C1
:103CB00050E8001F21F4D07140E80012002AF6D12C
:103CC0002068083050E8001F21F0010140E8001290
:103CD000002AF5D1C4F8848084F88090C4F88880E4
:103CE000E2E72068C06936EA000004D00020B8424C
:103CF000AAD00020D9E70120F9E7FEE7090700284C
:103D00004FEA116104DB00F1E02080F800147047F5
:103D100000F00F0000F1E02080F8141D7047000053
:103D2000002807D00E4910F0FF0F04D051FA80F0A0
:103D30000078401C704710F47F4F04D0C0F3072078
:103D4000085C0930704710F47F0F04D0C0F30740BF
:103D5000085C1130704701EB106000781930704733
:103D6000086300082DE9F04F0024924689B08B4685
:103D7000064600E0641C305D202803D0092801D0ED
:103D80005C45F7D34FF0FF387CB31A4804F10609BD
:103D9000174F056811E02868062217A1FCF740FCC0
:103DA00050B9286822463146801DFCF739FC18B905
:103DB000296811F8090020B10C3538688542EAD32A
:103DC00014E0AC688CB120216846FCF7D4FC6A464C
:103DD0005946304601F014F938B16946A047CAF88F
:103DE0000000002009B0BDE8F08FFFE74046F9E78A
:103DF00028000024240000245F5F636D645F0000DE
:103E00002DE9FC411F4604461C30DDE90831DDE99F
:103E10000A65406000601846C4E90A27C4E90C310D
:103E200024340A46232101F056FC201D0FC81A44F1
:103E30000E4B121F01F0C4FB01462160A676002044
:103E40006676C4E90705656260612076E0652066F4
:103E5000243C2346064A19460090019004F14C0088
:103E600001F0BCFF0020BDE8FC810000295A0008D9
:103E7000F75B00081C3001F00BBC70B50546FCF781
:103E80007BFAD5F88010044609B1284688472046B9
:103E9000BDE87040FCF774BA002010B5FCF75EFD79
:103EA000BDE81040FCF736BD1BA010B501F0C0FB0B
:103EB0001C4C21781CA001F0BBFB2078C00702D06D
:103EC0001FA001F0B5FB2078800702D51FA001F0EC
:103ED000AFFB2078400702D51FA001F0A9FB207896
:103EE000000702D520A001F0A3FB2078C00602D570
:103EF00020A001F09DFB2078000607D509480F306F
:103F000001681EA0BDE8104001F092BBBDE8104062
:103F10001EA001F08DBB0000627573206661756C98
:103F2000743A0A0029ED00E05343425F434653527E
:103F30005F424653523A3078253032582000000014
:103F4000494255534552522000000000505245430B
:103F50004953455252200000494D50524543495360
:103F60004552522000000000554E53544B455252CA
:103F70002000000053544B45525220005343422D21
:103F80003E424641523A253038580A000A000000A5
:103F900010B500F0FBFC002010BD0000104810B56B
:103FA000416991F82910890703D40E49002008704F
:103FB00014E0016929B10B484FF48072FCF702FC50
:103FC0000CE001F01BF808B107A100E008A10548CA
:103FD000FCF7E3FA034808A1FCF76DFB014810BDAC
:103FE00024000024001200246D73682000000000EB
:103FF00066696E73682000003E000000044949694C
:1040000091F8292060F3410281F8292070470000CF
:1040100024000024014AC2E9000170472400002462
:104020007FB514491448FFF7F5FF144C0A23144DCB
:1040300015224FF4006105F1880000F50066666105
:104040008DE80F000F4A002388380FA101F038FDDA
:104050000023064660690EA11A4601F029FC0120E2
:10406000FFF7CCFF16B9284601F08EFD04B0002002
:1040700070BD000020670008786600082400002456
:104080000413002499400008747368656C6C000088
:1040900073687278000000009B4C606990F82910EA
:1040A00041F0010180F82910FFF778FF01F0C0FA14
:1040B0005FF0000601F03AF90500FBD41B2D07D094
:1040C000606990F82810012907D002290ED017E066
:1040D0006169012081F82800ECE75B2D02D080F8AF
:1040E00028600DE0022180F82810E3E7412D80F8D8
:1040F0002860DFD0422DDDD0442D38D0432D42D072
:10410000002DD7D0FF2DD5D0092D4ED07F2D76D0C4
:10411000082D74D00D2D71D00A2DFCD0B0F87A1076
:10412000502901D3A0F87A60B0F87C30B0F87A104A
:104130008B427DD200F12A07CA1A2B30D9191844B4
:1041400001F0B0FA6069B0F87C102A300D54606953
:1041500090F82910C90706D0B0F87C102A30014425
:104160006AA001F065FA6069B0F87C50A6E0B0F88A
:104170007C0000289ED066A001F05AFA6069B0F871
:104180007C10491E0EE0B0F87C10B0F87A20914205
:1041900090D22A30095C5FA001F04AFA6069B0F859
:1041A0007C10491CA0F87C1084E7002503E058A08F
:1041B00001F03EFA6D1C6069B0F87C00A842F6DCA4
:1041C000656955A02A3501F033FA00F017FF012880
:1041D00002D1284600F04EFEFFF7E0FE01462A46D7
:1041E0004EA001F025FA60692A30FCF7FAF96169FE
:1041F000A1F87A00A1F87C005CE700E03DE0B0F8AF
:104200007C100029D0D0B0F87A20491E8BB2A0F8DB
:104210007C30521E91B2A0F87A10994224D900F154
:104220002B05CA1A2A305919184401F03BFA00E04C
:104230004AE06069B0F87A102A300E546069B0F82C
:104240007C102A30014437A001F0F2F96069B0F81F
:104250007C5003E02EA001F0EBF96D1C6069B0F812
:104260007A00A842A0DBF5E730A001F0E1F960692F
:10427000B0F87A102A300E541CE700F0BFFE012877
:104280000DD1606990F82900C00702D022A001F08A
:10429000CFF96069B0F87A102A3000F041FEFFF7DC
:1042A0007DFE01F0C5F9606950212A30FCF741FA22
:1042B000606923E016A001F0BBF96D1C6069B0F8DD
:1042C0007A00A842F6DC0AE02A300D54606990F8C2
:1042D0002900C00703D00FA0294601F0A9F96069A1
:1042E000B0F87A10491C89B220F87A1F5029418809
:1042F00001F101014180A0F17A00BDD3A0F87A60FC
:10430000A0F87C60D6E6000024000024257300009D
:1043100008000000256300000A00000025732573D3
:104320000000000008257320200800000820080075
:1043300010B5124C2068800702D511A001F078F961
:104340002068400011D50D48C01E007808B1FFF765
:10435000ABFD0A48001F007808B100F01FFD0748B8
:10436000801E008808B101F041FF2068002804DAAF
:10437000BDE8104008A001F05BB910BD2CED00E0D5
:104380006661696C656420766563746F722066652A
:104390007463680A000000006465627567206576D2
:1043A000656E740A000000007FB564242E49062063
:1043B0002E4A4FF40075CDE902042B480023CDE9C5
:1043C000001588382AA101F07BFB2C480A260394AB
:1043D00000238DE861002A4A88382AA101F070FB89
:1043E0002B48002303942CA18DE86100294A8838CA
:1043F00001F066FB2B48002303942CA18DE861009B
:10440000294A883801F05CFB2B480B2603940023D3
:104410008DE86100294A883829A101F051FB2B4819
:10442000002303942BA18DE86100294A883801F00C
:1044300047FB1248883801F0A7FB1548883801F07F
:10444000A3FB1848883801F09FFB2048883801F00A
:104450009BFB1948883801F097FB0348883801F026
:1044600093FB04B0002070BD3C010024CD45000842
:104470006C616E5F7468726561640000C40300243F
:10448000014500086B6579315F746872656164008D
:104490004C060024454500086B6579325F746872EC
:1044A00065616400D4080024894500086B65793390
:1044B0005F74687265616400E40D002405460008BD
:1044C0006C6564315F746872656164005C0B002424
:1044D000D54500086C6564305F746872656164007E
:1044E00002A010B501F0A4F8002010BD48656C6C66
:1044F0006F2052542D546872656164210A000000D7
:104500000B4C04212046FCF7B9FC30B1142001F01B
:10451000EFFAF6E70A2001F0EBFA04212046FCF757
:10452000ADFC0028F6D003A001F082F8E9E7000016
:10453000002402585072657373204B6579310D0A5F
:10454000000000000B4C08212046FCF797FC30B11E
:10455000142001F0CDFAF6E70A2001F0C9FA08218B
:104560002046FCF78BFC0028F6D003A001F060F891
:10457000E9E70000002402585072657373204B6510
:1045800079320D0A000000000B4C10212046FCF788
:1045900075FC30B1142001F0ABFAF6E70A2001F007
:1045A000A7FA10212046FCF769FC0028F6D003A0EA
:1045B00001F03EF8E9E700000024025850726573EC
:1045C00073204B6579330D0A00000000C82001F00C
:1045D0008FFAFBE70A4D4FF4006440F2262621468D
:1045E00001222846FCF757FC304601F081FA0022F0
:1045F00021462846FCF74FFC322001F079FAEEE71D
:10460000000C02580C4E4FF400440C4D307870B141
:10461000012221462846FCF73EFC502001F068FAB2
:10462000002221462846FCF736FC502000E0C82036
:1046300001F05EFAEAE700000400002400040258DA
:1046400070B50CA000F0F4FF10480F4D04680BE0AB
:10465000206802220EA1FBF7E3FF20B1D4E900128B
:104660000CA000F0E5FF0C3428688442F0D3002051
:1046700070BD00002D2D46756E6374696F6E204C01
:104680006973743A0A000000280000242400002402
:104690005F5F0000252D313673202D2D2025730AF4
:1046A000000000002DE9F0411E46174604460D4665
:1046B000084601F043F80021001D20602572676064
:1046C000C4E90361BDE8F0812DE9F0410D46CA68F7
:1046D0000021296192B1297A81B12E6888B10446FE
:1046E000FBF74AFE01462A7AA4F11400007C20F070
:1046F0008000904209D00846FBF742FE0020BDE84A
:10470000F0813446FBF738FE0146686800272468CC
:10471000B44201D1002404E010C0EA687F1CBA4210
:10472000F5D10846FBF72CFE20462F61E7E7000095
:104730002DE9F04196B00026082305212DA40CAAEE
:1047400005A8FFF7AFFF10202246804601462BA0A8
:1047500000F06EFF404600F0BBFC31A000F068FFA7
:1047600005A93046FFF7B0FF0025064639E00CA842
:1047700050F82540143CFBF7FFFD217C9DF81C20E0
:1047800021F08001914202D0FBF7FAFD28E0FBF70F
:10479000F7FDE06904F11C07B842384613D000F079
:1047A00065FF218D2346628D029024A0CDE9002172
:1047B0001022414600F03CFF384601F0E5FC25A000
:1047C00000F036FF0CE000F051FF218D2346628D92
:1047D000029021A0CDE900211022414600F028FFDF
:1047E0006D1C0998A842C2DC002EB9D116B0002079
:1047F000BDE8F0816D61696C626F7800252D2A2E0D
:104800007320656E7472792073697A65207375738D
:1048100070656E64207468726561640A000000004F
:10482000202D2D2D2D20202D2D2D2D202D2D2D2DEC
:104830002D2D2D2D2D2D2D2D2D2D0A00252D2A2E02
:104840002A732025303464202025303464202564E8
:104850003A0000000A000000252D2A2E2A73202588
:104860003034642020253034642025640A000000A0
:104870002DE9F04194B00026082302212BA40BAAB5
:1048800004A8FFF70FFF10202246804601462AA009
:1048900000F0CEFE404600F01BFC2EA000F0C8FE4B
:1048A00004A93046FFF710FF0025064635E00BA8A7
:1048B00050F82540143CFBF75FFD227C9DF8181052
:1048C00022F080028A4202D0FBF75AFD24E0FBF777
:1048D00057FDE06904F11C07B842384611D000F0DA
:1048E000C5FEA18C1022CDE9001020A02346414630
:1048F00000F09EFE384601F047FC15A000F098FE3F
:104900000AE000F0B3FEA18C1022CDE900101BA03C
:104910002346414600F08CFE6D1C0898A842C6DC78
:10492000002EBDD114B00020BDE8F08173656D612B
:1049300070686F7265000000252D2A2E7320762086
:10494000202073757370656E64207468726561648D
:104950000A000000202D2D2D202D2D2D2D2D2D2D4B
:104960002D2D2D2D2D2D2D0A00000000252D2A2E58
:104970002A7320253033642025643A00252D2A2E01
:104980002A7320253033642025640A002DE9F04184
:10499000B8B00026082301213CA42FAA29A8FFF7BC
:1049A00081FE10202246804601463A4800F040FE33
:1049B000404600F08DFB38A000F03AFE29A93046B1
:1049C000FFF782FE0025064657E02FA850F8254045
:1049D000143CFBF7D1FC217C07469DF8AC0021F08C
:1049E0008001814203D03846FBF7CAFC44E08822AC
:1049F000214605A8FBF76BFE3846FBF7C1FC94F88F
:104A00003D00102223464146009033A000F010FEE6
:104A100094F83C0000F00F00012807D0022807D0CE
:104A200040B1042808D0032808D00AE02DA006E0F1
:104A30002FA004E031A002E033A000E035A000F098
:104A4000F7FD206B014600E0401C0278232AFBD0D2
:104A5000D4E90D27401A4FF0640C101AA36C00FB28
:104A60000CF0CDE90037B0FBF2F0636AC91A1144CB
:104A700003462BA000F0DCFD6D1C2D98A842A4DCA1
:104A8000002E9BD138B00020BDE8F08174687265BB
:104A9000616400002C640008202D2D2D20202D2D78
:104AA0002D2D2D2D2D202D2D2D2D2D2D2D2D2D2D43
:104AB000202D2D2D2D2D2D2D2D2D2D20202D2D2D4D
:104AC0002D2D2D20202D2D2D2D2D2D2D2D2D2D203D
:104AD0002D2D2D0A00000000252D2A2E2A732025B9
:104AE000336420002072656164792020000000009A
:104AF0002073757370656E640000000020696E6934
:104B0000742020200000000020636C6F736520205B
:104B1000000000002072756E6E696E670000000074
:104B200020307825303878203078253038782020AB
:104B3000202025303264252520202030782530386B
:104B40007820253033640A00F0B593B0002608239E
:104B50000A2125A40BAA04A8FFF7A4FD10272246CA
:104B600023A0394600F064FD384600F0B1FA2AA0CF
:104B700000F05EFD04A93046FFF7A6FD00250646BD
:104B800024E00BA850F82540143CFBF7F5FB227CF1
:104B90009DF8181022F080028A4202D0FBF7F0FB49
:104BA00013E0FBF7EDFBD4E90B0110222346CDE91E
:104BB000000122A0394600F03BFD607CC00701D017
:104BC00024A000E026A000F033FD6D1C0898A84248
:104BD000D7DC002ECED101F067F8014624A000F00A
:104BE00027FD13B00020F0BD74696D6572000000F0
:104BF000252D2A2E732020706572696F64696320E9
:104C0000202074696D656F7574202020202020207D
:104C1000666C61670A000000202D2D2D2D2D2D2D95
:104C20002D2D2D202D2D2D2D2D2D2D2D2D2D202DCE
:104C30002D2D2D2D2D2D2D2D2D2D0A00252D2A2EFE
:104C40002A7320307825303878203078253038782D
:104C5000200000006163746976617465640A000075
:104C600064656163746976617465640A00000000BC
:104C700063757272656E74207469636B3A3078255F
:104C80003038780A00000000FEF7BAF8FEF758F84E
:104C9000FEF74AFAFEF71CFAFEF774FAFCF70CF975
:104CA000012226489102FCF7F6F8642000F020FF6C
:104CB000FFF7F2F8642000F01BFFFFF775FBDFF849
:104CC00080804FF480571F4E1F4D0A2000F010FFC8
:104CD0000022394644464046FCF7DDF80A2000F041
:104CE00007FF012239462046FCF7D5F83078112815
:104CF000EBD11648002131700168491C016014A0F5
:104D000000F096FC5FF0000415A0214635F8142051
:104D100000F08EFC641CE4B2072CF5D95FF00004AF
:104D200014A0214635F8142000F082FC641CE4B283
:104D3000072CF5D914A000F07BFCC6E7001402583C
:104D40000020025805000024E40F00240000002485
:104D500041445F636F756E743D25640D0A00000069
:104D600041445F415F6461745B25645D3A3078253E
:104D7000780D0A0041445F425F6461745B25645DA5
:104D80003A307825780D0A000D0A000010B500F0C1
:104D900071FABDE81040FFF777BF000018A010B50A
:104DA00000F046FC1B4C21781BA000F041FC207851
:104DB000C00702D01EA000F03BFC2078800702D57F
:104DC0001EA000F035FC2078000702D51EA000F0E0
:104DD0002FFC2078C00602D51EA000F029FC207808
:104DE000000607D50B480C3001681DA0BDE8104037
:104DF00000F01EBCBDE810401D4800F019BC0000CA
:104E00006D656D206D616E616765206661756C749E
:104E10003A0A000028ED00E05343425F43465352F4
:104E20005F4D4653523A307825303258200000000A
:104E30004941434356494F4C2000000044414343FD
:104E400056494F4C200000004D554E53544B45528F
:104E5000522000004D53544B455252200000000098
:104E60005343422D3E4D4D41523A253038580A00A9
:104E70005C6200082DE9F0470025804600782C464A
:104E800018B12248224F066831E0BDE8F047002102
:104E9000084600F077B8306806221EA1FBF7C0FB79
:104EA00020BB306800F106094046FBF79AFB02463A
:104EB00049464046FBF7B4FBC0B925B94C464846C5
:104EC000FBF78FFB05464946204601E0401C491C84
:104ED00002781AB10B780BB19A42F7D0001BA842A6
:104EE00000DA054649460DA000F0A2FB0C363868F2
:104EF0008642D0D3002C06D02A4621464046BDE843
:104F0000F04700F047BDBDE8F08700002400002412
:104F1000280000245F5F636D645F000025730A0052
:104F200038B5044601E0491E641C59B12078202898
:104F3000F9D00928F7D06A462046FEF713FF18B1CA
:104F4000204604E0002038BD009838BD401C0178A0
:104F5000202901D00029F9D10021017003A02146A8
:104F600000F066FB4FF0FF3038BD000025733A209B
:104F7000636F6D6D616E64206E6F7420666F756E09
:104F8000642E0A0070B50EA000F052FB1448134DB9
:104F900004680CE02068062212A1FBF741FB28B947
:104FA000D4E9001211A0891D00F042FB0C342868DE
:104FB0008442EFD310A000F03BFB002070BD000046
:104FC00052542D546872656164207368656C6C205E
:104FD000636F6D6D616E64733A0A000028000024EF
:104FE000240000245F5F636D645F0000252D31366F
:104FF00073202D2025730A000A000000012070474D
:1050000070B515460022134614464BE05B1C00F8B1
:10501000012B0678202E01D0092E01D18B42F5D329
:10502000082C11D321A000F003FB002606E000BFEE
:1050300055F8261025A000F0FBFA761CA642F7D3FF
:1050400021A000F0F5FA2FE08B422DD2F6B2222EED
:1050500003D045F82400641C1BE0401C5B1C45F891
:105060002400641C08E05C2E04D14678222E01D175
:10507000401C5B1C401C5B1C0678222E01D08B421E
:10508000F1D38B4210D25B1C00F8012B0AE0401CCC
:105090005B1C0678202E03D0092E01D08B42F6D35C
:1050A0008B4201D28B42B4D3204670BD546F6F2027
:1050B0006D616E7920617267732021205765206FC2
:1050C0006E6C79205573653A0A0000002573200044
:1050D00010B5044602E003A000F0AAFA641EFAD25A
:1050E00010BD00002D0000002DE9F04F85B09A465C
:1050F000109CDDE90EB56606AE4601D5464B01E0D3
:10510000454B113BE606994601D524F00104E3071F
:1051100001D0302300E020234FF00006A7070493BE
:105120000BD5002A02DA52422D2606E0630701D58C
:105130002B2602E0230700D520264FF00003D2B132
:105140005FF00A07BAF10A0F1AD002F00F0C120929
:10515000002A19F80C800DF8038003F10103F1D146
:10516000AB4200DD1D464FF0200714F0110FABEBF2
:1051700005020DD01AE030228DF800200123EFE760
:10518000B2FBF7F89446B2FBF7F207FB18CCDFE767
:105190003EB1002A05DD521E03E0884200D20770AE
:1051A000401CB2F1000CA2F10102F6DC26B18842EB
:1051B00000D20670401C521EE40605D508E0884265
:1051C00001D2049C0470401C141EA2F10102F6DC02
:1051D00030249D42A5F101050ADD884200D2047009
:1051E000401CF6E7884201D2E55C0570401C00E0F7
:1051F0006C461D1EA3F1010307DDBEF1000FF1D1C6
:1052000003E0884200D20770401C131EA2F1010285
:10521000F7DC05B0BDE8F08F196400081FB50A4C33
:1052200014230A22A4F500704FF400718DE80F00DA
:10523000064A002306A1204600F042FC04B02046A6
:10524000BDE8104000F0A0BC101E00248D4D0008E9
:105250006D61696E0000000070B5044C044D02E001
:1052600020688047241DAC42FAD370BD64660008F4
:105270006C66000870B5044C044D02E0206880475D
:10528000241DAC42FAD370BD6C6600087466000839
:1052900010B5FBF771F8044A5188491C5180BDE8EC
:1052A0001040FBF76DB800009400002410B5FBF728
:1052B00063F80B4C6188491E09B2618000290ADC41
:1052C00000216180FBF75CF86068002807D0BDE82A
:1052D000104000F075BABDE81040FBF751B810BDA2
:1052E0009400002470B5FBF763FFFEF707F9FEF7A3
:1052F000A9F80C494FF47A700968B1FBF0F0401E30
:10530000B0F1807F09D2084B4FF0E021FF2200244A
:10531000486107251A700D618C61BDE87040FFF788
:105320009BBF00001C00002423ED00E00B4810B5DB
:105330004FF0FF340068C169C943890602D4406A4E
:10534000C4B208E0C169C943090701D40821016258
:105350000A2000F0CDFBE0B210BD00007011002467
:10536000F8B50D21064600208DF8001004460D49C1
:1053700081F88000304600F005FB05460FE0305D07
:105380000A2805D1012307481A466946FDF778FC2B
:105390000123044831191A46FDF772FC641CAC4223
:1053A000EDD3F8BD7011002470B5054630482C1DB2
:1053B000016805F1280011B18847002857D0216CF9
:1053C0002CA000F035F9616A2EA000F031F9A16A35
:1053D00030A000F02DF9E16A32A000F029F9216B2C
:1053E00034A000F025F9616836A000F021F9A16829
:1053F00038A000F01DF9E1683AA000F019F9216920
:105400003CA000F015F961693EA000F011F9A16916
:1054100040A000F00DF9E16942A000F009F9216A0D
:1054200044A000F005F9616B46A000F001F9A16B02
:1054300048A000F0FDF8E16B4AA000F0F9F82878E8
:10544000400708D500F07AFB01464AA000F0F0F8CA
:10545000FFF79CFA02E04FA000F0EAF82878C006B7
:1054600002D453A000F0E4F8FEF762FFFEE770BD3F
:10547000400000247073723A203078253038780A62
:10548000000000007230303A203078253038780A39
:10549000000000007230313A203078253038780A28
:1054A000000000007230323A203078253038780A17
:1054B000000000007230333A203078253038780A06
:1054C000000000007230343A203078253038780AF5
:1054D000000000007230353A203078253038780AE4
:1054E000000000007230363A203078253038780AD3
:1054F000000000007230373A203078253038780AC2
:10550000000000007230383A203078253038780AB0
:10551000000000007230393A203078253038780A9F
:10552000000000007231303A203078253038780A97
:10553000000000007231313A203078253038780A86
:10554000000000007231323A203078253038780A75
:1055500000000000206C723A203078253038780A3C
:10556000000000002070633A203078253038780A37
:105570000000000068617264206661756C74206FC1
:105580006E207468726561643A2025730D0A0D0AF5
:105590000000000068617264206661756C74206FA1
:1055A0006E2068616E646C65720D0A0D0A00000061
:1055B00046505520616374697665210D0A0000002C
:1055C00070B5121D0B4E0024054622F0070044382A
:1055D00040F82460641C112CFAD3002283634FF03E
:1055E0008073C0E90912C262026342630260C0E9CB
:1055F0000F5370BDEFBEADDE10B5FAF7BDFE044A25
:105600001178491C1170BDE81040FAF7B9BE0000CE
:105610005000002410B5FAF7AFFE044A1178491E75
:105620001170BDE81040FAF7ABBE00005000002436
:105630000FB40648FF2110B503AB029A00F040FCFE
:105640000248FFF78DFE10BC5DF814FBA01F00247C
:105650000268516002680A60016048607047026831
:10566000516002680A60016048607047002102468C
:1056700000E0491C00689042FBD108467047D0E921
:1056800000124A60D0E9001211604060006070476B
:10569000D0E900124A60D0E9001211604060006059
:1056A000704700000346994210B511D28C189C42F5
:1056B0000ED9811804E000BF14F8013D01F8013D46
:1056C000521EF9D210BD00BF11F8014B03F8014B77
:1056D000521EF9D210BD10B5042A0346CCB218D31D
:1056E000810716D144EA0423014643EA034305E057
:1056F0000B604B608B60CB601031103A102AF7D2F0
:1057000001E0121F08C1042AFBD20B4601E003F896
:10571000014B521EFBD210BD10B504460020207470
:10572000FAF72AFED4E905124A60F4E9051211607D
:1057300064602460BDE81040FAF722BE074A0021E9
:1057400002EB01131B78834202D102EB0110704778
:10575000491C0429F4DB0020704700005400002499
:105760002DE9F041174605460E460846FFF7E6FFCD
:105770000446FFF78DFD6168201D00E00968814245
:10578000FCD1FFF793FD46F08000394610222874C3
:10579000284600F0FFF8FAF7EFFD616814354D6018
:1057A0006168296044F8045F6C60BDE8F041FAF775
:1057B000E7BD007C000601D501207047002070473E
:1057C00070B5FAF7D9FD114C05466088B0B9A068EC
:1057D000FEF7A6FA0E49401E626851F830101C39D7
:1057E00091420BD020700B486160007801F12401D8
:1057F000002802F1240006D0FAF7C5FD2846BDE8CE
:105800007040FAF7BDBDFAF7BEFDF7E7940000243B
:10581000A02000245000002410B50446FAF7ACFD87
:10582000024694F83C000E4B20F00F00401C84F818
:105830003C0094F83D1004F11C0003EBC1014B68DF
:1058400018604B68236248600648E161216C8368F8
:1058500019438160BDE810401046FAF791BD000081
:10586000A02000249400002410B50446FAF784FD1B
:1058700004F11C01D1E900235360D1E900231A602F
:105880002162E161084994F83D2051F8323001EB82
:10589000C2018B4204D10549236C8A689A438A600D
:1058A000BDE81040FAF76CBDA0200024940000244D
:1058B0002DE9F04116461F4605460A460221FFF72C
:1058C0004FFF05F11C042C62EC610020AE846F7464
:1058D000BDE8F08109A008B5FFF7AAFE0AA0FFF70E
:1058E000A7FE12A0009005230122032112A0FFF7BA
:1058F0009FFEBDE8084018A0FFF79ABE0A205C2072
:105900007C202F0A000000002D205254202D202042
:10591000202020546872656164204F706572617444
:10592000696E672053797374656D0A004A756E203D
:105930003237203230323200202F207C205C202071
:1059400020202025642E25642E2564206275696C34
:10595000642025730A0000002032303036202D20CC
:105960003230323020436F70797269676874206218
:10597000792072742D746872656164207465616D3C
:105980000A000000014600E0491C0A78002AFBD109
:10599000081A7047002A10B507D0034611F8014BCA
:1059A00003F8014B2CB1521EF8D110BD03F8011BB6
:1059B00000E00021521EF9D110BD00000A49002369
:1059C00010B50A4C18464B8004EBC002401C20283E
:1059D00052601260F8DB1F20087003484B600C30E7
:1059E0008B604060006010BD94000024A020002463
:1059F00010B5074CA068FEF793F90649401E51F810
:105A000030001C386060BDE810402430FAF701BD5A
:105A100094000024A02000240148406000607047EA
:105A2000AC00002470470000144870B50468FAF711
:105A3000A3FC05462046FEF720FA2046FFF714FF98
:105A4000042084F83C0004F14C0000F0B3F9204637
:105A5000FFF7AFFE01280CD0094804F11C01FFF745
:105A6000F7FD00BFFFF7ACFE2846BDE87040FAF72F
:105A700087BC2046FFF750FEF4E7000098000024A2
:105A8000A0000024FEE700001FB5094820231F22C4
:105A900080218DE80F00074A0023883806A100F016
:105AA0000FF804B002488838BDE8104000F06CB828
:105AB000201F0024855A00087469646C650000008A
:105AC0002DE9FF5F924699460EAA0C46834692E85E
:105AD000E0010A460121FFF743FE8DE8E0014B4655
