:020000040800F2
:10000000502A0024B1020008DF480008093D00081A
:10001000DD480008AD090008F15C000800000000A0
:10002000000000000000000000000000B74C0008C5
:10003000AF09000800000000E1480008054E000874
:10004000CB020008CB020008CB020008CB0200085C
:10005000CB020008CB020008CB020008CB0200084C
:10006000CB020008CB020008B9090008CB02000847
:10007000CB020008CB020008CB020008CB0200082C
:10008000CB020008CB020008CB020008CB0200081C
:10009000CB020008CB020008CB020008CB0200080C
:1000A000CB020008CB020008CB020008CB020008FC
:1000B000CB020008CB020008CB020008CB020008EC
:1000C000CB020008CB020008CB020008CB020008DC
:1000D000CB020008CB020008CB020008CB020008CC
:1000E000B1090008CB02000800000000CB020008A4
:1000F000CB020008CB020008CB020008CB020008AC
:10010000CB020008CB020008CB020008CB0200089B
:10011000CB020008CB020008CB020008CB0200088B
:10012000CB020008CB020008CB020008CB0200087B
:10013000CB020008CB020008CB020008CB0200086B
:1001400000000000000000000000000000000000AF
:10015000CB020008CB020008CB020008CB0200084B
:10016000CB020008CB020008CB020008CB0200083B
:10017000CB020008CB020008CB0200080000000000
:10018000CB020008CB020008CB0200089D4F0008FC
:10019000CB020008CB020008CB020008CB0200080B
:1001A000CB020008CB020008CB020008CB020008FB
:1001B000CB020008CB020008CB020008CB020008EB
:1001C000CB020008CB020008CB020008CB020008DB
:1001D000CB020008CB020008CB020008CB020008CB
:1001E000CB020008CB020008CB020008CB020008BB
:1001F000CB020008CB020008CB020008CB020008AB
:10020000CB020008CB020008CB020008CB0200089A
:10021000CB020008CB020008CB020008CB0200088A
:10022000CB020008CB020008CB020008000000004F
:10023000CB020008CB02000800000000CB0200083F
:10024000CB020008CB020008CB020008CB0200085A
:10025000CB020008CB020008CB020008CB0200084A
:10026000CB020008CB020008CB020008CB0200083A
:10027000CB020008CB020008CB02000800000000FF
:10028000CB020008CB020008CB02000800000000EF
:1002900000000000CB020008DFF810D000F05CFA8C
:1002A00000480047956B0008AFF30080502A0024F7
:1002B0000648804706480047FEE7FEE7FEE7FEE700
:1002C000FEE7FEE7FEE7FEE7FEE7FEE7C14E0008B9
:1002D000990200082DE9F05F0546002092469B46F2
:1002E00088460646814640241BE02846414647464C
:1002F000224600F069F853465A46C01A914110D37D
:1003000011461846224600F050F82D1A67EB0108F6
:100310004F4622460120002100F047F817EB000964
:100320004E41201EA4F10104DFDC484631462A4636
:100330004346BDE8F09F40EA01039B0703D009E074
:1003400008C9121F08C0042AFAD203E011F8013BC1
:1003500000F8013B521EF9D27047D2B201E000F81A
:10036000012B491EFBD270470022F6E710B5134659
:100370000A4604461946FFF7F0FF204610BD30B587
:100380000B46014600202022012409E021FA02F553
:100390009D4205D303FA02F5491B04FA02F52844ED
:1003A000151EA2F10102F1DC30BD202A04DB203A47
:1003B00000FA02F1002070479140C2F1200320FAB8
:1003C00003F3194390407047202A04DB203A21FAB6
:1003D00002F00021704721FA02F3D040C2F120025E
:1003E00091400843194670472DE9FE4F804681EA47
:1003F0000300C00F0C46009021F0004123F000459F
:10040000B8EB0200A94105D24046214690461C4661
:100410000B46024623F00040104347D0270DC7F398
:100420000A00C3F30A510290401A019040286BDA87
:10043000C3F3130040F4801B0098924620B10023C0
:10044000D2EB030A63EB0B0B01985946C0F1400253
:100450005046FFF7AAFF06460D4650465946019AF8
:1004600000F08CF910EB08006141002487EA11527A
:1004700084EAE7731A4340D0009A62B3019A012AD2
:100480004FEA075215DC001B61EB02014FF00042FE
:1004900002EA0752CDE90042001C41F580113246C4
:1004A0002B4600F08CF903B0BDE8F08F40462146A2
:1004B000F9E7001B61EB0201001C41F580130018F5
:1004C0005B412018A2F5001747EB030140EAD57005
:1004D000B6196D4111E06D084FEA360645EAC07560
:1004E0004FEA0752001B61EB0201001C41F580112D
:1004F00049084FEA30000019514132462B4603B0FB
:10050000BDE8F04F00F04CB90098012240000023F4
:10051000D0EB020263EBE073009821464FEAE074EF
:10052000B8EB000061EB0401E9E783F000435BE70F
:1005300081F0004158E72DE9FE4F81EA030404F001
:10054000004421F0004100944FF0000B23F00043E1
:1005500050EA01045ED052EA03045BD0C3F30A54AC
:10056000C1F30A552C44A4F2F3340194A0FB0254C5
:10057000C1F3130141F48011C3F3130343F4801357
:1005800001FB024400FB034E840A970A44EA8154AB
:1005900047EA8357A4FB076802958D0A05FB078588
:1005A0004FEA932C04FB0C542705029D4FEA065892
:1005B00047EA1637B5EB08056EEB070C870E920E6F
:1005C00047EA811742EA8312A7FB0201B6EB0B014F
:1005D00064EB00042B0D43EA0C335E1844EB1C5013
:1005E000DA465146E7FB0201C5F313044FEA0B3329
:1005F00043EA14534FEA0432019C43EA0603A4F190
:100600000C040294009CCDE900B400F0D8F803B0CB
:10061000BDE8F08F00200146F9E72DE9F04D81EAB1
:10062000030404F0004B21F0004514464FF0000A8B
:1006300023F0004150EA050220D054EA01021DD007
:10064000C5F30A570246C5F31303C1F31300C1F300
:100650000A5640F4801543F48013A7EB0608101BDC
:10066000D64608F2FD3873EB050002D308F1010805
:1006700001E092185B41B8F1000F03DA0020014657
:10068000BDE8F08D00204FF48011064684460EE050
:10069000171B73EB050705D3121B63EB050306431A
:1006A0004CEA010C49084FEA300092185B4150EACD
:1006B0000107EDD152EA030012D082EA040083EA76
:1006C0000501084305D0101BAB4106D201220023CF
:1006D00006E000224FF0004302E06FF001025310E9
:1006E0001AEB06004CEB085110EB0A0041EB0B0132
:1006F000BDE8F04D00F054B8C1F30A52C1F3130144
:1007000040F2FF3341F480119A4202DA00200146A0
:10071000704740F233439A42A2F2334202DC524223
:10072000FFF752BEFFF741BE30B5041E71F1000461
:1007300004DB4FF00044404264EB0101141E73F1EE
:10074000000405DB1C464FF00043524263EB0403F8
:10075000994208BF904230BD064C074D06E0E06864
:1007600040F0010394E8070098471034AC42F6D3F8
:10077000FFF796FD6074000880740008202A06DBED
:10078000CB17203A41FA02F043EAE07306E041FA5F
:1007900002F3D040C2F1200291400843194670474D
:1007A00010B5141E73F1000408DA401C41F1000179
:1007B00092185B411A4301D120F0010010BD2DE9D0
:1007C000F04D92469B4611B1B1FA81F202E0B0FAC7
:1007D00080F220329046FFF7E8FD04460F4640EADB
:1007E0000A0041EA0B0153465A46084313D011460A
:1007F00053EA010019D0C8F140025046FFF7E4FD6A
:1008000005460E46504659464246FFF7CEFD084380
:1008100005D0012004E020463946BDE8F08D0020D7
:10082000054346EAE0762C4337430A986305E40A19
:10083000A0EB08000022FD0A44EA47540A3002D522
:1008400000200146E9E7010510196941DDE9084585
:1008500000196941BDE8F04DA2E700001D4B1E4A9A
:1008600030B41E481E495C78158800EB44100580A2
:1008700015884580158885801588C580158805816F
:1008800015884581158885811288C2810A8802826F
:100890000A8842820A88641C8282E2B20C883C2A5E
:1008A000C4820C8804830C8844830C888483098860
:1008B000C1835A700BD30020587001211970074969
:1008C0004FF4F06230BC01F28470FFF734BD30BCED
:1008D0007047000001000024003000604E08002432
:1008E0000030006410B5104C00224021204600F07A
:1008F000B3FD01222046402100F0AEFD012220463A
:10090000402100F0A9FD01222046402100F0A4FD75
:1009100001222046402100F09FFD00222046BDE834
:100920001040402100F098BD0010025870B54FF4FF
:1009300000711C4C1C4E024619484D10072A2DD23E
:10094000DFE802F02C0406081222270000221CE037
:1009500000221FE0002200F07FFD01222046082136
:1009600000F07AFD012209E05FF0010200F074FD61
:1009700000222046082100F06FFD00222946304663
:10098000BDE8704000F068BD012200F065FD002266
:10099000E4E7012200F060FD0122EAE70022E5E73A
:1009A000000402580010025800200258FEE7704769
:1009B0004FF4806000F026BC102000F023BC72B61B
:1009C000FEE70000F0B5B3F5804F05D06FF0704141
:1009D00040F822100020F0BD91E838008F898E6920
:1009E00050F8221024013343054E44EA05242343E2
:1009F000314043EA07430B4340F82230EAE7000066
:100A00000000F0CFF0B50A6850F8223023F001035F
:100A100040F822308C68082C2CD000264A68D1E996
:100A200003CE22434CEA060C01F1140342EA0C0205
:100A300042EA0E0293E8F8501A4322430C682A4314
:100A4000D1E90C35324350F824603A4342EA0C02B3
:100A5000DFF840C042EA0E028F6B13431D432F4361
:100A600026EA0C063E4340F824600A6BB2F5801F6C
:100A700002D007E04026D1E70A684AB1026842F492
:100A8000801202600A681AB10268496B0A43026068
:100A90000020F0BD7FFB3F00F0B58C6800EB8202C8
:100AA000D1E90036B1F80CE04FEA042C134C0D8A62
:100AB00043EA06130E7D67014CEA0E4C43EA0C0331
:100AC00004EB05552B438D6907EB066657683343E6
:100AD0002B4307F040452B4353600268D2020BD5ED
:100AE000098A4268436804EB015122F47002114301
:100AF00023F470030B4343600020F0BD0000F0FFBF
:100B00002DE9F84F044600F0B3FC00903CB194F896
:100B10003500022806D0802161650020E4E0012034
:100B2000BDE8F88FC74DC74EC64918352068303626
:100B3000DFF81483DFF814938842DFF814A3DFF89A
:100B400014B32ED0A8422CD0B0422AD0404528D091
:100B5000484526D0504524D0584522D0BD4A1832A9
:100B600090421ED0BC4A90421BD0BB4A18329042E1
:100B700017D0B94A3032904213D0B74A4832904227
:100B80000FD0B54A603290420BD0B34A78329042CF
:100B900007D0B14A9032904203D0AF4AA832904277
:100BA00009D1026822F01E0202602068426922F028
:100BB0008002426103E0026822F00E0202602768B0
:100BC0008F4238464DD0A8424BD0B04249D0404524
:100BD00047D0484545D0504543D0584541D09D4A1F
:100BE000183290423DD09C4A90423AD09A4A1832EC
:100BF000904236D0984A3032904232D0964A4832AB
:100C000090422ED0944A603290422AD0924A783252
:100C1000904226D0904A9032904222D08E4AA832FA
:100C200090421ED08D4A90421BD08C4A1432904282
:100C300017D08A4A2832904213D0884A3C329042D8
:100C40000FD0864A503290420BD0844A6432904290
:100C500007D0824A7832904203D0804A8C32974241
:100C600004D1206E026822F4807202607549206807
:100C7000884228D0A84226D0B04224D0404522D075
:100C8000484520D050451ED058451CD071491831D8
:100C9000884218D07049884215D06F49183188426F
:100CA00011D06D49303188420DD06B4948318842AE
:100CB00009D069496031884205D067497831884256
:100CC00001D065499031016821F0010101600EE019
:100CD00000F0CEFB0099401A052808D92022626551
:100CE0000321002084F8351084F8340017E73868B1
:100CF000C007EDD1534A0121206890422ED0A8426E
:100D00002CD0B0422AD0404528D0484526D0504566
:100D100024D0584522D04F4B183398421ED04E4B0A
:100D200098421BD04C4B1833984217D04A4B303363
:100D3000984213D0484B483398420FD0464B60330B
:100D400098420BD0444B7833984207D0424B9033B3
:100D5000984203D0404BA833984208D194F85C7075
:100D60003F23A06D07F01F07BB40836007E094F8A6
:100D70005C30A06D03F01F0301FA03F343602068A9
:100D800090424DD0A8424BD0B04249D0404547D0C8
:100D9000484545D0504543D0584541D02D4A18329A
:100DA00090423DD02C4A90423AD02B4A1832904281
:100DB00036D0294A3032904232D0274A48329042C7
:100DC0002ED0254A603290422AD0234A783290426F
:100DD00026D0214A9032904222D01F4AA832904217
:100DE0001ED01E4A90421BD01C4A1432904217D08B
:100DF0001A4A2832904213D0184A3C3290420FD0FF
:100E0000164A503290420BD0144A6432904207D0B6
:100E1000124A7832904203D0104A8C3290420BD161
:100E2000D4E919024260E06E30B1026822F48072A7
:100E30000260D4E91C024260002084F8351084F876
:100E400034006DE61000024058000240700002407D
:100E500088000240A00002401004024008540258DA
:100E60002DE9F05F28B190F83510022904D08021D7
:100E700041650120BDE8F09F904C904B0168183C03
:100E800018338E4ADFF83C92A1428D4CDFF838E2ED
:100E90008E4FDFF83CB2DFF83CA28F4D8F4E31D041
:100EA00091422FD099422DD0A1422BD0494529D033
:100EB000714527D0B94225D0DFF810C20CF1180CCB
:100EC00061451FD0DFF808C2ACF1600C614519D054
:100ED000DFF8FCC1ACF1480C614513D0DFF8F0C17C
:100EE000ACF1300C61450DD0DFF8E4C1ACF1180C69
:100EF000614507D0594505D0514503D0A94201D0DD
:100F0000B1422CD1DFF8B4C14FF0040880F835802D
:100F1000ACF1180C61451DD091421BD0994219D0FB
:100F2000A14217D0494515D0714513D0B94211D00F
:100F30006648183081420DD065486038814209D03A
:100F400063484838814205D061483038814201D039
:100F50005F481838086820F001000860ABE0D1F85D
:100F600000C02CF00E08DFF854C1C1F80080ACF1CD
:100F7000180C0168614527D0914225D0994223D0B1
:100F8000A14221D049451FD071451DD0B9421BD087
:100F9000DFF838C10CF1180C614515D0DFF830C10D
:100FA000ACF1600C61450FD0DFF824C1ACF1480C06
:100FB000614509D0DFF818C1ACF1300C614503D0B0
:100FC000DFF80CC1ACF1180CD1F800C02CF0010C0A
:100FD000C1F800C0DFF8E4804FF0010C0168A8F10F
:100FE0001808414546D0914244D0994242D0A1428E
:100FF00040D049453ED071453CD0B9423AD0334A01
:101000001832914236D0324A603A914232D0304A58
:10101000483A91422ED02E4A303A91422AD02C4A58
:10102000183A914226D0594524D0514522D0A942A0
:1010300020D0B1421ED02A4A91421BD0284A1432F5
:10104000914217D0264A2832914213D0244A3C328A
:1010500091420FD0224A503291420BD0204A643242
:10106000914207D01E4A7832914203D01C4A8C32FA
:10107000914218D1016E0A6822F480720A6090F8D9
:101080005C20816D02F01F020CFA02F24A60D0E986
:1010900019124A60C16E31B10A6822F480720A6086
:1010A000D0E91C124A600022016D80F835C080F83A
:1010B000342001B188470020DCE60000280002400F
:1010C000580002407000024088000240A000024028
:1010D0007004024088040240A0040240B8040240A8
:1010E0000854025870B5044600F0C2F90546601C69
:1010F00002D004480078044400F0BAF9401BA04232
:10110000FAD370BD280000242DE9F041B6B01421B7
:101110002FA8FFF729F92D480168002952D14FF077
:101120000108C0F80080BC216846FFF71DF94FF0A8
:101130008070009000246846119400F09DFE08B174
:10114000FFF73DFC2248016841F4805101600068CE
:10115000022531AA00F4805034902802CDE92F05F1
:1011600003261C480C2782E8D0002FA900F056F86F
:1011700031AA4CF23370CDE92F0517482FA982E828
:10118000D00000F04BF831AA4FF68370CDE92F055F
:1011900012482FA982E8D00000F040F809213194CC
:1011A0008020CDE93261CDE92F050D482FA900F04F
:1011B00035F831AA0B482FA982E8D000CDE92F8558
:1011C00000F02CF836B0BDE8F081000004000024E7
:1011D000D444025800180258000C0258001002585B
:1011E0000008025800140258102806D0B0F5806F8D
:1011F00005D10348802100F027B9FFF72FBB7047C6
:10120000001C02584FF0B04110B5D1F888200242BE
:1012100003D0C1F88800FFF7E7FF10BD2DE9F84FB4
:1012200003247D4D00234FF001094FF0B04B4FF0E8
:101230000F0AE9E009FA03F73A4076D00E7906F092
:101240000306012E01D0022E18D1D0F808C04FEAB3
:10125000430ECE6804FA0EF82CEA080C06FA0EF6D5
:1012600046EA0C068660D0F804C00E792CEA070C1A
:10127000C6F300169E4046EA0C0646600E79F64319
:10128000B6070BD0C6684FEA43088F6804FA08FC1B
:1012900026EA0C0607FA08F73743C7600E7906F00E
:1012A0000306022E12D1DE080F694FEA437C00EBE1
:1012B0008606B646366A4FEADC6C0AFA0CF807FA7C
:1012C0000CF726EA08063743CEF820700F79066837
:1012D0004FEA430807F0030704FA08FC07FA08F787
:1012E00026EA0C06374307604E6816F4403F1CD0D0
:1012F0004A4E376847F00207376036689F0706F0A6
:101300000206009623F0030606F1B046B6463F0FEC
:10131000D6F80864DFF808810AFA07FC404526EA97
:101320000C0603D14FF0000C41E06CE0DFF8F4C094
:10133000604502D14FF0010C39E0DFF8ECC06045A8
:1013400002D14FF0020C32E0DFF8E0C0604502D17C
:101350004FF0030C2BE0DFF8D8C0604502D14FF00E
:10136000040C24E0DFF8CCC0604502D14FF0050C3E
:101370001DE0DFF8C4C0604502D14FF0060C16E056
:10138000DFF8B8C0604502D14FF0070C0FE0DFF87E
:10139000B0C0604502D14FF0080C08E0DFF8A4C0EF
:1013A000604502D14FF0090C01E04FF00A0C0CFA35
:1013B00007FC4CEA060CCEF808C44F68DBF8006066
:1013C000FF0226EA020600D516435F46CBF800600E
:1013D000D1F804C0DBF804605FEA8C2C26EA020630
:1013E00000D516437E606E684F6826EA0206BF038A
:1013F00000D516436E602E684F6826EA0206FF038A
:1014000000D516432E605B1C0A6832FA03F67FF49F
:1014100011AFBDE8F88F000080000058F444025876
:10142000000002580004025800080258000C02583C
:10143000001002580014025800180258001C0258EC
:101440000020025800240258426921EA02030A409F
:1014500043EA0241816170470AB181617047090422
:10146000FBE7000001480068000C70470010005CBA
:1014700001488068704700002800002410B501F082
:10148000D9FA0E4CB0FBF4F10DA004F0CFFC01F042
:101490008BFAB0FBF4F117A004F0C8FC01F0A6FA37
:1014A000B0FBF4F11FA004F0C1FC01F0B1FAB0FBF5
:1014B000F4F1BDE8104028A004F0B8BC40420F0091
:1014C0005B48414C5F4765745F4350555F524343EF
:1014D0005F436C6F636B5D48414C5F5243435F53A6
:1014E0007973436C6F636B467265713A25644D483E
:1014F0007A0D0A005B48414C5F4765745F43505565
:101500005F5243435F436C6F636B5D48414C5F5276
:1015100043435F48434C4B467265713A25644D48DE
:101520007A0D0A005B48414C5F4765745F43505534
:101530005F5243435F436C6F636B5D48414C5F5246
:1015400043435F50434C4B31467265713A25644DBD
:10155000487A0D0A000000005B48414C5F47657403
:101560005F4350555F5243435F436C6F636B5D480D
:10157000414C5F5243435F50434C4B32467265715E
:101580003A25644D487A0D0A0000000030B590F805
:101590004120202A24D190F84020012A20D0012384
:1015A00080F84030242280F8412020230024026863
:1015B000156825F0010515600268156825F4805549
:1015C0001560026815680D43156001680A6842F0ED
:1015D00001020A6080F8413080F84040002030BDB0
:1015E000022030BD30B590F84120202A22D190F859
:1015F0004020012A1ED0012380F84030242280F8A8
:101600004120202400250268136823F001031360A1
:101610000268136823F4706343EA012111600168D2
:101620000A6842F001020A6080F8414080F84050A8
:10163000002030BD022030BD70B5040004D094F805
:101640004100002510B106E0012070BD204684F85D
:10165000405000F0ABF9242084F841002068016874
:1016600021F001010160D4E9001020F070600861F0
:101670002068816821F400418160E06821680128C8
:10168000A06806D040F404408860E068022803D0D7
:1016900006E040F40040F7E721684FF4006048603E
:1016A00020212068114A4368134343602068C268C0
:1016B00022F40042C26054F8106B0DCC104340EA93
:1016C0000320F06054F81C3CD4E900021043186079
:1016D00054F81C0D026842F001020260656484F84F
:1016E0004110256384F84250002070BD0080000244
:1016F0002DE9FF4F83B0044690F841009A46934687
:10170000DDE91087DDF84890202874D15FEA0800F1
:1017100014D09FB194F8400001286CD0012084F8C7
:101720004000FFF7A5FE0122064619230090D103D1
:10173000204602F06BFC002871D103E04FF40070EA
:1017400060646CE00025C4F82480222184F84110F4
:10175000402084F8420065646785534665635A46B5
:1017600004992046CDE9009602F0D4FB10B184F82C
:10177000405054E0618DFF2734484FF08078FF29B6
:101780004FF0007A04D927853A464346009005E099
:10179000618D53462185009094F8282020460499B5
:1017A00002F01CFC00224B4604212046009602F069
:1017B0002DFCA0BB2068616A406A0870606A401C0A
:1017C0006062208D401E81B22185608D401E608543
:1017D000608DD8B1D1B900224B46802120460096B9
:1017E00002F014FCD8B9608DFF2805D927853A4648
:1017F0004346009506E026E0608D5346208500951F
:1018000094F828202046049902F0E8FB608D002817
:10181000C8D132464946204602F025FC18B10120C5
:1018200007B0BDE8F08F21682020094AC86121680F
:101830004B6813404B6084F8410084F8425000200C
:1018400084F84050ECE70220EAE700000024008022
:1018500000E800FE2DE9FF4F83B0044690F84100F8
:101860009A469346DDE91087DDF84890202871D12B
:101870005FEA080014D09FB194F84000012869D0B5
:10188000012084F84000FFF7F3FD012206461923EA
:101890000090D103204602F0B9FB00286ED103E08E
:1018A0004FF40070606469E00025C4F824802121B1
:1018B00084F84110402084F84200656467855346EF
:1018C00065635A4604992046CDE9009602F054FB20
:1018D00010B184F8405051E0608DFF274FF08078C0
:1018E000FF284FF0007A04D927853A4643460095F1
:1018F00005E0608D53462085009594F82820204609
:10190000049902F06BFB32464946204602F0D2FBB6
:10191000A0BB606A216800788862606A401C6062CF
:10192000608D401E6085208D401E80B22085618DB7
:10193000D9B1D0B900224B4680212046009602F052
:1019400065FBD8B9608DFF2805D927853A464346FF
:10195000009506E026E0608D53462085009594F8BA
:1019600028202046049902F039FB608D0028CAD156
:1019700032464946204602F076FB18B1012007B0F6
:10198000BDE8F08F20682021074AC16120684368C4
:101990001340436084F8411084F84250002084F8DA
:1019A0004050ECE70220EAE700E800FE10B5B6B0D0
:1019B000044614212FA8FEF7D7FCBC216846FEF789
:1019C000D3FC18492068884229D1082000900024BF
:1019D0006846209400F050FA08B1FEF7F0FF124874
:1019E000016841F00201016000682FAB122100F094
:1019F000020034904FF4C070042283E813000B48B7
:101A00002FA9CDE93242FFF709FC074808300168E9
:101A100041F400110160006800F40010349036B009
:101A200010BD000000540040E04402580004025879
:101A300002488168027811448160704728000024C0
:101A4000032010B500F086F800F0F4FF0F4A1049AB
:101A500014681368C4F3032203F00F038A5CC95CA3
:101A600002F01F0201F01F01D0400A4A20FA01F1E2
:101A7000116009490860002000F010F808B1012049
:101A800010BD00F02BF8002010BD000018440258D3
:101A900050740008380000243400002470B50D4D47
:101AA00004462878A0B14FF47A71B1FBF0F00A49EE
:101AB0000968B1FBF0F001F0C9FD48B9102C07D25C
:101AC00000222146501E00F025F800206C6070BDF9
:101AD000012070BD2800002434000024054808B50A
:101AE000016841F002010160006800F0020000900E
:101AF00008BD0000F4440258002809DB410900F049
:101B00001F028900012001F1E0219040C1F800018D
:101B1000704700000E4BF0B41B680D46C3F3022360
:101B2000C3F10706042E00D90426191D072901D286
:101B3000002300E0DB1E012404FA06F19C40491E4C
:101B40002940641E994014402143F0BC04F07EB942
:101B50000CED00E0064900F0070210B54FF6FF0457
:101B60000868044B204040EA02201843086010BD7A
:101B70000CED00E00000FA05134970B50A68D24385
:101B8000520705D5096801F00701814213D118E019
:101B90000A6822F0070202430A60FFF769FC0A4D57
:101BA0004FF47A760446083D07E000BFFFF760FC7B
:101BB000001BB04201D9012070BD2868C0438004D9
:101BC000F4D4002070BD00000C48025810B500F09D
:101BD000EBFE05490968054AC1F30211515C01F0A9
:101BE0001F01C84010BD0000204402585074000876
:101BF000494930B5484C0B1D0A68143409681D6802
:101C0000246802F00303C5F30012C1F30531C4F3E5
:101C1000CC04002914FB02F200EE102AF8EE400A70
:101C200075D03F4A9FED3D1AB7EE000A6BB1DFED6C
:101C30003D1A012B01D0022B64D002EE101A11685C
:101C4000F8EE422A81EEA22A21E0334C283C236898
:101C50009B0612D5344B246801EE901A1168C4F328
:101C6000C104F8EE612AE34001EE903AC1F30801A5
:101C7000F8EE611A81EEA22A0BE001EE901ADFED78
:101C80002B2A00BFF8EE611A116882EEA12AC1F377
:101C9000080101EE901A1168F8EE611A40EE811AFF
:101CA00071EE800A62EE200AC1F3462101EE101A9D
:101CB000B8EE411A31EE001AC0EE811ABCEEE11AFC
:101CC00080ED001A1168C1F3064101EE101AB8EE5A
:101CD000411A31EE001AC0EE811ABCEEE11A80ED15
:101CE000011A1168C1F3066101EE101AB8EE411A2B
:101CF00031EE000A80EE801ABCEEC10A80ED020AC5
:101D000030BD04E001EE901ADFED092ABAE70021A8
:101D1000016041608160F3E7284402580000003907
:101D2000384402580024744A0090D0030024744CB4
:101D300020BCBE4B494930B5484C0B1D0A681C34C9
:101D400009681D68246802F00303C5F30022C1F38B
:101D50000551C4F3CC04002914FB02F200EE102A52
:101D6000F8EE400A75D03F4A9FED3D1AB7EE000AE3
:101D70006BB1DFED3D1A012B01D0022B64D002EED6
:101D8000101A1168F8EE422A81EEA22A21E0334CA3
:101D9000283C23689B0612D5344B246801EE901A28
:101DA0001168C4F3C104F8EE612AE34001EE903AF1
:101DB000C1F30801F8EE611A81EEA22A0BE001EEF0
:101DC000901ADFED2B2A00BFF8EE611A116882EE3F
:101DD000A12AC1F3080101EE901A1168F8EE611A08
:101DE00040EE811A71EE800A62EE200AC1F34621AC
:101DF00001EE101AB8EE411A31EE001AC0EE811A47
:101E0000BCEEE11A80ED001A1168C1F3064101EE43
:101E1000101AB8EE411A31EE001AC0EE811ABCEE6B
:101E2000E11A80ED011A1168C1F3066101EE101A82
:101E3000B8EE411A31EE000A80EE801ABCEEC10AFB
:101E400080ED020A30BD04E001EE901ADFED092AB0
:101E5000BAE70021016041608160F3E7284402583D
:101E600000000039404402580024744A0090D00316
:101E70000024744C20BCBE4B2DE9FC5F044650F896
:101E8000241B002500902E460801FE4FDFF8F88342
:101E90001DD5606E50B1B0F5801F0CD0B0F5001F9D
:101EA0000ED0B0F5401F1DD001250FE0386840F47A
:101EB0000030386016E00221201D02F013FD03E01F
:101EC0000098022102F09EFD05000BD02E462088CE
:101ED000C00523D5606D05281ED2DFE800F00C1187
:101EE000161B1B00626ED8F8001021F4401111433C
:101EF000C8F80010EBE7386840F40030386009E0BB
:101F00000021201D02F0EEFC03E00098002102F009
:101F100079FD05466DB100E001252E46208880053B
:101F200028D5A06D80281ED00CDC90B140280ED1A1
:101F300014E0626DD8F8001021F007011143C8F8D1
:101F40000010EBE7C02813D0B0F5807F10D001253A
:101F50000FE0386840F40030386009E00021201DAF
:101F600002F0C0FC03E00098002102F04BFD0546A2
:101F700095B12E462088DFF81093400509F1080935
:101F80002CD5D4F8A400B0F5800F20D00DDCA0B182
:101F9000B0F5001F0FD115E0A26DD8F8001021F4A4
:101FA000E0711143C8F80010E4E7B0F5C00F13D09A
:101FB000B0F5000F10D001250FE0386840F4003074
:101FC000386009E00021201D02F08CFC03E000983D
:101FD000002102F017FD054675B12E462088000548
:101FE0002DD5D4F8A800B0F1007F21D00EDCA8B127
:101FF000B0F1807F10D116E0D4F8A420D9F80010F9
:1020000021F460011143C9F80010E7E7B0F1407F07
:1020100013D0B0F1806F10D001250FE0386840F484
:102020000030386009E00021201D02F05BFC03E075
:102030000098002102F0E6FC05466DB12E462068AE
:1020400080011FD5A06CD8B110280FD0202812D045
:10205000302815D0012514E0D4F8A820D9F80010B4
:1020600021F0E0611143C9F80010E8E7386840F456
:102070000030386004E00221201D02F033FC0546E8
:102080006DB12E462088C0042BD5E06DB0F5005F01
:1020900020D00DDCA0B1B0F5805F0FD115E07A48FB
:1020A000A26C001F016821F0300111430160E9E7D3
:1020B000B0F5405F13D0B0F5804F10D001250FE090
:1020C000386840F40030386009E00021201D02F03B
:1020D00009FC03E00098002102F094FC054685B15C
:1020E0002E462088800429D5206EB0F5403F23D0AD
:1020F00010DC08B3B0F5803F14D0B0F5003F0FD12D
:1021000015E0E26DD8F8001021F4E0411143C8F861
:102110000010E6E7B0F5802F0ED0B0F5A02F0BD061
:1021200001250AE00121201D02F0DCFB03E00098FC
:10213000012102F067FC05468DB12E46208840043F
:102140002AD5D4F8AC00B0F1405F23D010DC08B33E
:10215000B0F1805F14D0B0F1005F0FD115E0226EB6
:10216000D8F8001021F4E0211143C8F80010E5E789
:10217000B0F1804F0ED0B0F1A04F0BD001250AE096
:102180000121201D02F0AEFB03E00098012102F0C6
:1021900039FC05466DB12E46208800041FD5E06E3F
:1021A000D8B1B0F1805F0ED0B0F1005F10D0012542
:1021B00014E0D4F8AC20D9F8001021F0E04111432C
:1021C000C9F80010E8E7386840F40030386004E0EF
:1021D0000121201D02F086FB05466DB12E462068C8
:1021E000C0011ED5606CD0B101280ED0022811D0DC
:1021F000032814D0012513E0E26ED8F8001021F076
:1022000040511143C8F80010E9E7386840F4003045
:10221000386004E00221201D02F064FB054685B110
:102220002E462068DFF85CB04002ABF11C0B57D59E
:102230001648016841F480710160FFF719F9824680
:102240000EE01148626C001F016821F00301114388
:102250000160E6E7FFF70CF9A0EB0A0064283DD81F
:102260000A480068C005F5D57DBBDFF81CA0B4F8AE
:10227000B0200AF1200ADAF8001002F4407001F4EC
:10228000407105E02C44025850440258004802585E
:10229000814211D0DAF80010DAF8002021F4407100
:1022A00042F48032CAF80020DAF8002022F48032AA
:1022B000CAF80020CAF80010D4F8B000B0F5807F4A
:1022C00021D1FFF7D5F8019019E008E0FFF7D0F829
:1022D0000199411A41F28830814210D903252E46D6
:1022E0002078DFF844A4C0073DD0A06F182838D06C
:1022F00026DC80B3082829D0102825D12CE0DAF874
:1023000000008007E2D5D4F8B010C1F30120032803
:1023100058460DD0016821F47C510160B4F8B0201A
:10232000DAF80010C2F30B021143CAF80010D7E725
:10233000FE4A036802EA111223F47C511143ECE7D0
:1023400020280ED028280CD001250BE00121201DCB
:1023500002F0C8FA04E004E00098012102F052FB08
:1023600005465DB12E46207880071ED5606F062891
:1023700019D2DFE800F0160C11161616A26FDAF863
:10238000001021F038011143CAF80010EBE70121D9
:10239000201D02F0A7FA03E00098012102F032FBB1
:1023A000054675B100E001252E46207840071FD56F
:1023B000D4F89000062819D2DFE800F0160C1116A8
:1023C0001616626FDAF8001021F007011143CAF8FF
:1023D0000010EAE70121201D02F084FA03E00098D2
:1023E000012102F00FFB05469DB100E001252E46BC
:1023F000207880062BD5D4F88C00B0F1405F24D033
:1024000011DC10B3B0F1805F15D0B0F1005F10D1D6
:1024100016E0D4F89020D9F8001021F007011143FC
:10242000C9F80010E4E7B0F1804F0ED0B0F1A04F32
:102430000BD001250AE00021201D02F053FA03E031
:102440000098022102F0DEFA05468DB12E46207872
:1024500040062BD5D4F89800B0F5406F24D011DC9D
:1024600010B3B0F5806F15D0B0F5006F10D116E045
:10247000D4F88C20DAF8001021F0E0411143CAF8BA
:102480000010E4E7B0F5805F0ED0B0F5A05F0BD090
:1024900001250AE00021201D02F024FA03E0009843
:1024A000022102F0AFFA05468DB12E4620780006D3
:1024B0002BD5D4F89C00B0F5C04F24D011DC10B35C
:1024C000B0F5005F15D0B0F5804F10D116E0D4F80C
:1024D0009820D9F8001021F4E0511143C9F80010F8
:1024E000E4E7B0F5004F0ED0B0F5204F0BD001253A
:1024F0000AE00021201D02F0F5F903E00098022116
:1025000002F080FA05464DB12E46207800071ED510
:10251000D4F88000B0F5805F0AD00FE0D4F89C209A
:10252000D9F8001021F460411143C9F80010ECE71C
:102530000098022102F066FA00B10126D4F880204A
:10254000DAF8001021F440511143CAF80010207845
:10255000C00613D5D4F89400B0F5807F05D100985B
:10256000022102F04FFA00B10126D4F89420D9F8E4
:10257000001021F440711143C9F8001020680003D5
:1025800016D5D4F8A00038B1B0F5803F09D0B0F529
:10259000003F0BD001250AE00021201D02F0A2F926
:1025A00003E00098022102F02DFA054685B12E467F
:1025B0002068400322D5D4F88400B0F5801F11D0E4
:1025C000B0F5001F13D0B0F5401F15D0012514E061
:1025D000D4F8A020D9F8001021F440311143C9F8F3
:1025E0000010E5E7386840F40030386004E00098F7
:1025F000012102F007FA054655B12E462068C003B6
:102600001CD5E06C70B1B0F5803F10D0012514E00E
:10261000D4F88420DAF8001021F440111143CAF8EC
:102620000010EBE7386840F40030386004E0022125
:10263000201D02F057F90546CDB12E4620688000D6
:1026400005D50098022102F0DDF900B101262068CD
:1026500080031BD5E06FB8B1B0F5807F10D0B0F526
:10266000007F11D0B0F5407F0ED001250DE02E483F
:10267000E26C0838016821F4803111430160DDE724
:10268000386840F400303860F5B32E462068C00248
:1026900007D5226FD8F8001021F000411143C8F887
:1026A00000102068C00008D5D4F8B420DBF8001072
:1026B00021F480411143CBF800102068800207D537
:1026C000A26ED8F8001021F080711143C8F80010F4
:1026D000206840000CD5DBF8001021F40041CBF855
:1026E0000010DBF80010D4F8B8201143CBF800102C
:1026F0002068002807DA0C48226D0838016821F0AC
:1027000040511143016000E014E02068000208D548
:10271000D4F88820DAF8001021F440011143CAF8F7
:10272000001086B1012003E054440258CFFFFF009F
:10273000BDE8FC9FE26FDAF8001021F4407111430C
:10274000CAF80010A2E70020EDE700002DE9F05FD5
:1027500004000F467ED0DFF83882D8F8000000F081
:102760000F00B8420CD2D8F8001021F00F01394305
:10277000C8F80010D8F8000000F00F00B84269D186
:102780002078844D40070AD52069296801F070013E
:10279000884204D9296821F070010143296020781A
:1027A0007C4E361D00070AD56069316801F0700162
:1027B000884204D9316821F07001014331602078EA
:1027C000C0060AD5A069316801F4E061884204D9E5
:1027D000316821F4E061014331602078DFF8B4B161
:1027E00080060BF1080B0CD5E1695846DBF8002098
:1027F00002F07002914204D9026822F070020A438A
:102800000260207880070AD5E068296801F00F018E
:10281000884204D9296821F00F01014329602078FA
:10282000C0073ED05B49A2682868183920F4706060
:10283000104328606068022818D0032819D009685E
:10284000012819D0490700294ADADFF848A1AAF17E
:10285000080A00E044E0DAF8002022F00702024310
:10286000CAF80020FEF704FE814612E009688903D9
:10287000E9E709688901E6E7C905E4E7FEF7F8FD3D
:10288000A0EB090141F28830814202D90320BDE862
:10289000F09F6168DAF8000000F03800B0EBC10F7B
:1028A000ECD1207880070AD5E068296801F00F0193
:1028B000884204D2296821F00F0101432960D8F829
:1028C0000010404601F00F01B9420BD9016821F018
:1028D0000F0139430160006800F00F00B84201D0D9
:1028E0000120D4E7207840070AD52069296801F043
:1028F0007001884204D2296821F0700101432960E7
:10290000207800070AD56069316801F070018842BB
:1029100004D2316821F07001014331602078C00693
:102920000AD5A069316801F4E061884204D23168B7
:1029300021F4E06101433160207880060CD5E16923
:102940005846DBF8002002F07002914204D202687F
:1029500022F070020A43026000F06CF80E492A6807
:102960002B68C2F3032203F00F038A5CC95C02F0F8
:102970001F0201F01F01D040084A20FA01F1116046
:102980000749086007480068BDE8F05FFFF786B8B0
:1029900000200052184402585074000838000024E7
:1029A000340000242C00002430B500F043F80B4A1A
:1029B0000B490C4B15681468C5F3032204F00F048F
:1029C0008A5C095D02F01F0201F01F01D040064A37
:1029D00020FA01F119601060084630BD1844025811
:1029E00050740008380000243400002400B5FFF7BC
:1029F000DBFF05490968054AC1F30211515C01F08A
:102A00001F01C84000BD00001C440258507400085B
:102A100000B5FFF7C9FF05490968054AC1F302215E
:102A2000515C01F01F01C84000BD00001C44025869
:102A300050740008454970B545480968434B103B40
:102A400011F0380208D00111082A03D0102A0BD047
:102A5000182A0BD0084670BD19688906FBD519687D
:102A6000C1F3C101C84070BD3A4870BD3749374D08
:102A700018310C1D24350A68096826682D6802F093
:102A8000030406F00102C1F30511C5F3CC0515FBE3
:102A900002F200EE102AB8EE400AE9B32F4ADFED49
:102AA0002E0AB7EE001A6CB1DFED2D1A012C01D001
:102AB000022C43D002EE101A1068F8EE422A81EE82
:102AC000A22A1EE01C68A40611D51B6801EE901A0C
:102AD0001168C3F3C103F8EE612AD84001EE900AF1
:102AE000C1F30800F8EE611A81EEA22A0BE001EEB4
:102AF000901ADFED1C2A00BFF8EE611A106882EE12
:102B0000A12AC0F3080001EE900AF8EE611A40EE27
:102B1000201A31EE810A00E015E022EE000A10686A
:102B2000C0F34620401C00EE900AF8EE600A80EEEA
:102B3000201ABCEEC10A10EE100A70BD01EE901A08
:102B4000DFED092AD8E7002070BD000010440258CC
:102B50000090D00340787D010000003930440258D5
:102B60000024744A0024744C20BCBE4B2DE9F05F55
:102B700004007DD0FF4F2078FE4D1837DFF8F49326
:102B8000103DC00748D0D9F80000396800F038007F
:102B9000102815D0182803D101F0030002280FD007
:102BA0006068B0F5803F12D010B1B0F5A02F18D0FA
:102BB000286820F480302860286820F4802009E00C
:102BC0002868800328D560680028D2D024E02868CF
:102BD00040F480302860606888B1FEF749FC064602
:102BE00009E0286840F480202860F0E7FEF740FC08
:102BF000801B64286FD828688003F7D50CE0FEF7A7
:102C000037FC064605E000BFFEF732FC801B642857
:102C1000F0D828688003F7D4207841F20308D54E15
:102C20000C3E800769D5D9F80000396810F03800EB
:102C30000ED0182801D188070AD0E06890B329681F
:102C400021F0190101432960FEF712FC824631E0B0
:102C50002868400702D5E06800288AD0E168286823
:102C600020F0190008432860FEF702FC824607E0C6
:102C7000DFE000BFFEF7FCFBA0EB0A000228B9D89A
:102C800028684007F6D500BFFEF7ECFB40451BD88F
:102C90002069402812D0316821F47C3141EA0030AB
:102CA00030602AE018E000BFFEF7E2FBA0EB0A006C
:102CB00002289FD828684007F6D5E5E7306820F459
:102CC0007C3040F40030EBE7207C316821F0FE419D
:102CD00041EA0060E4E70DE1286820F00100286087
:102CE000FEF7C6FB824605E0FEF7C2FBA0EB0A003A
:102CF00002288DD828684007F6D42078C0065DD514
:102D0000D9F80000DFF86CB2396800F03800ABF198
:102D1000040B082810D0182803D101F00300012863
:102D20000AD0E0690028286838D040F08000286088
:102D3000FEF79EFB824623E02868C00523D5E069A4
:102D4000802876D11FE0206A202821D0316821F028
:102D5000F84141EA8060306030E000BF94F8201014
:102D6000DBF8002022F07C5242EA0161CBF800102F
:102D700024E000BFFEF77CFBA0EB0A00022898D8F5
:102D80002868C005F6D5FEF76DFB4045E6D8DAE7C2
:102D9000306820F0F84040F08040DCE720F0800010
:102DA0002860FEF765FB064605E000BFFEF760FB06
:102DB000801B02289DD82868C005F7D4207800071A
:102DC00029D56C486169643000298046016811D0BA
:102DD00041F001010160FEF74BFB064605E000BF34
:102DE000FEF746FB801B0228C9D8D8F800008007F0
:102DF000F6D510E021F001010160FEF739FB06462F
:102E000005E000BFFEF734FB801B022872D8D8F81B
:102E100000008007F6D42078800623D5A06900281A
:102E2000286810D040F480502860FEF721FB064649
:102E300005E02CE1FEF71CFB801B02285AD828680D
:102E40008004F7D50EE020F480502860FEF710FBD8
:102E5000064604E0FEF70CFB801B02284AD82868CF
:102E60008004F7D4207840074FD5DFF80C81D8F8DC
:102E7000001041F48071C8F80010FEF7F9FA064618
:102E800005E000BFFEF7F4FA801B642832D8D8F8BA
:102E90000000C005F6D5374EA068603601280AD07C
:102EA00008B1052813D0306820F001003060306888
:102EB00020F0040002E0306840F001003060A068BB
:102EC00041F2883A90B1FEF7D3FA80460AE03068C2
:102ED00040F004003060EEE7FEF7CAFAA0EB08010C
:102EE000514507D830688007F6D50EE0FEF7C0FAE6
:102EF000804607E084E000BFFEF7BAFAA0EB0801C5
:102F000051457DD830688007F6D4606AB0B3DFF8E9
:102F10006480D9F8001008F12008C1F3C201032928
:102F20006FD00228286820F08070286003D0FEF758
:102F30009FFA044680E0FEF79BFA064605E000BFD4
:102F4000FEF796FA801B022873D828688001F7D410
:102F5000E26A40F2F331386854F8283F884340EA87
:102F6000021018433860217B4FF4FE0C22894FF089
:102F7000FE4704E0104402580048025889E0208AC5
:102F80004902521E267DA1F5007189B2401EC2F38E
:102F900008021143761E0CEA004001433E4807EA4E
:102FA000066211433C4AC8F800100832016821F05B
:102FB0000101016011684FF6F876236AB14341EAD6
:102FC000C30111600168A26921F00C011143016085
:102FD0000168E26921F0020111430160016841F4D6
:102FE00080310160016841F400310160016841F401
:102FF00080210160016841F001010160286801E061
:1030000017E01DE040F080702860FEF731FA0446BA
:1030100005E000BFFEF72CFA001B022809D828683B
:103020008001F7D535E000BFFEF722FA001B022829
:1030300002D90320BDE8F09F28688001F4D428E07D
:1030400039680128D8F8000021D0A26A01F00303F2
:1030500093421CD1E26AC1F305118A4217D1216B58
:10306000C0F30802491E8A4211D1616BC0F34622A7
:10307000491E91420BD1A16BC0F30642491E9142F9
:1030800005D1E16BC0F30660491E814201D00120E9
:10309000D0E70020CEE700002C4402582DE9F0478D
:1030A000040029D0504A4FF0000920684F4B504D82
:1030B0009042C4F8289006D0984204D0A84202D08A
:1030C000E1680F2918D8E1684FF0010AE76B083171
:1030D000C9080AEB57167143904205D0984203D0B5
:1030E000A84201D0082907D8904203D0984201D0C5
:1030F000A84204D1102902D90120BDE8F08794F834
:10310000810020B9204684F8809000F073F80220F6
:1031100084F881002068016821F0010101602168C4
:10312000A0698A68B0F1806F02F4F81010D162686B
:10313000B2F5800F01D01AB10AE0A26B22B107E00C
:10314000A26BB2F1805F03D10A6842F480520A6038
:10315000A66AE169E26B25683143E36802431143E3
:103160001943A960D4E90D02D4E90571636A2569A0
:103170001843D4F820C00A43266810432843A56D9D
:103180003843D4E90182D4E9123140EA0C0040EA24
:1031900008000843104318432843F060606868B98A
:1031A0002068816821F4C05141F400618160206889
:1031B000816821F4C06141F4806181602068016D03
:1031C00021F0010101656068400206D52068626D4A
:1031D000C16821F000411143C160C4F8849084F8B3
:1031E00081A0002089E70000003001400038004045
:1031F000003C00402DE9F041B6B0044614212FA850
:10320000FDF7B2F8BC216846FDF7AEF82649206804
:10321000884245D102A94FF080080224C02206232B
:1032200081E81C0000250594052608958014179058
:10323000CDE90685CDE900066846FEF71DFE08B11A
:10324000FDF7BDFB1948016841F480510160006839
:1032500000F48050349015481038016841F00201A4
:103260000160016801F002013491016841F0080138
:10327000016000682FA90327339600F008003490FE
:10328000182081E8B1000A48FDF7C8FF30AACDF840
:10329000BC8033962FA9074882E8B000FDF7BEFF37
:1032A00036B0BDE8F081000000300140F044025823
:1032B00000040258000C02582DE9FF4F83B090F82B
:1032C00080100446006801294FF00001109F1D4640
:1032D000019100F1200100F130009346029100902D
:1032E00014D04FF0010A84F880A0FEF7C1F88046A0
:1032F00094F881006368002101282E464FF4800273
:103300000CD0934208D1A36833B903E0022007B080
:10331000BDE8F08F042801D0022037E0049898B36C
:10332000BBF1000F31D07DB394F88100042802D0A6
:10333000052084F8810089460846C4F88410C4F842
:1033400064B0A4F86A50A4F868500499E165A4F840
:103350006250A4F8605020676067206841686FF38E
:103360000F01294341602068016841F001010160BB
:103370006068904204D12068016841F400710160E6
:10338000E0680F2836D839E0FFE7012084F8801084
:10339000BDE72068416989070DD565B1E16D096810
:1033A0000162E06D001DE065B4F86200401EA4F803
:1033B0006200B4F8625048F2080220684169114284
:1033C0000DD066B1006B616E0860606E001D6066B6
:1033D000B4F86A00401EA4F86A00B4F86A60FEF708
:1033E00047F8A0EB0800B84202D3781C02D0E4E012
:1033F000002FFCD055EA0600CBD1C4E007284CD8FA
:10340000BEE02068416989071CD5DDB1012D0BD9CB
:10341000E16B49B1E16D09680162E06D001DE06595
:10342000B4F86200801E09E0E06D01880298018016
:10343000E06D801CE065B4F86200401EA4F86200F4
:10344000B4F862502068416911F4604F1BD0D6B1C6
:103450004169090409D5006B616E0860606E001D4A
:103460006066B4F86A00801E09E000980088616E0A
:103470000880606E801C6066B4F86A00401EA4F884
:103480006A00B4F86A60FDF7F3FFA0EB0800B842E9
:1034900002D3781C01D090E0F7B355EA0600B0D112
:1034A00071E02068416989072CD55DB3032D0CD9E3
:1034B000E16B40290BD9E16D09680162E06D001DE7
:1034C000E065B4F86200001F18E0012D0CD9E16B33
:1034D00051B1E06D018802980180E06D801CE065CB
:1034E000B4F86200801E09E0E16D097880F82010D0
:1034F000E06D401CE065B4F86200401EA4F8620074
:10350000B4F862502068416911F4604F2ED06EB358
:10351000416909040BD500E04FE0006B616E086063
:10352000606E001D6066B4F86A00001F1AE0416911
:1035300001F4C041B1F5005F0AD900980088616EBE
:103540000880606E801C6066B4F86A00801E09E026
:1035500090F83000616E0870606E401C6066B4F8D0
:103560006A00401EA4F86A00B4F86A60FDF780FFA4
:10357000A0EB0800B84202D3781C01D01DE0E7B1EF
:1035800055EA06008DD100224346082120460097C7
:1035900001F070FB28B1D4F8840040F02000C4F89A
:1035A0008400204601F008FB84F881A0D4F8841040
:1035B00084F8809081B10120A9E6204601F0FCFA50
:1035C000D4F8842084F8809042F48071C4F8841088
:1035D00084F881A003209AE6019898E670B504006B
:1035E00015460E4603D094F8450010B107E00120BF
:1035F00070BD002084F84400204600F025F82068C3
:1036000004F10801FDF7FEF9A26831462068FDF7D4
:1036100043FAE36A2946D4E90102FDF7D3F9A16828
:1036200001232068074A50F8215045F0010540F871
:103630002150106840F00040106084F845300020B0
:1036400070BD000000400052FDF75EBD401EB0F1AD
:10365000807F10B501D3012010BD4FF0E0246061E0
:103660000F21601702F0F2FB0020A0610721216109
:1036700010BD30B590F88010012918D0012280F8D3
:1036800080202421C0F884100022202450F8641BDC
:103690000B680D6823F0005325F001050D600260F2
:1036A00050F8641C0B6004620277104630BD0220A3
:1036B00030BD7047704770B5044690F8800001280F
:1036C0001DD0012284F880202420C4F884002068C2
:1036D0000568026822F0010202602068826822F018
:1036E00060620A438260204601F06CFC226820215F
:1036F00000201560C4F8841084F8800070BD02209A
:1037000070BD70B5044690F8800001281DD00122DC
:1037100084F880202420C4F88400206805680268AA
:1037200022F0010202602068826822F060420A43AF
:103730008260204601F046FC2268202100201560AE
:10374000C4F8841084F8800070BD022070BD7047FA
:10375000704770472DE9F04103680446002540F6A4
:103760000F06D86919689A68304209D186067DD556
:1037700001F0200602F080573E4377D0216F62E1CE
:10378000C64EC74F16400F4037436FD0C70709D00A
:10379000CF0507D501271F62D4F88C3043F0010311
:1037A000C4F88C3083070AD5D30708D027680223D2
:1037B0003B62D4F88C3043F00403C4F88C304307E8
:1037C0000AD5D30708D0276804233B62D4F88C308D
:1037D00043F00203C4F88C3003070CD501F020033A
:1037E000334308D0266808233362D4F88C3043F082
:1037F0000803C4F88C3003050BD54B0109D52668A6
:103800004FF400633362D4F88C3043F02003C4F8E3
:103810008C30D4F88C30002B3AD0800609D501F0DA
:10382000200002F08051084303D0216F09B12046E7
:1038300088472168D4F88C008968490602D410F0C2
:10384000280F27D0204601F07DFC206880684006C4
:103850001BD52068083050E8001F21F0400140E8E7
:103860000012002AF5D1E06F78B100E018E08D4930
:103870000165E06FFDF7F4FA002809D0E06F016DF3
:1038800000E02046BDE8F04108472046FFF761FF11
:10389000BDE8F0812046FFF75CFFC4F88C50F7E7E5
:1038A000E76E2026012F7CD1C7067AD5CF0678D5C2
:1038B000102018622068806840067DD5E16F7A4A42
:1038C0000868904234D0784A1832904230D0764A14
:1038D000303290422CD0744A4832904228D0724AFA
:1038E0006032904224D0704A7832904220D06E4AA2
:1038F000903290421CD06C4AA832904218D06B4A49
:10390000904215D0694A1832904211D0674A30323D
:1039100090420DD0654A4832904209D0634A6032E5
:10392000904205D0614A7832904201D05F4A90328D
:1039300040680004000CABD0B4F85C208242A7D9E8
:10394000A4F85E00C869B0F5807F2ED0216851E8E8
:10395000000F20F4807041E80002002AF6D12068B0
:10396000083050E8001F21F0010140E80012002A51
:10397000F5D12068083050E8001F21F0400140E8F0
:103980000012002AF5D1C4F88860E566216851E884
:10399000000F20F0100041E80002002AF6D1E06F8D
:1039A00001E03BE008E0FDF7ABF8B4F85C00B4F8E8
:1039B0005E10401A81B22DE0B4F85C00B4F85E10DD
:1039C000B4F85E20401A81B2002AB4D00029B2D0E7
:1039D000226852E8000F20F4907042E80003002BA8
:1039E000F6D1334B226802F1080252E8000F00EAD8
:1039F000030042E80007002FF4D1C4F88860E566B0
:103A00002567226852E8000F20F0100042E800030A
:103A1000002BF6D12046FFF74CFE39E7C70209D547
:103A2000570207D54FF4801018622046BDE8F041D8
:103A3000FFF78EBE03060AD501F0800302F40002F0
:103A4000134304D0616F00297FF41BAF20E74206C7
:103A500011D54A060FD52046026852E8001F21F012
:103A6000400142E80013002BF6D1C0F8846045679E
:103A700000F049F90CE7020206D54A0004D52046B9
:103A8000BDE8F041FFF763BEC001C6D50029C4DA26
:103A90002046BDE8F041FFF70DBE00000100001018
:103AA00020010004315100081000024010040240BF
:103AB000FEFFFFEF10B5040003D0D4F8840010B16E
:103AC00007E0012010BD002084F88000204600F0AF
:103AD00027F82420C4F884002068016821F001013F
:103AE0000160204601F070FD0128EBD0A06A10B102
:103AF000204601F089FA2068416821F49041416034
:103B00002068816821F02A0181602068016841F005
:103B1000010101602046BDE8104001F0D9BA000063
:103B200030B5B5B0044614212FA8FCF71DFCBC210C
:103B30006846FCF719FC1E492068884236D10225E8
:103B40006846002400951D94FEF796F908B1FCF72D
:103B500036FF1848016841F000410160006800F03C
:103B60000040349013480838016841F40071016046
:103B700000680821CDE9305400F400703490CDE99C
:103B800032414FF440702F900B482FA9FDF746FBB0
:103B90000A480068016841F01001016000225320CA
:103BA0001146FDF7B7FF5320FDF7A6FF35B030BD36
:103BB000007C0040E8440258002402585C190024AC
:103BC00070B4D0F88830202B20D1E1B1DAB190F870
:103BD0008030012B1AD0036801260D4D002480F897
:103BE0008060C466AB420BD05B681B0208D50468DA
:103BF00054E8003F43F0806344E80035002DF6D1DF
:103C000070BC01F0B7BE012070BC70470220FBE71A
:103C1000000C005810B50068084988420DD10849C9
:103C200001220848FFF7CCFF0549064C491E0878D9
:103C30004B78421C983C23540A7010BD007C004015
:103C40000D0000245C1900242DE9F8430446D0F847
:103C500084001F4616460D46202852D1DDB1D6B14C
:103C600094F8800001284CD0012084F880002122A3
:103C70004FF00008C4F88C80C4F884201834FDF795
:103C8000F7FB814654F8100CA687E687183CB0F580
:103C9000805F03D004E00120BDE8F883206920B1F3
:103CA0002E46002584F8808010E00026FAE7802167
:103CB000204601F0EBFEB8B9C6B116F8010B216839
:103CC0008862B4F85600401EA4F85600B4F85600B6
:103CD0004B464FF0000200970028E8D14FF040011A
:103CE000204601F0D3FE38B10320D5E735F8020BAA
:103CF0002168C0F30800E3E72020C4F88400002016
:103D0000CAE70220C8E77047FEE700003EB54FF45F
:103D10007A748DE81C000A46014602480223FDF72A
:103D2000E7FC3EBDF01700242DE9F04180461C461B
:103D300011F01F0017460E4623D0C0F12005AC42FB
:103D400009D32B46404600F025F8611B70198CB250
:103D50002F44C6B215E0404600F01CF848B912E006
:103D6000202C12D320233A463146404600F012F868
:103D700010B10020BDE8F081203C2036A4B22037ED
:103D8000F6B2002CECD10120F4E723463A46314646
:103D9000E1E700003EB54FF47A748DE81C000A4656
:103DA000014605480223FDF755FD040002D003A09B
:103DB00002F03CF820463EBDF01700244932632053
:103DC0005772697465206572726F720D0A00000087
:103DD00001688A69D243920701D400228A6200688E
:103DE0008169C943C90703D0816941F0010181613B
:103DF000704700002DE9F047044600688A464FF0FE
:103E0000000917464FF020084D464E468169C90605
:103E100048D51021C16136E0BAF1FF3F33D0FDF73C
:103E200027FBC01B504502D8BAF1000F2BD12068E8
:103E3000426894F84210836902F48042DB431B0419
:103E40001CD4B2F5804F19D0202917D0416841F415
:103E500080414160FDF70CFB07460FE0FDF708FBD2
:103E6000C01B19280AD9626C012542F02002626445
:103E700084F8418084F8429084F8409020688069FA
:103E8000C0438006EAD420688069C043800602D51A
:103E9000002DC1D003E015B92168C1F81C800125AF
:103EA00046F0040621688869C20505D54FF4807282
:103EB000CA6146F00106012541050AD52168800541
:103EC0004FF4806246F00806CA614FF0010502D443
:103ED0000AE0800507D5216801254FF4007046F0FF
:103EE0000206C86100E085B12046FFF771FF216836
:103EF000074F4A683A404A60616C3143616484F814
:103F0000418084F8429084F840902846BDE8F087CC
:103F100000E800FE2DE9F843174604461548DAB2DA
:103F2000DDE908981E4600900023204600F056F870
:103F300042464946204600F0BDF8B8B9012EFDB210
:103F400008D02068390A816242464946204600F07E
:103F5000B1F858B920688562002240214B462046BE
:103F6000CDF8008000F052F8002800D00120BDE814
:103F7000F8830000002000802DE9F843044616482D
:103F800017461E46DAB20090C3022046DDE90898C3
:103F900000F024F842464946204600F08BF8B8B9B4
:103FA000012EFDB208D02068390A81624246494696
:103FB000204600F07FF858B92068856200228021F1
:103FC0004B462046CDF8008000F020F8002800D0B5
:103FD0000120BDE8F88300000020008070B5006873
:103FE000C1F3090141EA0241074D049C19434FF412
:103FF00080664268214306EA54532B439A4321F0DA
:1040000000410A43426070BDFF63FF032DE9F041A8
:104010001D4617460E460446DDF8188008E0681C69
:1040200006D0FDF725FAA0EB0800A8420BD855B141
:104030002068806936EA000013D00020B842EED034
:104040000020BDE8F081626C002084F8400020214F
:1040500042F02002626484F8411084F8420001209A
:10406000EFE70120EAE770B516460D4604460DE07D
:10407000324629462046FFF7BDFE08B1012070BD3B
:10408000FDF7F6F9801BA84207D835B12068806992
:10409000C0438006ECD4002070BD626C002084F820
:1040A0004000202142F02002626484F8411084F82C
:1040B0004200E3E770B516460D4604460FE032466F
:1040C00029462046FFF796FE08B1012070BD681C06
:1040D00005D0FDF7CDF9801BA84207D835B120687F
:1040E0008069C0438007EAD4002070BD626C002064
:1040F00084F84000202142F02002626484F84110DC
:1041000084F84200E1E70000002202482021FDF788
:10411000A3B9000000280258012202482021FDF71F
:104120009BB900000028025801B582B000200A2186
:104130008DF804000123044801AA009102A9FFF7A9
:10414000BBF89DF804000EBD3C18002410B58AB0E1
:104150000020039004904FF4407001F0CAFD044623
:104160004FF4007001F0C5FD04EB00217AA001F0CE
:104170005DFE7F48062203A901F0D4FD9DF81120C1
:104180009DF810109DF80F008DE807009DF80E3087
:1041900078A09DF80D209DF80C1001F047FE7C489A
:1041A000042203A901F0BEFD9DF80F009DF80E301A
:1041B0009DF80D209DF80C10009076A001F036FEC1
:1041C0007948042203A901F0ADFD9DF80F009DF888
:1041D0000E309DF80D209DF80C10009073A001F09A
:1041E00025FE7748042203A901F09CFD9DF80F00ED
:1041F0009DF80E309DF80D209DF80C10009071A0D8
:1042000001F014FE7448002101F0AFFD7348102244
:1042100005A901F087FDBDF81610BDF814004ABAD3
:1042200041BA6FA001F002FEBDF81A10BDF81800E7
:104230004ABA41BA6EA001F0F9FDBDF81E10BDF8F2
:104240001C004ABA41BA6AA001F0F0FDBDF8221084
:10425000BDF820004ABA41BA68A001F0E7FD6B48FA
:10426000102205A901F05EFDBDF81610BDF814007E
:104270004ABA41BA66A001F0D9FDBDF81A10BDF8DE
:1042800018004ABA41BA5AA001F0D0FDBDF81E107C
:10429000BDF81C004ABA41BA55A001F0C7FDBDF8EF
:1042A0002210BDF820004ABA41BA54A001F0BEFD68
:1042B0005B48102205A901F035FDBDF81610BDF8C8
:1042C00014004ABA41BA57A001F0B0FDBDF81A1067
:1042D000BDF818004ABA41BA45A001F0A7FDBDF8E3
:1042E0001E10BDF81C004ABA41BA41A001F09EFD63
:1042F000BDF82210BDF820004ABA41BA3FA001F033
:1043000095FD4C48102205A901F00CFDBDF81610D2
:10431000BDF814004ABA41BA47A001F087FDBDF8C4
:104320001A10BDF818004ABA41BA31A001F07EFD5A
:10433000BDF81E10BDF81C004ABA41BA2CA001F00D
:1043400075FDBDF82210BDF820004ABA41BA2BA075
:1043500001F06CFD0AB010BD50485920564552532B
:10436000494F4E2829203D20252E3278200D0A0065
:10437000002041004D4143203A2025782E25782EFB
:1043800025782E25782E25782E25780D0A00000018
:10439000003841004950203A2025642E25642E25FE
:1043A000642E25640D0A000000344100534E203A6B
:1043B0002025642E25642E25642E25640D0A000018
:1043C000003041004757203A2025642E25642E25D1
:1043D000642E25640D0A000000F5410000704100C4
:1043E000475736203A20253034583A253034580083
:1043F0003A253034583A2530345800003A253034C4
:10440000583A253034580D0A0000000000404100A1
:104410004C4C41203A20253034583A25303458004D
:1044200000504100475541203A20253034583A2564
:10443000303458000060410053554236203A202560
:104440003034583A25303458000000002DE9F0414E
:1044500088B01C216846FBF787FF2B480024DFF853
:10446000A0801026274F03220621C0F800800225D5
:10447000C0E90174C4600123C0E904468461C461D9
:10448000046244628462C462046344638463C463F8
:10449000046402A8CDE90012002280E82A001A482C
:1044A0006946CDE90554FFF799F808B1FCF787FA9A
:1044B0001548FF220F214C301123C0E90254C0E9F6
:1044C00004468461C461046244628462C462046319
:1044D00044638463C4630464C0E900870091CDE948
:1044E0000112CDE9031600226946CDE90534FFF734
:1044F00075F8002801D0FCF762FA08B0BDE8F08139
:104500000040005204410052581700242DE9F04F9A
:1045100087B014216846FBF727FF9C48016841F4E7
:1045200080610160016801F480610591016841F0DA
:1045300040010160016801F040010591016841F00E
:1045400008010160016801F008010591016841F06E
:1045500010010160016801F010010591016841F04E
:1045600002010160016801F002010591016841F05A
:1045700001010160016801F001010591016841F04C
:1045800004010160016801F004010591016841F432
:1045900080710160016801F480710591016841F04A
:1045A00020010160016801F020010591016841F0DE
:1045B00080010160016801F080010591016841F40A
:1045C0000071016000680122DFF8C491202100F42D
:1045D000007005904846FCF73FFFDFF8B8A10022C5
:1045E00068215046FCF738FFDFF8ACB14FF4424683
:1045F000002231465846FCF72FFF4FF400776748FA
:1046000000223946FCF728FF4FF4885864480022FE
:104610004146FCF721FF634800227900FCF71CFFAC
:10462000614800227900FCF717FF604800224FF430
:104630006051FCF711FF5E4800228021FCF70CFF5F
:10464000012469462020CDE90004002002900320C7
:1046500003904846FCF7E2FD0020694610250290D1
:10466000CDE900504846FCF7D9FD68206946CDE900
:1046700000040020029003905046FCF7CFFD00207C
:1046800000954FF404156946CDE901505046FCF7FA
:10469000C5FD002000966946CDE9014003905846CB
:1046A000FCF7BCFDA0026946CDE9000500200290A0
:1046B0003A48FCF7B3FD002000976946CDE9014078
:1046C00036480394FCF7AAFD002160030A468DE8F2
:1046D000070038486946FCF7A1FD00213048CDE9C4
:1046E0000084CDE902116946FCF798FD0021A00283
:1046F000CDE90004CDE902112A486946FCF78EFD98
:10470000A0020021CDE90004CDE902142648694643
:10471000FCF784FD00214FF42050CDE90004CDE9E1
:10472000021122486946FCF779FD20030021CDE9FA
:104730000004CDE902141D486946FCF76FFD002115
:104740001C200A468DE8070017486946FCF766FDFD
:1047500000208021CDE90014CDE90200144869460B
:10476000FCF75CFD00220A201146FDF7D3F90A2070
:10477000FDF7C2F9002228201146FDF7CBF92820C9
:10478000FDF7BAF907B0BDE8F08F0000E044025829
:104790000028025800100258000402580000025875
:1047A000002002580014025800240258000C02583D
:1047B000001C0258000802581348002110B5114C83
:1047C0000123124A0460C0E90121C0E903314161BB
:1047D0008161C1610162FCF72FFF08B1FCF7EFF8BE
:1047E00009480021FCF7D2FE08B1FCF7E8F80648BA
:1047F0000021FCF7F7FE002803D0BDE81040FCF7CD
:10480000DEB810BD00540040F01700248A5E8040DE
:104810001548072270B54FF48003124D00211C018A
:10482000C0E9021201610A22C0E90053C0E905147F
:10483000C161530701624162C0E90A12C0E90D314A
:10484000C163016441648164C1640165416581653E
:10485000FEF724FC002803D0BDE87040FCF7AFB899
:1048600070BD0000003001403C18002419480021B0
:1048700010B5174C0C224FF461330460C0E90131CC
:10488000C160C0E904128161C1610162416281625B
:10489000FFF710F908B1FCF792F80E480021FEF777
:1048A00030FF08B1FCF78BF80A480021FEF703FF40
:1048B00008B1FCF784F80748FEF7DBFE08B1FCF707
:1048C0007EF8BDE81040044901220248FFF778B99C
:1048D000007C00405C1900240D000024FEE7FEE788
:1048E000704700002DE9F047454D044689464FF0DA
:1048F000000A2868C04380070AD0414E283E30682D
:1049000020F080603060FCF7B3FD0746B04608E059
:104910000120BDE8F08700BFFCF7AAFDC01B0228FC
:1049200067D8D8F800000001F6D4206829684FF451
:10493000FE0721F47C313E0241EA00302860207AF3
:10494000A389B4F804C040022D4D2D495B1E227C82
:10495000ACF1010C1035091DA0F5007080B2521E9B
:10496000CCF3080C07EA034340EA0C00184306EABC
:104970000262104328600868626920F0C00010439A
:1049800008600A68A06922F0200202430A60281D1C
:104990000A6822F010020A6002684FF6F873E469B0
:1049A0009A4342EAC40202600868B9F1000F40F07D
:1049B00010020A6011D00868B9F1010F11D040F45B
:1049C00000100860D8F80000444640F08060C8F845
:1049D0000000FCF74DFD05460DE0086840F400209E
:1049E000EFE740F48010ECE7FCF742FD401B0228A3
:1049F00001D903208DE720680001F5D5504688E7EE
:104A0000284402582DE9F047454D044689464FF0A9
:104A1000000A2868C04380070AD0414E283E30680B
:104A200020F080503060FCF723FD0746B04608E0D8
:104A30000120BDE8F08700BFFCF71AFDC01B02286B
:104A400067D8D8F800008000F6D4208829684FF491
:104A5000FE0721F07C713E0241EA00502860207A76
:104A6000A389B4F804C040022D4D2D495B1E227C61
:104A7000ACF1010C1835091DA0F5007080B2521E72
:104A8000CCF3080C07EA034340EA0C00184306EA9B
:104A90000262104328600868626920F44060104395
:104AA00008600A68A06922F4007202430A60281DA7
:104AB0000A6822F480720A6002684FF6F873E469AB
:104AC0009A4342EAC40202600868B9F1000F40F458
:104AD00080720A6011D00868B9F1010F11D040F05E
:104AE00080700860D8F80000444640F08050C8F854
:104AF0000000FCF7BDFC05460DE0086840F48000AE
:104B0000EFE740F40000ECE7FCF7B2FC401B0228A2
:104B100001D903208DE720688000F5D5504688E74D
:104B20002844025870B5224D4FF4007400222146EB
:104B30002846FCF791FC3220FCF7D4FA01222146EA
:104B40002846FCF789FC1B4C4FF48055606961696D
:104B500025EA000001F4805140EA0140A061FA20FA
:104B6000FCF7C0FA6069616925EA000001F4805130
:104B700040EA0140A061FA20FCF7B4FA606961697B
:104B800025EA000001F4805140EA0140A061FA20CA
:104B9000FCF7A8FA60696169854301F4805045EA31
:104BA0000040A061BDE87040FA20FCF79BBA00000D
:104BB000000002580020025810B5026840F26F331E
:104BC0005169946944F0080494610268946944F05E
:104BD000100494610268146824F0010414600268EF
:104BE00014699C4314610268936823F44043936002
:104BF00090F88120042A0CD08A060AD5D0F88420A7
:104C000042F08002C0F884200268936943F02003D8
:104C1000936190F88120032A0CD04A060AD5D0F877
:104C2000842042F00402C0F884200268936943F0B3
:104C3000400393618A050AD5D0F8842042F001022E
:104C4000C0F884200268936943F400739361C90536
:104C50000AD5D0F8841041F00801C0F8841001682A
:104C60008A6942F480728A610021A0F86210A0F87B
:104C70006A1010BD2DE9F041984616460D460746CC
:104C8000069C09E0FCF7F4FBA0EB0800A04202D36D
:104C9000601C01D00BE054B13868406935EA00006F
:104CA00007D00020B042EDD00020BDE8F081032005
:104CB000FBE70120F6E77047F0B532A797B033A4C1
:104CC000D7E9006731A533A036A13AA2CDE9106734
:104CD000D4E900643BA3CDE91264D5E90045CDE9F0
:104CE000144571C88DE8710033C904AE86E83300FD
:104CF00017CA08AD85E817000FCB0CAC84E80F008D
:104D000034483A2101F031F83348062210A901F065
:104D100049F832490422324801F044F82F4904226C
:104D20003048091D01F03EF82C4904222E48091F85
:104D300001F038F82D4810220CA901F033F82C4866
:104D4000102208A901F02EF82A481022694601F025
:104D500029F82948102204A901F024F814A912A85E
:104D600002F082FA0F214FF4840000F0FEFF234886
:104D7000A02100F0FAFF2248032100F0F6FF17B04F
:104D8000F0BD000048530B0011220000080202028F
:104D900002020202FE8000000000000075031B8179
:104DA000F3EE0C4E200102B8001000010208DCFFF7
:104DB000FE575725FFFFFFFFFFFFFFFF000000002A
:104DC00000000000FE80000000000000020087FFDD
:104DD000FE084C8100F5410000204100201A00240B
:104DE00000344100003041000038410000704100B3
:104DF00000604100004041000050410000014200BD
:104E000000044200FCF714BEF0B59DB04C2168468A
:104E1000FBF7AAFA202113A8FBF7A6FA0220FCF759
:104E2000ABFE244800242449026842F44042026058
:104E300002680A6842F001020A60096801F0010193
:104E40001B9101688904FCD51C4908250A680220C9
:104E50000123052722F00302921C0A604FF4A026CA
:104E60000990C021CDE90A07CDE90C10CDE90E501B
:104E7000CDE91054CDE9003668461294FDF776FE70
:104E800008B172B6FEE740201A903F210301CDE938
:104E900016500322CDE9180313AB13A883E81600BC
:104EA0000421FDF753FC002801D072B6FEE71DB0C7
:104EB000F0BD0000184802582C040058284402583D
:104EC0002C48F0B52C4A016841F47001016010686B
:104ED00000F00F00072804D2106820F00F00C01D5A
:104EE000106026490020254C10340B68244D43F0F7
:104EF00001030B6020600B682B400B60136803F00C
:104F00000F03072B04D9136823F00F03DB1D136075
:104F10001A4C1C4A18341C4B261D371D2060174C98
:104F20001A4D28343060261D3860371D23603B1D24
:104F300035601C1D3A60251D2E1D1860331D226032
:104F40002860326018600A680C4B114C22F48022F1
:104F500060330A60186020686FF30F00B0F1005FE3
:104F600003D20C490120C1F8080143F2D2000A49DA
:104F70000860F0BD88ED00E00020005200440258B7
:104F80007FEDF6EA80020101000202020000FF014B
:104F90000010005C0080005100400052074810B52E
:104FA000FEF7D8FB05480068C169C943C90604D4A7
:104FB0001021016201220248027010BD5C19002418
:104FC0000E00002430B5416EB9B101680D4B03F1FC
:104FD00008048A688968C2F34262490F5D5C615CBB
:104FE0002D01B5FBF1F1A0F86A10995CA25C0901F2
:104FF000B1FBF2F1A0F8681030BD0121A0F86A10F1
:10500000F8E700004074000890F82810C90706D09F
:105010000168C36A4A6822F400321A434A6090F871
:105020002810890706D50168036B4A6822F480328C
:105030001A434A6090F82810490706D50168436B67
:105040004A6822F480221A434A6090F8281009071F
:1050500006D50168836B4A6822F400421A434A600D
:1050600090F82810C90606D50168C36B8A6822F437
:1050700080521A438A6090F82810890606D5016884
:10508000036C8A6822F400521A438A6090F8281050
:10509000490611D50168436C4A6822F480121A430C
:1050A0004A60416CB1F5801F06D10168836C4A6883
:1050B00022F4C0021A434A6090F82810090606D567
:1050C0000168C26C486820F40020104348607047B3
:1050D000F8B500260446C0F88C60FCF7C9F905460F
:1050E00020686FF07E470068000708D500222B4635
:1050F0004FF400112046009700F0C8FC60B920680A
:10510000006840070AD500222B464FF48001204654
:10511000009700F0BBFC08B10320F8BD2020C4F8C4
:105120008400C4F88800E666002084F88060F8BD3A
:1051300010B5806B0021A0F85E10A0F85610FEF7A5
:1051400008FB10BD10B5026852E8001F21F49071F1
:1051500042E80013002BF6D10E4B0268083252E8E9
:10516000001F194042E80014002CF6D1C16E01293D
:1051700008D1026852E8001F21F0100142E8001334
:10518000002BF6D100212022C0F88820C1660167DB
:1051900010BD0000FEFFFFEF10B5D0F88810B0F88A
:1051A00060202229016804D0886940F008008861E5
:1051B00010BD496A836D11401980816D891C81651C
:1051C000B0F85E10491EA0F85E10B0F85E1000291D
:1051D000EED1026852E8001F21F4907142E80013FA
:1051E000002BF6D10168083151E8002F22F00102AE
:1051F00041E80023002BF5D12022C0F888200021AF
:10520000C26E0167012A02D0FEF704FD10BDC1661F
:10521000026852E8001F21F0100142E80013002B41
:10522000F6D10168CA69D243D20601D410220A62BB
:10523000B0F85C10FEF73DFA10BD00002DE9F04714
:1052400004460068C569D0F800A0D0F80880D4F8FA
:105250008810B4F86060222905D0816941F0080106
:105260008161BDE8F087B4F868704FF0000963E031
:105270002068A16D406A30400880A06D801CA06548
:10528000B4F85E00401EA4F85E002068C569690796
:1052900030D0E9070AD05FEACA5107D5012101627F
:1052A000D4F88C0040F00100C4F88C00A8070BD59E
:1052B0005FEAC87008D0216802200862D4F88C0028
:1052C00040F00400C4F88C0068070BD55FEAC87092
:1052D00008D0216804200862D4F88C0040F0020055
:1052E000C4F88C00D4F88C0020B12046FEF731FAC7
:1052F000C4F88C90B4F85E00F0B9216851E8000F52
:1053000020F4807041E80002002AF6D1264A206885
:10531000083050E8001F114040E80013002BF6D180
:1053200020214846C4F88810E16EC4F87090012925
:1053300023D02046FEF76EFC0FB1A80698D4B4F82F
:105340005E0000288DD0B4F86810814289D92068A9
:10535000083050E8001F21F0805140E80012002A78
:10536000F5D112482067216851E8000F40F0200075
:1053700041E80002002AF6D173E7E066216851E8AF
:10538000000F20F0100041E80002002AF6D120684A
:10539000C169C943C90601D410210162B4F85C1087
:1053A0002046FEF786F9C7E7FEFFFFEF9951000898
:1053B00010B5D0F88810B0F860202229016804D018
:1053C000886940F00800886110BD496A836D11400A
:1053D0001970816D491C8165B0F85E10491EA0F8F6
:1053E0005E10B0F85E100029EED1026852E8001F8E
:1053F00021F4907142E80013002BF6D101680831C6
:1054000051E8002F22F0010241E80023002BF5D1E2
:105410002022C0F888200021C26E0167012A02D034
:10542000FEF7F8FB10BDC166026852E8001F21F0CC
:10543000100142E80013002BF6D10168CA69D2437B
:10544000D20601D410220A62B0F85C10FEF731F9DE
:1054500010BD00002DE9F04704460068C569D0F88A
:1054600000A0D0F80880D4F88810B4F86060222931
:1054700005D0816941F008018161BDE8F087B4F889
:1054800068704FF0000963E02068A16D406A304009
:105490000870A06D401CA065B4F85E00401EA4F822
:1054A0005E002068C569690730D0E9070AD05FEA65
:1054B000CA5107D501210162D4F88C0040F00100E7
:1054C000C4F88C00A8070BD55FEAC87008D0216823
:1054D00002200862D4F88C0040F00400C4F88C006C
:1054E00068070BD55FEAC87008D0216804200862FD
:1054F000D4F88C0040F00200C4F88C00D4F88C0082
:1055000020B12046FEF725F9C4F88C90B4F85E006F
:10551000F0B9216851E8000F20F4807041E80002E2
:10552000002AF6D1264A2068083050E8001F1140B2
:1055300040E80013002BF6D120214846C4F888101B
:10554000E16EC4F87090012923D02046FEF762FB7B
:105550000FB1A80698D4B4F85E0000288DD0B4F836
:105560006810814289D92068083050E8001F21F076
:10557000805140E80012002AF5D1124820672168C6
:1055800051E8000F40F0200041E80002002AF6D167
:1055900073E7E066216851E8000F20F0100041E851
:1055A0000002002AF6D12068C169C943C90601D4A6
:1055B00010210162B4F85C102046FEF77AF8C7E7C4
:1055C000FEFFFFEFB15300082DE9F0430446806869
:1055D000D84E87B0D84B2168D4E90427D4F81CC032
:1055E00010430A68002547EA0C073843324002435B
:1055F0000A602068E268416821F44051114341602B
:105600002268A1699A4201D0206A01439768DFF8B5
:105610002CC3CB4ECB4807EA0C070F439760216899
:10562000676ACA6A22F00F023A43CA622268B2422B
:105630000ED1006800F03800182873D047DCB8B3EA
:10564000082879D010286FD178E028287ED17BE017
:10565000BD498A4209D1006800F00700062875D2CA
:10566000DFE800F0546A6C6E7072B8498A4209D162
:10567000006800F00700062868D2DFE800F0475D08
:105680005F616365B2498A4209D1006800F0070092
:1056900006285BD2DFE800F03A5052545658AD4924
:1056A0008A420BD1006800F0070006284ED200E0C5
:1056B00010E0DFE800F02B4143454749A6498A4204
:1056C0000AD1006800F03800182839D0B7DD20284A
:1056D000BBD13CE001203AE0A0498A4209D10068F0
:1056E00000F00700062831D2DFE800F01026282A53
:1056F0002C2E9B498A420BD1006800F00700062837
:1057000024D2DFE800F003191B1D1F2100201EE03A
:105710009A421BD18B48001D006800F00700062844
:1057200014D202E00CE007E010E0DFE800F003052F
:1057300007090B0D02200AE0042008E0082006E01B
:10574000102004E0202002E0402000E08020854975
:10575000DFF814829A42854A4FF400434FEA21173A
:105760004FF000064ED110281AD006DC022809D0CE
:1057700004280BD008287CD10DE020283ED04028FA
:1057800077D13DE0FCF722FA014610E06846FCF7CD
:105790002FFA01990BE003A8FCF7CCFA049906E074
:1057A0001068800605D51068C0F3C100C14000290B
:1057B00070D0606A676838F8102007EB4703B1FBC8
:1057C000F2F0834255D8B0EB073F52D80023084689
:1057D0001946FAF77FFD02467808130E120243EAD3
:1057E000012110183A4671410023FAF773FD604A0F
:1057F000A0F5407191423CD821688FE03946D8E746
:105800001946D6E7D4F81CC04FF6EF799C4546D12F
:10581000082819D005DC58B101280CD0042875D10E
:105820000DE0102815D0202835D040286ED134E066
:10583000FDF7DCF801E0FDF7EBF8014610E0684603
:10584000FCF7D6F901990BE003A8FCF773FA049969
:1058500006E01068800604D51068C0F3C100C1409E
:10586000C1B1636A606838F81330B1FBF3F14900E5
:1058700000E04BE001EB5001B1FBF0F0A0F11001B2
:10588000494543D84FF6F0732168C0F342021840EF
:10589000104343E043E03946E3E71946E1E70828CF
:1058A00019D005DC58B101280CD004282ED10DE008
:1058B000102815D020282BD0402827D12AE0FDF72A
:1058C00095F801E0FDF7A4F8014610E06846FCF702
:1058D0008FF901990BE003A8FCF72CFA049906E074
:1058E0001068800604D51068C0F3C100C140B1B192
:1058F000636A606838F81330B1FBF3F101EB5001D3
:10590000B1FBF0F0A0F11001494505D9012506E0F1
:105910003946EDE71946EBE7216880B2C8600120FF
:10592000A4F86A00A4F8680028462667666707B0EE
:10593000BDE8F083F369FFCF000C0058FFF4FF11BE
:105940000010014054440258004400400048004008
:10595000004C00400050004000140140007800401E
:10596000007C00400090D0032874000800440258D6
:10597000FFFC0F0070B58468002381654FF48055EB
:10598000A0F85C20AC42A0F85E204FF0FF01036756
:1059900004D1046904BB40F2FF111DE04FF07F0603
:1059A000C4B1B4F1805F1AD0A0F860302221C0F8F1
:1059B0008C30C0F888100168083151E8004F44F07D
:1059C000010441E80046002EF5D1416EB1F1005FBF
:1059D0000CD030E0046934B9A0F86010E6E7016942
:1059E00009B13F21F8E7A0F86060DFE7B0F8681080
:1059F000914220D88168A94201D10169C9B11F49EA
:105A00000167016980F8803041B1026852E8001FE7
:105A100041F4807142E80013002BF6D1016808318F
:105A200051E8002F42F0805241E80023002BF5D1CD
:105A300021E01349E4E78168A94201D1016979B104
:105A400010490167016980F8803059B1016851E857
:105A5000002F42F4907241E80023002BF6D10AE0B7
:105A60000949EEE7016851E8002F42F0200241E8C1
:105A70000023002BF6D1002070BD00005554000813
:105A80003D520008B1530008995100082DE9F04734
:105A90009A4617460E460446089D4FF000094FF0FF
:105AA00020084CE0681C4AD0FBF7E2FCA0EB0A009F
:105AB000A8422AD84DB32068016849073FD5C0697C
:105AC000C04300053BD421684FF4006008622168A0
:105AD00051E8000F20F4D07041E80002002AF6D10E
