:020000040800F2
:1000000048120024B1020008C9280008BB020008F9
:10001000BD02000879090008D33100080000000083
:100020000000000000000000000000000D2B000890
:100030007B09000800000000CB2800080F2B0008F7
:10004000CB020008CB020008CB020008CB0200085C
:10005000CB020008CB020008CB020008CB0200084C
:10006000CB020008CB02000885090008CB0200087B
:10007000CB020008CB020008CB020008CB0200082C
:10008000CB020008CB020008CB020008CB0200081C
:10009000CB020008CB020008CB0200088B09000845
:1000A000CB020008CB020008CB020008CB020008FC
:1000B000CB020008CB020008CB020008CB020008EC
:1000C000CB020008CB020008CB020008CB020008DC
:1000D000CB020008CB020008CB020008CB020008CC
:1000E0007D090008CB02000800000000CB020008D8
:1000F000CB020008CB020008CB020008CB020008AC
:10010000CB020008CB020008CB020008CB0200089B
:10011000CB020008CB020008CB020008CB0200088B
:10012000CB020008CB020008CB020008CB0200087B
:10013000CB020008CB020008CB020008CB0200086B
:1001400000000000000000000000000000000000AF
:10015000CB020008CB020008CB020008CB0200084B
:10016000CB020008CB020008CB020008CB0200083B
:10017000CB020008CB020008CB0200080000000000
:10018000CB020008CB020008CB020008CB0200081B
:10019000CB020008CB020008CB020008CB0200080B
:1001A000CB020008CB020008CB020008CB020008FB
:1001B000CB020008CB020008CB020008CB020008EB
:1001C000CB020008CB020008CB020008CB020008DB
:1001D000CB020008CB020008CB020008CB020008CB
:1001E000CB020008CB020008CB020008CB020008BB
:1001F000CB020008CB020008CB020008CB020008AB
:10020000CB020008CB020008CB020008CB0200089A
:10021000CB020008CB020008CB020008CB0200088A
:10022000CB020008CB020008CB020008000000004F
:10023000CB020008CB02000800000000CB0200083F
:10024000CB020008CB020008CB020008CB0200085A
:10025000CB020008CB020008CB020008CB0200084A
:10026000CB020008CB020008CB020008CB0200083A
:10027000CB020008CB020008CB02000800000000FF
:10028000CB020008CB020008CB02000800000000EF
:1002900000000000CB020008DFF810D000F04AFA9E
:1002A00000480047E93A0008AFF3008048120024F4
:1002B0000648804706480047FEE7FEE7FEE7FEE700
:1002C000FEE7FEE7FEE7FEE7FEE7FEE7152B000888
:1002D000990200082DE9F05F0546002092469B46F2
:1002E00088460646814640241BE02846414647464C
:1002F000224600F057F853465A46C01A914110D38F
:1003000011461846224600F03EF82D1A67EB010808
:100310004F4622460120002100F035F817EB000976
:100320004E41201EA4F10104DFDC484631462A4636
:100330004346BDE8F09FD2B201E000F8012B491E10
:10034000FBD270470022F6E710B513460A46044672
:100350001946FFF7F0FF204610BD30B50B460146A9
:1003600000202022012409E021FA02F59D4205D354
:1003700003FA02F5491B04FA02F52844151EA2F1FE
:100380000102F1DC30BD202A04DB203A00FA02F140
:10039000002070479140C2F1200320FA03F3194373
:1003A00090407047202A04DB203A21FA02F0002115
:1003B000704721FA02F3D040C2F120029140084375
:1003C000194670472DE9FE4F804681EA0300C00FB1
:1003D0000C46009021F0004123F00045B8EB0200EC
:1003E000A94105D24046214690461C460B4602468E
:1003F00023F00040104347D0270DC7F30A00C3F392
:100400000A510290401A019040286BDAC3F313009E
:1004100040F4801B0098924620B10023D2EB030ADF
:1004200063EB0B0B01985946C0F140025046FFF7B1
:10043000AAFF06460D4650465946019A00F08CF92F
:1004400010EB08006141002487EA115284EAE77347
:100450001A4340D0009A62B3019A012A4FEA075228
:1004600015DC001B61EB02014FF0004202EA07526B
:10047000CDE90042001C41F5801132462B4600F0C8
:100480008CF903B0BDE8F08F40462146F9E7001B28
:1004900061EB0201001C41F5801300185B4120183C
:1004A000A2F5001747EB030140EAD570B6196D417C
:1004B00011E06D084FEA360645EAC0754FEA07526B
:1004C000001B61EB0201001C41F5801149084FEA55
:1004D00030000019514132462B4603B0BDE8F04FC1
:1004E00000F04CB90098012240000023D0EB02023A
:1004F00063EBE073009821464FEAE074B8EB00002C
:1005000061EB0401E9E783F000435BE781F0004120
:1005100058E72DE9FE4F81EA030404F0004421F07E
:10052000004100944FF0000B23F0004350EA010417
:100530005ED052EA03045BD0C3F30A54C1F30A55F8
:100540002C44A4F2F3340194A0FB0254C1F3130130
:1005500041F48011C3F3130343F4801301FB0244FD
:1005600000FB034E840A970A44EA815447EA835702
:10057000A4FB076802958D0A05FB07854FEA932CBB
:1005800004FB0C542705029D4FEA065847EA16372C
:10059000B5EB08056EEB070C870E920E47EA811744
:1005A00042EA8312A7FB0201B6EB0B0164EB0004E5
:1005B0002B0D43EA0C335E1844EB1C50DA465146CF
:1005C000E7FB0201C5F313044FEA0B3343EA14536C
:1005D0004FEA0432019C43EA0603A4F10C0402949E
:1005E000009CCDE900B400F0D8F803B0BDE8F08F6E
:1005F00000200146F9E72DE9F04D81EA030404F0FB
:10060000004B21F0004514464FF0000A23F0004152
:1006100050EA050220D054EA01021DD0C5F30A5762
:100620000246C5F31303C1F31300C1F30A5640F4A5
:10063000801543F48013A7EB0608101BD64608F27A
:10064000FD3873EB050002D308F1010801E09218B0
:100650005B41B8F1000F03DA00200146BDE8F08DE0
:1006600000204FF48011064684460EE0171B73EB02
:10067000050705D3121B63EB050306434CEA010C87
:1006800049084FEA300092185B4150EA0107EDD16A
:1006900052EA030012D082EA040083EA050108430B
:1006A00005D0101BAB4106D20122002306E0002238
:1006B0004FF0004302E06FF0010253101AEB060006
:1006C0004CEB085110EB0A0041EB0B01BDE8F04D7B
:1006D00000F054B8C1F30A52C1F3130140F2FF33E2
:1006E00041F480119A4202DA00200146704740F23C
:1006F00033439A42A2F2334202DC5242FFF752BE27
:10070000FFF741BE30B5041E71F1000404DB4FF069
:100710000044404264EB0101141E73F1000405DB48
:100720001C464FF00043524263EB0403994208BF5A
:10073000904230BD064C074D06E0E06840F00103F2
:1007400094E8070098471034AC42F6D3FFF7A8FDB1
:10075000183C0008383C0008202A06DBCB17203A5A
:1007600041FA02F043EAE07306E041FA02F3D040B6
:10077000C2F12002914008431946704710B5141E7B
:1007800073F1000408DA401C41F1000192185B414A
:100790001A4301D120F0010010BD2DE9F04D924621
:1007A0009B4611B1B1FA81F202E0B0FA80F2203238
:1007B0009046FFF7E8FD04460F4640EA0A0041EA8A
:1007C0000B0153465A46084313D0114653EA010021
:1007D00019D0C8F140025046FFF7E4FD05460E4629
:1007E000504659464246FFF7CEFD084305D001204A
:1007F00004E020463946BDE8F08D0020054346EA76
:10080000E0762C4337430A986305E40AA0EB08001E
:100810000022FD0A44EA47540A3002D5002001466E
:10082000E9E7010510196941DDE908450019694149
:10083000BDE8F04DA2E700000B490C480C4A0B88BC
:1008400003800B8843800B8883800B88C3800B88D0
:1008500003810B8843810B8883810988C1811078CB
:1008600040F0010010707047003000602800002444
:10087000040000240B490C480C4A0B8803800B88A9
:1008800043800B8883800B88C3800B8803810B888F
:1008900043810B8883810988C181107840F0100062
:1008A00010707047003000603800002404000024FD
:1008B00010B5104C00224021204600F0C7FA01225A
:1008C0002046402100F0C2FA01222046402100F0DB
:1008D000BDFA01222046402100F0B8FA012220464C
:1008E000402100F0B3FA00222046BDE8104040212C
:1008F00000F0ACBA0010025870B54FF400711C4CF7
:100900001C4E024619484D10072A2DD2DFE802F08E
:100910002C0406081222270000221CE000221FE0FF
:10092000002200F093FA01222046082100F08EFAFE
:10093000012209E05FF0010200F088FA002220465F
:10094000082100F083FA002229463046BDE87040B5
:1009500000F07CBA012200F079FA0022E4E70122DB
:1009600000F074FA0122EAE70022E5E700040258E9
:100970000010025800200258FEE770474FF48060D4
:1009800000F03AB9102000F037B9402000F034B937
:1009900072B6FEE7F0B5B3F5804F05D06FF0704149
:1009A00040F822100020F0BD91E838008F898E6950
:1009B00050F8221024013343054E44EA0524234312
:1009C000314043EA07430B4340F82230EAE7000096
:1009D0000000F0CFF0B50A6850F8223023F0010390
:1009E00040F822308C68082C2CD000264A68D1E9C7
:1009F00003CE22434CEA060C01F1140342EA0C0236
:100A000042EA0E0293E8F8501A4322430C682A4344
:100A1000D1E90C35324350F824603A4342EA0C02E3
:100A2000DFF840C042EA0E028F6B13431D432F4391
:100A300026EA0C063E4340F824600A6BB2F5801F9C
:100A400002D007E04026D1E70A684AB1026842F4C2
:100A5000801202600A681AB10268496B0A43026098
:100A60000020F0BD7FFB3F00F0B58C6800EB8202F8
:100A7000D1E90036B1F80CE04FEA042C134C0D8A92
:100A800043EA06130E7D67014CEA0E4C43EA0C0361
:100A900004EB05552B438D6907EB06665768334316
:100AA0002B4307F040452B4353600268D2020BD51D
:100AB000098A4268436804EB015122F47002114331
:100AC00023F470030B4343600020F0BD0000F0FFEF
:100AD00070B5044600F0C0F90546601C02D0044819
:100AE0000078044400F0B8F9401BA042FAD370BD6E
:100AF000100000242DE9F041B6B014212FA8FFF713
:100B000021FC2D480168002952D14FF00108C0F89E
:100B10000080BC216846FFF715FC4FF08070009004
:100B200000246846119400F0A5FC08B1FFF730FFDF
:100B30002248016841F4805101600068022531AA11
:100B400000F4805034902802CDE92F0503261C487C
:100B50000C2782E8D0002FA900F05AF831AA4CF2F5
:100B60003370CDE92F0517482FA982E8D00000F097
:100B70004FF831AA4FF68370CDE92F0512482FA9FF
:100B800082E8D00000F044F8092131948020CDE9BA
:100B90003261CDE92F050D482FA900F039F831AAAF
:100BA0000B482FA982E8D000CDE92F8500F030F85E
:100BB00036B0BDE8F081000008000024D44402589B
:100BC00000180258000C0258001002580008025881
:100BD00000140258102808D0402808D0B0F5806FC3
:100BE00007D10448802100F029B9FFF725BEFFF79F
:100BF00041BE7047001C02584FF0B04110B5D1F80B
:100C00008820024203D0C1F88800FFF7E3FF10BD3F
:100C10002DE9F84F03247D4D00234FF001094FF0DB
:100C2000B04B4FF00F0AE9E009FA03F73A4076D0EB
:100C30000E7906F00306012E01D0022E18D1D0F84D
:100C400008C04FEA430ECE6804FA0EF82CEA080CEE
:100C500006FA0EF646EA0C068660D0F804C00E7955
:100C60002CEA070CC6F300169E4046EA0C064660C6
:100C70000E79F643B6070BD0C6684FEA43088F6873
:100C800004FA08FC26EA0C0607FA08F73743C7609F
:100C90000E7906F00306022E12D1DE080F694FEA24
:100CA000437C00EB8606B646366A4FEADC6C0AFAED
:100CB0000CF807FA0CF726EA08063743CEF820703E
:100CC0000F7906684FEA430807F0030704FA08FCA7
:100CD00007FA08F726EA0C06374307604E6816F451
:100CE000403F1CD04A4E376847F0020737603668ED
:100CF0009F0706F00206009623F0030606F1B046B1
:100D0000B6463F0FD6F80864DFF808810AFA07FCF8
:100D1000404526EA0C0603D14FF0000C41E06CE0A0
:100D2000DFF8F4C0604502D14FF0010C39E0DFF884
:100D3000ECC0604502D14FF0020C32E0DFF8E0C0B9
:100D4000604502D14FF0030C2BE0DFF8D8C06045BE
:100D500002D14FF0040C24E0DFF8CCC0604502D192
:100D60004FF0050C1DE0DFF8C4C0604502D14FF024
:100D7000060C16E0DFF8B8C0604502D14FF0070C52
:100D80000FE0DFF8B0C0604502D14FF0080C08E07A
:100D9000DFF8A4C0604502D14FF0090C01E04FF02C
:100DA0000A0C0CFA07FC4CEA060CCEF808C44F6893
:100DB000DBF80060FF0226EA020600D516435F4614
:100DC000CBF80060D1F804C0DBF804605FEA8C2C3B
:100DD00026EA020600D516437E606E684F6826EA52
:100DE0000206BF0300D516436E602E684F6826EAE0
:100DF0000206FF0300D516432E605B1C0A6832FA18
:100E000003F67FF411AFBDE8F88F000080000058B2
:100E1000F444025800000258000402580008025826
:100E2000000C025800100258001402580018025812
:100E3000001C02580020025800240258426921EA8E
:100E400002030A4043EA0241816170470AB18161AD
:100E500070470904FBE70000014880687047000004
:100E60001000002410B500F0B5FF0E4CB0FBF4F1FB
:100E70000DA002F0AFF900F067FFB0FBF4F117A08E
:100E800002F0A8F900F082FFB0FBF4F11FA002F01D
:100E9000A1F900F08DFFB0FBF4F1BDE8104028A0EF
:100EA00002F098B940420F005B48414C5F476574BF
:100EB0005F4350555F5243435F436C6F636B5D48C4
:100EC000414C5F5243435F537973436C6F636B468E
:100ED0007265713A25644D487A0D0A005B48414CB1
:100EE0005F4765745F4350555F5243435F436C6F88
:100EF000636B5D48414C5F5243435F48434C4B46F4
:100F00007265713A25644D487A0D0A005B48414C80
:100F10005F4765745F4350555F5243435F436C6F57
:100F2000636B5D48414C5F5243435F50434C4B31D0
:100F3000467265713A25644D487A0D0A000000003A
:100F40005B48414C5F4765745F4350555F52434374
:100F50005F436C6F636B5D48414C5F5243435F502E
:100F6000434C4B32467265713A25644D487A0D0AFE
:100F70000000000030B590F84120202A24D190F8DC
:100F80004020012A20D0012380F84030242280F81C
:100F90004120202300240268156825F00105156012
:100FA0000268156825F480551560026815680D43C0
:100FB000156001680A6842F001020A6080F8413059
:100FC00080F84040002030BD022030BD30B590F8A0
:100FD0004120202A22D190F84020012A1ED001234E
:100FE00080F84030242280F8412020240025026827
:100FF000136823F0010313600268136823F470631D
:1010000043EA0121116001680A6842F001020A60A6
:1010100080F8414080F84050002030BD022030BDB3
:1010200070B5040004D094F84100002510B106E02A
:10103000012070BD204684F8405000F04DF8242077
:1010400084F841002068016821F001010160D4E9C1
:10105000001020F0706008612068816821F4004170
:101060008160E06821680128A06806D040F404404F
:101070008860E068022803D006E040F40040F7E70B
:1010800021684FF40060486020212068114A4368BD
:10109000134343602068C26822F40042C26054F8DF
:1010A000106B0DCC104340EA0320F06054F81C3C58
:1010B000D4E900021043186054F81C0D026842F095
:1010C00001020260656484F84110256384F842508F
:1010D000002070BD0080000210B5B6B00446142197
:1010E0002FA8FFF72FF9BC216846FFF72BF9184905
:1010F0002068884229D10820009000246846209466
:1011000000F0B8F908B1FFF743FC1248016841F05C
:101110000201016000682FAB122100F00200349040
:101120004FF4C070042283E813000B482FA9CDE9C7
:101130003242FFF76DFD07480830016841F40011A5
:101140000160006800F40010349036B010BD00005B
:1011500000540040E04402580004025802488168EC
:10116000027811448160704710000024002809DBD8
:10117000410900F01F028900012001F1E0219040A7
:10118000C1F80001704700000E4BF0B41B680D461B
:10119000C3F30223C3F10706042E00D90426191D48
:1011A000072901D2002300E0DB1E012404FA06F126
:1011B0009C40491E2940641E994014402143F0BCC4
:1011C00002F018B80CED00E010B500F0BDFD0549C7
:1011D0000968054AC1F30211515C01F01F01C840C2
:1011E00010BD000020440258083C0008494930B5B1
:1011F000484C0B1D0A68143409681D68246802F005
:101200000303C5F30012C1F30531C4F3CC04002974
:1012100014FB02F200EE102AF8EE400A75D03F4AA5
:101220009FED3D1AB7EE000A6BB1DFED3D1A012BC1
:1012300001D0022B64D002EE101A1168F8EE422A97
:1012400081EEA22A21E0334C283C23689B0612D56C
:10125000344B246801EE901A1168C4F3C104F8EE0F
:10126000612AE34001EE903AC1F30801F8EE611AF9
:1012700081EEA22A0BE001EE901ADFED2B2A00BFCF
:10128000F8EE611A116882EEA12AC1F3080101EE9D
:10129000901A1168F8EE611A40EE811A71EE800A18
:1012A00062EE200AC1F3462101EE101AB8EE411A8F
:1012B00031EE001AC0EE811ABCEEE11A80ED001A80
:1012C0001168C1F3064101EE101AB8EE411A31EE71
:1012D000001AC0EE811ABCEEE11A80ED011A116805
:1012E000C1F3066101EE101AB8EE411A31EE000AA0
:1012F00080EE801ABCEEC10A80ED020A30BD04E027
:1013000001EE901ADFED092ABAE700210160416081
:101310008160F3E72844025800000039384402583D
:101320000024744A0090D0030024744C20BCBE4BAF
:10133000494930B5484C0B1D0A681C3409681D68C2
:10134000246802F00303C5F30022C1F30551C4F37E
:10135000CC04002914FB02F200EE102AF8EE400A39
:1013600075D03F4A9FED3D1AB7EE000A6BB1DFED35
:101370003D1A012B01D0022B64D002EE101A116825
:10138000F8EE422A81EEA22A21E0334C283C236861
:101390009B0612D5344B246801EE901A1168C4F3F1
:1013A000C104F8EE612AE34001EE903AC1F308016E
:1013B000F8EE611A81EEA22A0BE001EE901ADFED41
:1013C0002B2A00BFF8EE611A116882EEA12AC1F340
:1013D000080101EE901A1168F8EE611A40EE811AC8
:1013E00071EE800A62EE200AC1F3462101EE101A66
:1013F000B8EE411A31EE001AC0EE811ABCEEE11AC5
:1014000080ED001A1168C1F3064101EE101AB8EE22
:10141000411A31EE001AC0EE811ABCEEE11A80EDDD
:10142000011A1168C1F3066101EE101AB8EE411AF3
:1014300031EE000A80EE801ABCEEC10A80ED020A8D
:1014400030BD04E001EE901ADFED092ABAE7002171
:10145000016041608160F3E72844025800000039D0
:10146000404402580024744A0090D0030024744C75
:1014700020BCBE4B2DE9FC5F044650F8241B002520
:1014800000902E460801FE4FDFF8F8831DD5606EF0
:1014900050B1B0F5801F0CD0B0F5001F0ED0B0F5E4
:1014A000401F1DD001250FE0386840F4003038603F
:1014B00016E00221201D01F009FA03E00098022144
:1014C00001F094FA05000BD02E462088C00523D5E4
:1014D000606D05281ED2DFE800F00C11161B1B0002
:1014E000626ED8F8001021F440111143C8F80010C2
:1014F000EBE7386840F40030386009E00021201D37
:1015000001F0E4F903E00098002101F06FFA0546CC
:101510006DB100E001252E462088800528D5A06DFC
:1015200080281ED00CDC90B140280ED114E0626DF2
:10153000D8F8001021F007011143C8F80010EBE7BC
:10154000C02813D0B0F5807F10D001250FE0386897
:1015500040F40030386009E00021201D01F0B6F9A8
:1015600003E00098002101F041FA054695B12E46AE
:101570002088DFF81093400509F108092CD5D4F82C
:10158000A400B0F5800F20D00DDCA0B1B0F5001F95
:101590000FD115E0A26DD8F8001021F4E0711143CD
:1015A000C8F80010E4E7B0F5C00F13D0B0F5000F95
:1015B00010D001250FE0386840F40030386009E0B1
:1015C0000021201D01F082F903E00098002101F0C4
:1015D0000DFA054675B12E46208800052DD5D4F8A4
:1015E000A800B0F1007F21D00EDCA8B1B0F1807F5F
:1015F00010D116E0D4F8A420D9F8001021F460012D
:101600001143C9F80010E7E7B0F1407F13D0B0F103
:10161000806F10D001250FE0386840F4003038604A
:1016200009E00021201D01F051F903E0009800219C
:1016300001F0DCF905466DB12E46206880011FD50A
:10164000A06CD8B110280FD0202812D0302815D087
:10165000012514E0D4F8A820D9F8001021F0E061A9
:101660001143C9F80010E8E7386840F400303860EA
:1016700004E00221201D01F029F905466DB12E4636
:101680002088C0042BD5E06DB0F5005F20D00DDCC4
:10169000A0B1B0F5805F0FD115E07A48A26C001FB1
:1016A000016821F0300111430160E9E7B0F5405FC6
:1016B00013D0B0F5804F10D001250FE0386840F40A
:1016C0000030386009E00021201D01F0FFF803E040
:1016D0000098002101F08AF9054685B12E46208840
:1016E000800429D5206EB0F5403F23D010DC08B32C
:1016F000B0F5803F14D0B0F5003F0FD115E0E26D9A
:10170000D8F8001021F4E0411143C8F80010E6E7D2
:10171000B0F5802F0ED0B0F5A02F0BD001250AE038
:101720000121201D01F0D2F803E00098012101F011
:101730005DF905468DB12E46208840042AD5D4F89F
:10174000AC00B0F1405F23D010DC08B3B0F1805F93
:1017500014D0B0F1005F0FD115E0226ED8F8001060
:1017600021F4E0211143C8F80010E5E7B0F1804F03
:101770000ED0B0F1A04F0BD001250AE00121201DB1
:1017800001F0A4F803E00098012101F02FF90546CB
:101790006DB12E46208800041FD5E06ED8B1B0F19F
:1017A000805F0ED0B0F1005F10D0012514E0D4F8B6
:1017B000AC20D9F8001021F0E0411143C9F8001025
:1017C000E8E7386840F40030386004E00121201D6B
:1017D00001F07CF805466DB12E462068C0011ED58B
:1017E000606CD0B101280ED0022811D0032814D08B
:1017F000012513E0E26ED8F8001021F040511143AA
:10180000C8F80010E9E7386840F40030386004E0B8
:101810000221201D01F05AF8054685B12E462068A8
:10182000DFF85CB04002ABF11C0B57D516480168DD
:1018300041F480710160FFF70FFB82460EE0114812
:10184000626C001F016821F0030111430160E6E7AB
:10185000FFF702FBA0EB0A0064283DD80A480068A5
:10186000C005F5D57DBBDFF81CA0B4F8B0200AF1A7
:10187000200ADAF8001002F4407001F4407105E02B
:101880002C4402585044025800480258814211D05A
:10189000DAF80010DAF8002021F4407142F48032C6
:1018A000CAF80020DAF8002022F48032CAF80020BA
:1018B000CAF80010D4F8B000B0F5807F21D1FFF74E
:1018C000CBFA019019E008E0FFF7C6FA0199411A36
:1018D00041F28830814210D903252E462078DFF866
:1018E00044A4C0073DD0A06F182838D026DC80B3B0
:1018F000082829D0102825D12CE0DAF8000080072C
:10190000E2D5D4F8B010C1F30120032858460DD019
:10191000016821F47C510160B4F8B020DAF80010BD
:10192000C2F30B021143CAF80010D7E7FE4A03685E
:1019300002EA111223F47C511143ECE720280ED067
:1019400028280CD001250BE00121201D00F0BEFF4E
:1019500004E004E00098012101F048F805465DB17B
:101960002E46207880071ED5606F062819D2DFE842
:1019700000F0160C11161616A26FDAF8001021F0FE
:1019800038011143CAF80010EBE70121201D00F0D7
:101990009DFF03E00098012101F028F8054675B18C
:1019A00000E001252E46207840071FD5D4F890008E
:1019B000062819D2DFE800F0160C11161616626F11
:1019C000DAF8001021F007011143CAF80010EAE725
:1019D0000121201D00F07AFF03E00098012101F0B1
:1019E00005F805469DB100E001252E4620788006C9
:1019F0002BD5D4F88C00B0F1405F24D011DC10B3AB
:101A0000B0F1805F15D0B0F1005F10D116E0D4F8CE
:101A10009020D9F8001021F007011143C9F80010F7
:101A2000E4E7B0F1804F0ED0B0F1A04F0BD001250C
:101A30000AE00021201D00F049FF03E00098022188
:101A400000F0D4FF05468DB12E46207840062BD5F8
:101A5000D4F89800B0F5406F24D011DC10B3B0F585
:101A6000806F15D0B0F5006F10D116E0D4F88C203F
:101A7000DAF8001021F0E0411143CAF80010E4E761
:101A8000B0F5805F0ED0B0F5A05F0BD001250AE065
:101A90000021201D00F01AFF03E00098022100F051
:101AA000A5FF05468DB12E46207800062BD5D4F82B
:101AB0009C00B0F5C04F24D011DC10B3B0F5005F2E
:101AC00015D0B0F5804F10D116E0D4F89820D9F891
:101AD000001021F4E0511143C9F80010E4E7B0F51B
:101AE000004F0ED0B0F5204F0BD001250AE00021A9
:101AF000201D00F0EBFE03E00098022100F076FFCD
:101B000005464DB12E46207800071ED5D4F880003A
:101B1000B0F5805F0AD00FE0D4F89C20D9F800100F
:101B200021F460411143C9F80010ECE7009802214C
:101B300000F05CFF00B10126D4F88020DAF8001034
:101B400021F440511143CAF800102078C00613D583
:101B5000D4F89400B0F5807F05D10098022100F000
:101B600045FF00B10126D4F89420D9F8001021F4E3
:101B700040711143C9F800102068000316D5D4F84D
:101B8000A00038B1B0F5803F09D0B0F5003F0BD0D0
:101B900001250AE00021201D00F098FE03E00098D6
:101BA000022100F023FF054685B12E462068400340
:101BB00022D5D4F88400B0F5801F11D0B0F5001FF5
:101BC00013D0B0F5401F15D0012514E0D4F8A020A3
:101BD000D9F8001021F440311143C9F80010E5E7AD
:101BE000386840F40030386004E00098012100F0CB
:101BF000FDFE054655B12E462068C0031CD5E06C9D
:101C000070B1B0F5803F10D0012514E0D4F88420E5
:101C1000DAF8001021F440111143CAF80010EBE784
:101C2000386840F40030386004E00221201D00F0E4
:101C30004DFE0546CDB12E462068800005D50098A2
:101C4000022100F0D3FE00B10126206880031BD5DD
:101C5000E06FB8B1B0F5807F10D0B0F5007F11D043
:101C6000B0F5407F0ED001250DE02E48E26C08381B
:101C7000016821F4803111430160DDE7386840F4E8
:101C800000303860F5B32E462068C00207D5226FB9
:101C9000D8F8001021F000411143C8F80010206866
:101CA000C00008D5D4F8B420DBF8001021F480413E
:101CB0001143CBF800102068800207D5A26ED8F837
:101CC000001021F080711143C8F800102068400016
:101CD0000CD5DBF8001021F40041CBF80010DBF844
:101CE0000010D4F8B8201143CBF800102068002869
:101CF00007DA0C48226D0838016821F04051114381
:101D0000016000E014E02068000208D5D4F88820C3
:101D1000DAF8001021F440011143CAF8001086B12E
:101D2000012003E054440258CFFFFF00BDE8FC9FB0
:101D3000E26FDAF8001021F440711143CAF8001084
:101D4000A2E70020EDE7000030B500F043F80B4AB1
:101D50000B490C4B15681468C5F3032204F00F04FB
:101D60008A5C095D02F01F0201F01F01D040064AA3
:101D700020FA01F119601060084630BD184402587D
:101D8000083C0008200000241C00002400B5FFF7D8
:101D9000DBFF05490968054AC1F30211515C01F0F6
:101DA0001F01C84000BD00001C440258083C000848
:101DB00000B5FFF7C9FF05490968054AC1F30221CB
:101DC000515C01F01F01C84000BD00001C440258D6
:101DD000083C0008454970B545480968434B103B2D
:101DE00011F0380208D00111082A03D0102A0BD0B4
:101DF000182A0BD0084670BD19688906FBD51968EA
:101E0000C1F3C101C84070BD3A4870BD3749374D74
:101E100018310C1D24350A68096826682D6802F0FF
:101E2000030406F00102C1F30511C5F3CC0515FB4F
:101E300002F200EE102AB8EE400AE9B32F4ADFEDB5
:101E40002E0AB7EE001A6CB1DFED2D1A012C01D06D
:101E5000022C43D002EE101A1068F8EE422A81EEEE
:101E6000A22A1EE01C68A40611D51B6801EE901A78
:101E70001168C3F3C103F8EE612AD84001EE900A5D
:101E8000C1F30800F8EE611A81EEA22A0BE001EE20
:101E9000901ADFED1C2A00BFF8EE611A106882EE7E
:101EA000A12AC0F3080001EE900AF8EE611A40EE94
:101EB000201A31EE810A00E015E022EE000A1068D7
:101EC000C0F34620401C00EE900AF8EE600A80EE57
:101ED000201ABCEEC10A10EE100A70BD01EE901A75
:101EE000DFED092AD8E7002070BD00001044025839
:101EF0000090D00340787D01000000393044025842
:101F00000024744A0024744C20BCBE4B2DE9F047D9
:101F1000040029D0504A4FF0000920684F4B504D23
:101F20009042C4F8289006D0984204D0A84202D02B
:101F3000E1680F2918D8E1684FF0010AE76B083112
:101F4000C9080AEB57167143904205D0984203D056
:101F5000A84201D0082907D8904203D0984201D066
:101F6000A84204D1102902D90120BDE8F08794F8D5
:101F7000810020B9204684F8809000F073F8022098
:101F800084F881002068016821F001010160216866
:101F9000A0698A68B0F1806F02F4F81010D162680D
:101FA000B2F5800F01D01AB10AE0A26B22B107E0AE
:101FB000A26BB2F1805F03D10A6842F480520A60DA
:101FC000A66AE169E26B25683143E3680243114385
:101FD0001943A960D4E90D02D4E90571636A256942
:101FE0001843D4F820C00A43266810432843A56D3F
:101FF0003843D4E90182D4E9123140EA0C0040EAC6
:1020000008000843104318432843F060606868B92B
:102010002068816821F4C05141F40061816020682A
:10202000816821F4C06141F4806181602068016DA4
:1020300021F0010101656068400206D52068626DEB
:10204000C16821F000411143C160C4F8849084F854
:1020500081A0002089E700000030014000380040E6
:10206000003C00402DE9F041B6B0044614212FA8F1
:10207000FEF768F9BC216846FEF764F92649206836
:10208000884245D102A94FF080080224C0220623CD
:1020900081E81C00002505940526089580141790FA
:1020A000CDE90685CDE900066846FFF7E3F908B1FA
:1020B000FEF76EFC1948016841F480510160006828
:1020C00000F48050349015481038016841F0020146
:1020D0000160016801F002013491016841F00801DA
:1020E000016000682FA90327339600F008003490A0
:1020F000182081E8B1000A48FEF78AFD30AACDF821
:10210000BC8033962FA9074882E8B000FEF780FD17
:1021100036B0BDE8F081000000300140F0440258C4
:1021200000040258000C025870B5040015460E4613
:1021300003D094F8450010B107E0012070BD0020E5
:1021400084F84400204600F025F8206804F10801D6
:10215000FEF740FCA26831462068FEF785FCE36A82
:102160002946D4E90102FEF715FCA1680123206885
:10217000074A50F8215045F0010540F821501068F9
:1021800040F00040106084F84530002070BD000031
:1021900000400052FEF7AEBC30B590F88010012927
:1021A00018D0012280F880202421C0F88410002259
:1021B000202450F8641B0B680D6823F0005325F0B1
:1021C00001050D60026050F8641C0B600462027728
:1021D000104630BD022030BD70B5044690F8800036
:1021E00001281DD0012284F880202420C4F8840016
:1021F00020680568026822F0010202602068826897
:1022000022F060620A438260204600F0F1FC2268FE
:10221000202100201560C4F8841084F8800070BD6F
:10222000022070BD70B5044690F8800001281DD0D2
:10223000012284F880202420C4F8840020680568E6
:10224000026822F0010202602068826822F0604287
:102250000A438260204600F0CBFC22682021002047
:102260001560C4F8841084F8800070BD022070BD31
:1022700010B5040003D0D4F8840010B107E00120A9
:1022800010BD002084F88000204600F027F82420AC
:10229000C4F884002068016821F001010160204633
:1022A00000F05CFD0128EBD0A06A10B1204600F0E0
:1022B000C1FC2068416821F4904141602068816838
:1022C00021F02A0181602068016841F0010101606C
:1022D0002046BDE8104000F011BD000030B5B5B09B
:1022E000044614212FA8FEF72DF8BC216846FEF7FE
:1022F00029F817492068884228D102256846002419
:1023000000951D94FFF7B6F808B1FEF741FB1148A0
:10231000016841F000410160006800F00040349025
:102320000C480838016841F4007101600068082118
:10233000CDE9305400F400703490CDE932414FF4CF
:1023400040702F9004482FA9FEF762FC35B030BDD5
:10235000007C0040E8440258002402582DE9F8436C
:102360000446D0F884001F4616460D46202852D158
:10237000DDB1D6B194F8800001284CD0012084F85A
:10238000800021224FF00008C4F88C80C4F884201B
:102390001834FEF761FD814654F8100CA687E687D5
:1023A000183CB0F5805F03D004E00120BDE8F8835D
:1023B000206920B12E46002584F8808010E0002698
:1023C000FAE78021204600F09FFEB8B9C6B116F8A2
:1023D000010B21688862B4F85600401EA4F856002C
:1023E000B4F856004B464FF0000200970028E8D1A1
:1023F0004FF04001204600F087FE38B10320D5E7BA
:1024000035F8020B2168C0F30800E3E72020C4F888
:1024100084000020CAE70220C8E700002DE9F0414F
:1024200088B01C216846FDF78DFF2B480024DFF89B
:10243000A0801026274F03220621C0F80080022525
:10244000C0E90174C4600123C0E904468461C46129
:10245000046244628462C462046344638463C46348
:10246000046402A8CDE90012002280E82A001A487C
:102470006946CDE90554FFF757FE08B1FEF788FA23
:102480001548FF220F214C301123C0E90254C0E946
:1024900004468461C461046244628462C462046369
:1024A00044638463C4630464C0E900870091CDE998
:1024B0000112CDE9031600226946CDE90534FFF784
:1024C00033FE002801D0FEF763FA08B0BDE8F081C2
:1024D0000040005204410052480000242DE9F04F12
:1024E00087B014216846FDF72DFFA548016841F427
:1024F00080610160016801F480610591016841F02B
:1025000040010160016801F040010591016841F05E
:1025100008010160016801F008010591016841F0BE
:1025200010010160016801F010010591016841F09E
:1025300002010160016801F002010591016841F0AA
:1025400001010160016801F001010591016841F09C
:1025500004010160016801F004010591016841F482
:1025600080710160016801F480710591016841F09A
:1025700020010160016801F020010591016841F02E
:1025800080010160016801F080010591016841F45A
:102590000071016000680122DFF8E8A1202100F449
:1025A000007005905046FEF751FCDFF8DCB10022C8
:1025B00068215846FEF74AFC4FF442477348002210
:1025C0003946FEF743FC4FF400787148002241463B
:1025D000FEF73CFC4FF488596E4800224946FEF74E
:1025E00035FC6D4800224FF48061FEF72FFC6B48EC
:1025F00000224FF48061FEF729FC694800224FF465
:102600006051FEF723FC674800228021FEF71EFC84
:10261000012469462020CDE9000400200290032017
:1026200003905046FEF7F4FA4FF404156946402033
:10263000CDE90005002002905448FEF7E9FA002099
:10264000694610260290CDE900605046FEF7E0FA98
:1026500068206946CDE900040020029003905846A6
:10266000FEF7D6FA002000966946CDE9015058469B
:10267000FEF7CEFA002000976946CDE901400390AD
:102680004248FEF7C5FAA0026946CDE900050020E0
:1026900002903F48FEF7BCFA0020CDF80080694662
:1026A000CDE901403A480394FEF7B2FA00216003F5
:1026B0000A468DE807003C486946FEF7A9FA002162
:1026C0003448CDE90094CDE902116946FEF7A0FA3D
:1026D0000021A002CDE90004CDE902112E4869468F
:1026E000FEF796FAA0020021CDE90004CDE902141C
:1026F0002A486946FEF78CFA00214FF42050CDE9B4
:102700000004CDE9021126486946FEF781FA20034C
:102710000021CDE90004CDE9021421486946FEF705
:1027200077FA00211C200A468DE807001B486946FD
:10273000FEF76EFA00208021CDE90014CDE90200F9
:1027400018486946FEF764FA00220A201146FEF78F
:102750001BFD0A20FEF70AFD002217201146FEF796
:1027600013FD1720FEF702FD002228201146FEF778
:102770000BFD2820FEF7FAFC07B0BDE8F08F000043
:10278000E044025800280258001002580004025881
:102790000000025800200258001402580024025879
:1027A000000C0258001C025800080258134800216F
:1027B00010B5114C0123124A0460C0E90121C0E99F
:1027C000033141618161C1610162FEF729FC08B1F9
:1027D000FEF7DEF809480021FEF7CCFB08B1FEF752
:1027E000D7F806480021FEF7F1FB002803D0BDE82A
:1027F0001040FEF7CDB810BD00540040E0000024AA
:10280000B17570301548072270B50021124E4FF493
:102810008003C0E902121D010161C0E90063DC010F
:102820000A22C0E90515C0E9074141625307C0E922
:102830000A12C0E90D31C163016441648164C1645D
:10284000016541658165FFF761FB002803D0BDE8A4
:102850007040FEF79DB870BD003001402C0100248F
:102860001848002110B5164C0C224FF46133046057
:10287000C0E90131C160C0E904128161C161016236
:1028800041628162FFF7F4FC08B1FEF781F80D4860
:102890000021FFF7C7FC08B1FEF77AF809480021CC
:1028A000FFF79AFC08B1FEF773F80648FFF774FCCF
:1028B000002803D0BDE81040FEF76AB810BD000044
:1028C000007C0040B4010024FEE770472DE9F0478A
:1028D000454D044689464FF0000A2868C0438007EA
:1028E0000AD0414E283E306820F080603060FEF70C
:1028F000B3FA0746B04608E00120BDE8F08700BF04
:10290000FEF7AAFAC01B022867D8D8F80000000119
:10291000F6D4206829684FF4FE0721F47C313E028A
:1029200041EA00302860207AA389B4F804C040024C
:102930002D4D2D495B1E227CACF1010C1035091D7B
:10294000A0F5007080B2521ECCF3080C07EA0343D6
:1029500040EA0C00184306EA026210432860086847
:10296000626920F0C000104308600A68A06922F084
:10297000200202430A60281D0A6822F010020A6041
:1029800002684FF6F873E4699A4342EAC4020260AF
:102990000868B9F1000F40F010020A6011D0086811
:1029A000B9F1010F11D040F400100860D8F8000010
:1029B000444640F08060C8F80000FEF74DFA054636
:1029C0000DE0086840F40020EFE740F48010ECE7E9
:1029D000FEF742FA401B022801D903208DE7206848
:1029E0000001F5D5504688E7284402582DE9F04704
:1029F000454D044689464FF0000A2868C0438007C9
:102A00000AD0414E283E306820F080503060FEF7FA
:102A100023FA0746B04608E00120BDE8F08700BF72
:102A2000FEF71AFAC01B022867D8D8F80000800009
:102A3000F6D4208829684FF4FE0721F07C713E020D
:102A400041EA00502860207AA389B4F804C040020B
:102A50002D4D2D495B1E227CACF1010C1835091D52
:102A6000A0F5007080B2521ECCF3080C07EA0343B5
:102A700040EA0C00184306EA026210432860086826
:102A8000626920F44060104308600A68A06922F47B
:102A9000007202430A60281D0A6822F480720A60EC
:102AA00002684FF6F873E4699A4342EAC40202608E
:102AB0000868B9F1000F40F480720A6011D008680C
:102AC000B9F1010F11D040F080700860D8F8000013
:102AD000444640F08050C8F80000FEF7BDF90546B6
:102AE0000DE0086840F48000EFE740F40000ECE7F8
:102AF000FEF7B2F9401B022801D903208DE72068B8
:102B00008000F5D5504688E7284402587047FEF704
:102B100025BB00002C48F0B52C4A016841F4700137
:102B20000160106800F00F00072804D2106820F040
:102B30000F00C01D106026490020254C10340B6882
:102B4000244D43F001030B6020600B682B400B60A9
:102B5000136803F00F03072B04D9136823F00F0346
:102B6000DB1D13601A4C1C4A18341C4B261D371DE4
:102B70002060174C1A4D28343060261D3860371DF0
:102B800023603B1D35601C1D3A60251D2E1D1860FD
:102B9000331D22602860326018600A680C4B114CAB
:102BA00022F4802260330A60186020686FF30F00FF
:102BB000B0F1005F03D20C490120C1F8080143F2D3
:102BC000D2000A490860F0BD88ED00E00020005204
:102BD000004402587FEDF6EA800201010002020281
:102BE0000000FF010010005C008000510040005216
:102BF00030B5416EB9B101680D4B03F108048A6824
:102C00008968C2F34262490F5D5C615C2D01B5FBCE
:102C1000F1F1A0F86A10995CA25C0901B1FBF2F134
:102C2000A0F8681030BD0121A0F86A10F8E7000094
:102C3000F83B000890F82810C90706D00168C36A5D
:102C40004A6822F400321A434A6090F82810890733
:102C500006D50168036B4A6822F480321A434A6041
:102C600090F82810490706D50168436B4A6822F49A
:102C700080221A434A6090F82810090706D5016897
:102C8000836B4A6822F400421A434A6090F8281085
:102C9000C90606D50168C36B8A6822F480521A43BC
:102CA0008A6090F82810890606D50168036C8A6846
:102CB00022F400521A438A6090F82810490611D570
:102CC0000168436C4A6822F480121A434A60416CDE
:102CD000B1F5801F06D10168836C4A6822F4C002F6
:102CE0001A434A6090F82810090606D50168C26C9C
:102CF000486820F40020104348607047F8B500266B
:102D00000446C0F88C60FEF7A7F8054620686FF00F
:102D10007E470068000708D500222B464FF40011BB
:102D20002046009700F0F0F960B92068006840077D
:102D30000AD500222B464FF480012046009700F070
:102D4000E3F908B10320F8BD2020C4F88400C4F8DA
:102D50008800E666002084F88060F8BD2DE9F04325
:102D600004468068D84E87B0D84B2168D4E9042740
:102D7000D4F81CC010430A68002547EA0C07384302
:102D8000324002430A602068E268416821F4405101
:102D9000114341602268A1699A4201D0206A01432F
:102DA0009768DFF82CC3CB4ECB4807EA0C070F43DC
:102DB00097602168676ACA6A22F00F023A43CA62C2
:102DC0002268B2420ED1006800F03800182873D093
:102DD00047DCB8B3082879D010286FD178E02828CC
:102DE0007ED17BE0BD498A4209D1006800F007002E
:102DF000062875D2DFE800F0546A6C6E7072B8492C
:102E00008A4209D1006800F00700062868D2DFE88E
:102E100000F0475D5F616365B2498A4209D100688D
:102E200000F0070006285BD2DFE800F03A50525469
:102E30005658AD498A420BD1006800F007000628B9
:102E40004ED200E010E0DFE800F02B414345474957
:102E5000A6498A420AD1006800F03800182839D003
:102E6000B7DD2028BBD13CE001203AE0A0498A42EE
:102E700009D1006800F00700062831D2DFE800F031
:102E80001026282A2C2E9B498A420BD1006800F07C
:102E90000700062824D2DFE800F003191B1D1F21BC
:102EA00000201EE09A421BD18B48001D006800F0F4
:102EB0000700062814D202E00CE007E010E0DFE88B
:102EC00000F0030507090B0D02200AE0042008E0CA
:102ED000082006E0102004E0202002E0402000E06E
:102EE00080208549DFF814829A42854A4FF40043D6
:102EF0004FEA21174FF000064ED110281AD006DCF9
:102F0000022809D004280BD008287CD10DE0202805
:102F10003ED0402877D13DE0FEF756F9014610E05B
:102F20006846FEF763F901990BE003A8FEF700FA83
:102F3000049906E01068800605D51068C0F3C1004A
:102F4000C140002970D0606A676838F8102007EB2C
:102F50004703B1FBF2F0834255D8B0EB073F52D89C
:102F6000002308461946FDF7B5F902467808130E06
:102F7000120243EA012110183A4671410023FDF77D
:102F8000A9F9604AA0F5407191423CD821688FE0D0
:102F90003946D8E71946D6E7D4F81CC04FF6EF7982
:102FA0009C4546D1082819D005DC58B101280CD021
:102FB000042875D10DE0102815D0202835D04028E0
:102FC0006ED134E0FEF7E2FE01E0FEF7F1FE0146CD
:102FD00010E06846FEF70AF901990BE003A8FEF736
:102FE000A7F9049906E01068800604D51068C0F3BC
:102FF000C100C140C1B1636A606838F81330B1FBE9
:10300000F3F1490000E04BE001EB5001B1FBF0F0BF
:10301000A0F11001494543D84FF6F0732168C0F381
:1030200042021840104343E043E03946E3E71946C3
:10303000E1E7082819D005DC58B101280CD0042894
:103040002ED10DE0102815D020282BD0402827D1D4
:103050002AE0FEF79BFE01E0FEF7AAFE014610E023
:103060006846FEF7C3F801990BE003A8FEF760F984
:10307000049906E01068800604D51068C0F3C1000A
:10308000C140B1B1636A606838F81330B1FBF3F145
:1030900001EB5001B1FBF0F0A0F11001494505D959
:1030A000012506E03946EDE71946EBE7216880B2D5
:1030B000C8600120A4F86A00A4F8680028462667C2
:1030C000666707B0BDE8F083F369FFCF000C0058D6
:1030D000FFF4FF1100100140544402580044004026
:1030E00000480040004C00400050004000140140E7
:1030F00000780040007C00400090D003E03B0008D6
:1031000000440258FFFC0F002DE9F0479A4617468D
:103110000E460446089D4FF000094FF020084CE091
:10312000681C4AD0FDF798FEA0EB0A00A8422AD8F6
:103130004DB32068016849073FD5C069C043000509
:103140003BD421684FF400600862216851E8000F09
:1031500020F4D07041E80002002AF6D1206808303F
:1031600050E8001F21F0010140E80012002AF5D1CB
:10317000C4F8848084F88090C4F88880C4F88C8077
:103180000320BDE8F087206850E8001F21F4D071CB
:1031900040E80012002AF6D12068083050E8001FED
:1031A00021F0010140E80012002AF5D1C4F8848022
:1031B00084F88090C4F88880E2E72068C06936EA25
:1031C000000004D00020B842AAD00020D9E7012096
:1031D000F9E7FEE70FB4054B10B503A9044A0298BE
:1031E00000F0EAF810BC5DF814FB0000D13A0008CA
:1031F00024000024090700284FEA116104DB00F1D4
:10320000E02080F80014704700F00F0000F1E0208B
:1032100080F8141D704702E008C8121F08C1002A78
:10322000FAD170477047002001E001C1121F002A47
:10323000FBD170472DE9FF5F82B00021DDE904304A
:10324000020DDDF840B0034318D044F61050A2F24E
:10325000FF3242431514119801281FD0A5EB0B0033
:10326000401C5FEA000A4FF000064E4FDFF838912D
:10327000B046504615D5CAF1000413E01198012458
:103280004AA3012801D16FEA0B010298119AC0E903
:103290000031C0E9024206B0BDE8F09FCBF100006A
:1032A000DFE704460021404A491842EB0450CDE9CB
:1032B000001012E0E00707D032463B464046494640
:1032C000FDF727F98046894632463B4610461946A7
:1032D000FDF71FF906460F466410002CEAD1DDE920
:1032E0000401DDE90023BAF1000F06DAFDF711F958
:1032F00042464B46FDF70DF905E0FDF77CF94246E5
:103300004B46FDF778F904460E460022284BFDF7A0
:10331000F9F903D84FF0FF30014607E00022254BB2
:1033200020463146FDF74EF8FDF7D4F9102409E0A8
:10333000002C0ADB0A220023FCF7CCFF039B30326F
:103340001A55641E50EA0102F2D1641C039AC4F1BA
:1033500011031444119A012A03D0012208430DD10C
:103360000AE0084304D000204FF0110B119072E7DF
:10337000A3EB0B056D1E0DE05B4504DD4FF0000275
:1033800005F1010504E003DA4FF00002A5F10105A3
:10339000002AECD002981199C0E90231C0E9004539
:1033A00079E70000000014400000F03F300000000A
:1033B0000000F0430000E03F2DE9FF4F95B09A4632
:1033C000884606460025EEE1252877D100242746C9
:1033D000F94A0121039400E0044316F8013F203B21
:1033E00001FA03F01042F7D130782A2811D06FF09B
:1033F0002F033078A0F13002092A16D8039A44F03E
:10340000020402EB820203EB42021044761C03909A
:10341000EFE758F8042B0392002A03DA504244F4F1
:103420000054039044F00204761C30782E2816D104
:1034300016F8010F44F004042A280DD06FF02F0273
:103440003078A0F13003092B09D807EB870302EB92
:103450004303C718761CF3E758F8047B761C3078D2
:103460006C280FD006DC4C2817D068280DD06A28AD
:1034700014D104E0742810D07A280FD10DE044F460
:1034800000140AE044F4801401E044F4401472781B
:10349000824202D104F58014761C761C30786628AE
:1034A0000BD013DC582877D009DC002875D04528CC
:1034B000F6D04628F4D047281AD193E118E06328C3
:1034C00035D0642879D0652812D18BE1702873D06B
:1034D00008DC6728F1D069286FD06E280DD06F28DE
:1034E00006D1ACE073282CD0752874D0782853D03E
:1034F0005246179990476D1C54E1C4F302500228BC
:1035000009D003280DD0D8F8001004280DD00D6084
:1035100008F1040846E1D8F80010EA17C1E90052A2
:10352000F6E7D8F800100D80F2E70D70F0E718F814
:10353000041B8DF8001000208DF80100EB460120DF
:1035400003E058F804BB4FF0FF3061074FF0000173
:1035500002D40DE009F101018946B9420FDA814533
:10356000F8DB1BF809100029F4D108E009F101018A
:1035700089468142FADB1BF809100029F6D103982D
:103580005346A0EB090721463846179A00F080FA07
:10359000284400EB090507E044E008E10DE01BF8D2
:1035A000010B524617999047B9F10109F7D25346DA
:1035B00021463846179AF2E039E00A21C4F3025254
:1035C0004FF0000B0091022A06D058F8040BC117E7
:1035D000032A09D00AE023E008F1070020F00702DF
:1035E000F2E80201904605E000B2C117042A01D1B9
:1035F00040B2C117002906DA0A460021404261EBB9
:1036000002012D2202E0220504D52B228DF8042090
:10361000012203E0E20701D02022F7E7914657E0BC
:103620000A2100E010214FF0000B00910BE0102167
:103630004FF0000B44F004040827009103E0082039
:103640004FF0000B0090C4F30252022A05D058F844
:10365000040B0021032A08D008E008F1070020F03D
:103660000702F2E80201904603E080B2042A00D18A
:10367000C0B24FF0000922072AD53278702A07D04D
:10368000DDF800C08CF0100C5CEA0B0C05D00EE0ED
:1036900040228DF80420012208E050EA010306D000
:1036A00030238DF804308DF8052002229146009BCE
:1036B00083F0080353EA0B030AD150EA010201D157
:1036C000620705D530228DF804204FF001097F1ED6
:1036D0003278582A04D039A20C920CAA02920BE03C
:1036E0003BA2F9E75B46009AFCF7F4FD0C9B9B5C60
:1036F000029A521E0292137050EA0102F2D102980D
:1037000004A9081A00F1200B600702D524F48034C4
:1037100000E001275F4502DDA7EB0B0000E0002081
:1037200000EB0B01009003984944401A0390E0031A
:1037300006D453462146179A039800F0A9F9054488
:10374000002706E001A85246C05D179990476D1CFE
:103750007F1C4F45F6DBE0030CD553462146179AF4
:10376000039800F095F9054404E03020524617997B
:1037700090476D1C0099481E00900029F5DC08E078
:103780000298029952460078491C02911799904775
:103790006D1CBBF10001ABF1010BF1DC5BE100F052
:1037A00065F90544761C307800287FF40DAE19B019
:1037B0002846BDE8F08F000009280100303132337F
:1037C000343536373839616263646566000000005D
:1037D0003031323334353637383941424344454647
:1037E00000000000600700D4062708F1070020F061
:1037F0000700F0E80223804603F0004C5FEA0C006B
:1038000001D097A009E0200501D596A005E0E007CA
:1038100001D095A001E0AFF24C001390307823F076
:10382000004365280CD006DC452809D046281DD069
:1038300047287FD13BE0662818D067287AD136E048
:103840000021112F01DB112000E0781CCDE90001DF
:1038500004A90CA8FFF7EEFCDDE90D010C9A4FF06E
:10386000000B07F10109109200914EE04FF000406B
:103870000097CDE9011004A90CA8FFF7DBFCDDE9F6
:103880000D020C9B0F994FF0000B91461093009284
:1038900011B9791C00EB0109B7EB090003D4C0F1A1
:1038A000FF3B07F10109A9EB0700019042E0012F5E
:1038B00000DA01270021112F01DD112000E0384638
:1038C000CDE9000104A90CA8FFF7B4FCDDE90D0166
:1038D0000C9A00914FF0000BB946109221070FD4BB
:1038E000009A4A4503DA914601E0A9F10109B9F1CC
:1038F000010F05DD109AA9F10101515C3029F4D0C6
:10390000B84202DA10F1040F03DA0121CDE9011007
:1039100010E0002803DC8344A9EB000102E0411C15
:10392000494500DD8946A0EB0B00401C01904FF09B
:1039300000400290200705D40198484502DB4FF073
:10394000FF30019000208DF84B0002980DF14B07DD
:10395000B0F1004F25D002200C902B200D90029842
:1039600000280CDA404202902D200D9007E00A2139
:103970000298FCF7F2FC3031029007F8011D0C9917
:10398000481E0C900029F2DC02980028EFD1791E25
:103990000D980870307800F0200040F0450007F8DE
:1039A000020D11A8C01BC01D02901398007800B131
:1039B000012000EB0901019801EBE071029801443C
:1039C0000398401A401E0390E00306D45346214654
:1039D000179A039800F05CF805441398007818B122
:1039E0005246179990476D1CE00323D55346214654
:1039F000179A039800F04CF805441BE0BBF1000F48
:103A000007DB0098584504DD1098179910F80B0053
:103A100001E0179930205246904701980BF1010BB5
:103A2000401E05F10105019004D12E205246179940
:103A300090476D1CB9F10001A9F10109DEDC05E038
:103A400017F8010B5246179990476D1C0299481EB2
:103A500002900029F4DC53462146179A03989EE60B
:103A60002D0000002B000000200000002DE9F04197
:103A7000044600251E461746880404D405E039464E
:103A80002020B0476D1C641EF9D52846BDE8F081A2
:103A90002DE9F041044600251E469046C80301D595
:103AA000302700E02027880404D505E04146384649
:103AB000B0476D1C641EF9D52846BDE8F081002092
:103AC00010B5FCF719FFBDE81040FCF7F1BE00008F
:103AD00013B504480A2301226946FEF73FFC00980B
:103AE0001CBD0000B4010024FEF7F8FCFEF796FCB4
:103AF000FEF788FEFEF75AFEFEF7B2FEFDF7B2F9BA
:103B0000FFF7DDFF012222489102FDF79FF96420B3
:103B1000FCF7DEFFDFF87C804FF480571E4E1F4D10
:103B20000A20FCF7D5FF0022394644464046FDF7FF
:103B30008DF90A20FCF7CCFF012239462046FDF71B
:103B400085F930781128EBD11548002131700168D2
:103B5000491C016013A0FFF73DFB002415A021467E
:103B600035F81420FFF736FB641CE4B2072CF5D9B6
:103B70005FF0000414A0214635F81420FFF72AFB5B
:103B8000641CE4B2072CF5D914A0FFF723FBC7E7A8
:103B900000140258002002580400002428000024C9
:103BA0000000002441445F636F756E743D25640D11
:103BB0000A00000041445F415F6461745B25645DFD
:103BC0003A307825780D0A0041445F425F646174A1
:103BD0005B25645D3A307825780D0A000D0A0000F7
:103BE000010002000400060008000A000C0010009A
:103BF00020004000800000010101010307010000D6
:103C0000080402040801010100000000010203048D
:103C10000102030406070809383C000800000024DC
:103C20002800000016320008603C0008280000242C
:103C300020120000263200080000000000000000F2
:103C40000000000000000000010000001000000063
:103C5000000000000090D0030090D003000000009E
:040000050800029954
:00000001FF
