:020000040800F2
:10000000A822002439030008512F00085B040008CF
:100010005B0400089D0800085F3A0008000000002B
:100020000000000000000000000000009531000802
:100030009F08000800000000A7030008973100088F
:100040005303000853030008530300085303000838
:100050005303000853030008530300085303000828
:100060005303000853030008A908000853030008BD
:100070005303000853030008530300085303000808
:1000800053030008530300085303000853030008F8
:10009000530300085303000853030008AF08000887
:1000A00053030008530300085303000853030008D8
:1000B00053030008530300085303000853030008C8
:1000C00053030008530300085303000853030008B8
:1000D00053030008530300085303000853030008A8
:1000E000A1080008530300080000000053030008A3
:1000F0005303000853030008530300085303000888
:100100005303000853030008530300085303000877
:100110005303000853030008530300085303000867
:100120005303000853030008530300085303000857
:100130005303000853030008530300085303000847
:1001400000000000000000000000000000000000AF
:100150005303000853030008530300085303000827
:100160005303000853030008530300085303000817
:100170005303000853030008530300080000000065
:1001800053030008530300085303000853030008F7
:1001900053030008530300085303000853030008E7
:1001A00053030008530300085303000853030008D7
:1001B00053030008530300085303000853030008C7
:1001C00053030008530300085303000853030008B7
:1001D00053030008530300085303000853030008A7
:1001E0005303000853030008530300085303000897
:1001F0005303000853030008530300085303000887
:100200005303000853030008530300085303000876
:100210005303000853030008530300085303000866
:1002200053030008530300085303000800000000B4
:1002300053030008530300080000000053030008A4
:100240005303000853030008530300085303000836
:100250005303000853030008530300085303000826
:100260005303000853030008530300085303000816
:100270005303000853030008530300080000000064
:100280005303000853030008530300080000000054
:10029000000000005303000800F002F800F03CF8F2
:1002A0000AA090E8000C82448344AAF10107DA45D1
:1002B00001D100F031F8AFF2090EBAE80F0013F0E7
:1002C000010F18BFFB1A43F001031847EC5E000052
:1002D0000C5F0000103A24BF78C878C1FAD85207E2
:1002E00024BF30C830C144BF04680C6070470000B0
:1002F0000023002400250026103A28BF78C1FBD82F
:10030000520728BF30C148BF0B6070471FB505F0CA
:1003100026FD1FBD10B510BD00F082FA1146FFF793
:10032000F5FF00F0B6FA00F0A0FA03B4FFF7F2FF11
:1003300003BC00F0A7FA00000948804709480047BD
:10034000FEE7FEE7FEE7FEE7FEE7FEE7FEE7FEE785
:10035000FEE7FEE704480549054A064B70470000E2
:10036000A133000899020008A80E0024A822002446
:10037000A8120024A8120024EFF3108072B6704770
:1003800080F310887047434A1368012B04D04FF064
:1003900001031360404A1060404A116040484FF02A
:1003A000805101607047EFF3108272B639480168DE
:1003B00051B34FF0000101603748016891B1EFF38C
:1003C00009811EF0100F08BF21ED108B21E9F00FFD
:1003D0004FF000041EF0100F08BF012441F8044D37
:1003E000006801602D490968096808C9B1E8F00F83
:1003F000002B18BFB1EC108B81F309884EF0100E62
:10040000002B18BF2EF0100E82F310884EF0040E51
:10041000704722490860EFF3148222F0040282F34D
:1004200014881D494FF0000008601A494FF0010080
:1004300008601C484FF47F01D0F8002041EA020117
:10044000016017484FF0805101601748006800684C
:1004500080F3088861B662B670471EF0040F0CBFC7
:10046000EFF30880EFF3098020E9F00F40F804ED86
:1004700040F804ED1EF0040F0CBF80F3088880F3F1
:10048000098800B504F0DCFC5DF804EB4EF0040EC6
:1004900070470000440000243C0000244000002479
:1004A00004ED00E020ED00E008ED00E053EA020C6E
:1004B00000F069802DE9F04B4FF00006002B1FBFC4
:1004C000B3FA83F503FA05F424FA05F65E4012BF89
:1004D0001643B2FA82F502FA05F4C5F120051EBFF3
:1004E00022FA05FC44EA0C04203556EA044C4FEA93
:1004F000144418BF641C4FF000084FF000099042EC
:1005000071EB030C39D3002919BFB1FA81F701FA55
:1005100007F6B0FA80F700FA07F6C7F120071EBF0A
:1005200020FA07FC46EA0C062037B6FBF4FCA7EBE2
:100530000507103F07F01F0BCBF120060CFA0BFB51
:100540002CFA06F644BFB3460026202FA4BF5E4611
:100550004FF0000B5BEA060C08BF4FF0010B19EBE4
:100560000B09ABFB027C48EB0608C01B06FB02CC68
:100570000BFB03CC71EB0C01C1E70B460246414675
:100580004846BDE8F08B13B54FF000004FF0000176
:10059000AFF30080BDE81C40704740EA010302460B
:1005A00030B59B0710D14FF0013400E008C208C9F4
:1005B0001D1B9D4315EAC41FF8D013F0FF0102F87C
:1005C000011B0DD01B0AF8E711F8013B002B02F8C4
:1005D000013B05D011F8013B002B02F8013BF3D1A0
:1005E00030BD10B5431C02E010F8011B71B181074A
:1005F000FAD14FF0013202C88C1A8C4314EAC211AE
:10060000F9D0C01A0A0603D0C01E10BDC01A10BD12
:100610000A0401D0801E10BD0902FCD0401E10BD8E
:1006200040EA010370B59B072ED14FF00136042A32
:100630002AD308C810C99D1B9D43121F15EAC61571
:1006400017D0D8B2E1B2401A50EA056110D198B281
:10065000A1B2401A50EA05410AD123F07F4024F0AC
:100660007F41401A50EA052102D1180EA0EB146018
:1006700070BDA342DBD018BA21BA884201D901204B
:1006800070BD4FF0FF3070BD0AB9002070BD10F88A
:10069000013B11F8014B63B1A3420AD1521E08D0AD
:1006A00010F8013B11F8014B1BB1A34201D1521EBE
:1006B000EDD1181B70BD421E12F8013F002BFBD17B
:1006C00011F8013B002B02F8013BF9D1704710B53E
:1006D000203AC0F00B80B1E81850203AA0E818503A
:1006E000B1E81850A0E81850BFF4F5AF5FEA027CFB
:1006F00024BFB1E81850A0E8185044BF18C918C06A
:10070000BDE810405FEA827C24BF51F8043B40F80A
:10071000043B08BF7047D20728BF31F8023B48BFEF
:1007200011F8012B28BF20F8023B48BF00F8012B2D
:1007300070474FF000020429C0F0128010F0030C43
:1007400000F01B80CCF1040CBCF1020F18BF00F8C4
:10075000012BA8BF20F8022BA1EB0C0100F00DB873
:100760005FEAC17C24BF00F8012B00F8012B48BFD1
:1007700000F8012B70474FF0000200B51346944675
:100780009646203922BFA0E80C50A0E80C50B1F1E9
:100790002001BFF4F7AF090728BFA0E80C5048BFFD
:1007A0000CC05DF804EB890028BF40F8042B08BF9B
:1007B000704748BF20F8022B11F0804F18BF00F897
:1007C000012B704710B5044610F0030F08BF11F05D
:1007D000030F40F015804FF0013E121FC0F20E8053
:1007E00051F8043BA3EB0E0C2CEA030C1CEACE1CC4
:1007F00008BF40F8043BF0D0A1F1040102F104026B
:10080000521E08DB11F8013B002B00F8013BF7D129
:100810001146FFF78EFF204610BD704770477047A6
:10082000754600F02BF8AE4605006946534620F0A9
:100830000700854618B020B5FFF78CFDBDE82040C5
:100840004FF000064FF000074FF000084FF0000B8C
:1008500021F00701AC46ACE8C009ACE8C009ACE83F
:10086000C009ACE8C0098D46704710B50446AFF327
:1008700000802046BDE81040FFF757BD0048704794
:10088000480E002401491820ABBEFEE726000200F6
:10089000704710B505F0AEF9002010BDFEE77047B7
:1008A0004FF4806000F017B9102000F014B9402018
:1008B00000F011B972B6FEE7F0B5B3F5804F05D080
:1008C0006FF0704140F822100020F0BD91E8380030
:1008D0008F898E6950F8221024013343054E44EA73
:1008E00005242343314043EA07430B4340F82230B9
:1008F000EAE700000000F0CFF0B50A6850F82230B7
:1009000023F0010340F822308C68082C2CD00026FC
:100910004A68D1E903CE22434CEA060C01F11403E4
:1009200042EA0C0242EA0E0293E8F8501A432243CC
:100930000C682A43D1E90C35324350F824603A431D
:1009400042EA0C02DFF840C042EA0E028F6B13430A
:100950001D432F4326EA0C063E4340F824600A6BF1
:10096000B2F5801F02D007E04026D1E70A684AB1FD
:10097000026842F4801202600A681AB10268496B88
:100980000A4302600020F0BD7FFB3F00F0B58C6899
:1009900000EB8202D1E90036B1F80CE04FEA042CFA
:1009A000134C0D8A43EA06130E7D67014CEA0E4C88
:1009B00043EA0C0304EB05552B438D6907EB0666F0
:1009C000576833432B4307F040452B43536002687D
:1009D000D2020BD5098A4268436804EB015122F424
:1009E0007002114323F470030B4343600020F0BDF9
:1009F0000000F0FF2DE9F041B6B014212FA8FFF759
:100A0000BAFE2D480168002952D14FF00108C0F804
:100A10000080BC216846FFF7AEFE4FF0807000906A
:100A200000246846119400F09BFC08B1FFF742FFD8
:100A30002248016841F4805101600068022531AA12
:100A400000F4805034902802CDE92F0503261C487D
:100A50000C2782E8D0002FA900F04AF831AA4CF206
:100A60003370CDE92F0517482FA982E8D00000F098
:100A70003FF831AA4FF68370CDE92F0512482FA910
:100A800082E8D00000F034F8092131948020CDE9CB
:100A90003261CDE92F050D482FA900F029F831AAC0
:100AA0000B482FA982E8D000CDE92F8500F020F86F
:100AB00036B0BDE8F081000000000024D4440258A4
:100AC00000180258000C0258001002580008025882
:100AD0000014025870474FF0B04110B5D1F888208B
:100AE000024203D0C1F88800FFF7F4FF10BD0000F8
:100AF0002DE9F84F03247D4D00234FF001094FF0FD
:100B0000B04B4FF00F0AE9E009FA03F73A4076D00C
:100B10000E7906F00306012E01D0022E18D1D0F86E
:100B200008C04FEA430ECE6804FA0EF82CEA080C0F
:100B300006FA0EF646EA0C068660D0F804C00E7976
:100B40002CEA070CC6F300169E4046EA0C064660E7
:100B50000E79F643B6070BD0C6684FEA43088F6894
:100B600004FA08FC26EA0C0607FA08F73743C760C0
:100B70000E7906F00306022E12D1DE080F694FEA45
:100B8000437C00EB8606B646366A4FEADC6C0AFA0E
:100B90000CF807FA0CF726EA08063743CEF820705F
:100BA0000F7906684FEA430807F0030704FA08FCC8
:100BB00007FA08F726EA0C06374307604E6816F472
:100BC000403F1CD04A4E376847F00207376036680E
:100BD0009F0706F00206009623F0030606F1B046D2
:100BE000B6463F0FD6F80864DFF808810AFA07FC1A
:100BF000404526EA0C0603D14FF0000C41E06CE0C2
:100C0000DFF8F4C0604502D14FF0010C39E0DFF8A5
:100C1000ECC0604502D14FF0020C32E0DFF8E0C0DA
:100C2000604502D14FF0030C2BE0DFF8D8C06045DF
:100C300002D14FF0040C24E0DFF8CCC0604502D1B3
:100C40004FF0050C1DE0DFF8C4C0604502D14FF045
:100C5000060C16E0DFF8B8C0604502D14FF0070C73
:100C60000FE0DFF8B0C0604502D14FF0080C08E09B
:100C7000DFF8A4C0604502D14FF0090C01E04FF04D
:100C80000A0C0CFA07FC4CEA060CCEF808C44F68B4
:100C9000DBF80060FF0226EA020600D516435F4635
:100CA000CBF80060D1F804C0DBF804605FEA8C2C5C
:100CB00026EA020600D516437E606E684F6826EA73
:100CC0000206BF0300D516436E602E684F6826EA01
:100CD0000206FF0300D516432E605B1C0A6832FA39
:100CE00003F67FF411AFBDE8F88F000080000058D4
:100CF000F444025800000258000402580008025848
:100D0000000C025800100258001402580018025833
:100D1000001C025800200258002402580AB18161C8
:100D200070470904FBE7000001480068000C7047A9
:100D30000010005C01488068704700000800002433
:100D400030B590F84120202A24D190F84020012A83
:100D500020D0012380F84030242280F84120202335
:100D600000240268156825F0010515600268156801
:100D700025F480551560026815680D4315600168FB
:100D80000A6842F001020A6080F8413080F8404071
:100D9000002030BD022030BD30B590F84120202A1F
:100DA00022D190F84020012A1ED0012380F8403043
:100DB000242280F84120202400250268136823F0B3
:100DC000010313600268136823F4706343EA01218E
:100DD000116001680A6842F001020A6080F841402F
:100DE00080F84050002030BD022030BD70B50400B6
:100DF00004D094F84100002510B106E0012070BD38
:100E0000204684F8405000F04DF8242084F841003A
:100E10002068016821F001010160D4E9001020F090
:100E2000706008612068816821F400418160E06899
:100E300021680128A06806D040F404408860E0687A
:100E4000022803D006E040F40040F7E721684FF4A1
:100E50000060486020212068114A436813434360C2
:100E60002068C26822F40042C26054F8106B0DCCB6
:100E7000104340EA0320F06054F81C3CD4E900021F
:100E80001043186054F81C0D026842F00102026021
:100E9000656484F84110256384F84250002070BDD9
:100EA0000080000210B5B6B0044614212FA8FFF749
:100EB00062FCBC216846FFF75EFC18492068884246
:100EC00029D10820009000246846209400F048FAB8
:100ED00008B1FFF7EFFC1248016841F00201016020
:100EE00000682FAB122100F0020034904FF4C07064
:100EF000042283E813000B482FA9CDE93242FFF703
:100F0000F7FD07480830016841F4001101600068EE
:100F100000F40010349036B010BD000000540040C2
:100F2000E044025800040258032010B500F086F88F
:100F300000F0F4FF0F4A104914681368C4F3032249
:100F400003F00F038A5CC95C02F01F0201F01F016D
:100F5000D0400A4A20FA01F11160094908600020D6
:100F600000F010F808B1012010BD00F02BF80020AF
:100F700010BD000018440258905D000818000024BD
:100F80001400002470B50D4D04462878A0B14FF42C
:100F90007A71B1FBF0F00A490968B1FBF0F001F099
:100FA00033FC48B9102C07D200222146501E00F015
:100FB00025F800206C6070BD012070BD0800002481
:100FC00014000024054808B5016841F002010160E1
:100FD000006800F00200009008BD0000F4440258D0
:100FE000002809DB410900F01F028900012001F1FE
:100FF000E0219040C1F80001704700000E4BF0B4B2
:101000001B680D46C3F30223C3F10706042E00D963
:101010000426191D072901D2002300E0DB1E01244C
:1010200004FA06F19C40491E2940641E9940144070
:101030002143F0BC02F014BD0CED00E0064900F0C5
:10104000070210B54FF6FF040868044B204040EA41
:1010500002201843086010BD0CED00E00000FA0506
:10106000134970B50A68D243520705D5096801F0E3
:101070000701814213D118E00A6822F007020243F7
:101080000A60FFF757FE0A4D4FF47A760446083D92
:1010900007E000BFFFF74EFE001BB04201D9012060
:1010A00070BD2868C0438004F4D4002070BD0000E7
:1010B0000C48025810B500F0EBFE05490968054AD6
:1010C000C1F30211515C01F01F01C84010BD0000C6
:1010D00020440258905D0008494930B5484C0B1D2A
:1010E0000A68143409681D68246802F00303C5F314
:1010F0000012C1F30531C4F3CC04002914FB02F241
:1011000000EE102AF8EE400A75D03F4A9FED3D1AD6
:10111000B7EE000A6BB1DFED3D1A012B01D0022BB7
:1011200064D002EE101A1168F8EE422A81EEA22A6B
:1011300021E0334C283C23689B0612D5344B2468AD
:1011400001EE901A1168C4F3C104F8EE612AE3407D
:1011500001EE903AC1F30801F8EE611A81EEA22A7D
:101160000BE001EE901ADFED2B2A00BFF8EE611ABA
:10117000116882EEA12AC1F3080101EE901A1168EC
:10118000F8EE611A40EE811A71EE800A62EE200AD2
:10119000C1F3462101EE101AB8EE411A31EE001AE1
:1011A000C0EE811ABCEEE11A80ED001A1168C1F39D
:1011B000064101EE101AB8EE411A31EE001AC0EEE7
:1011C000811ABCEEE11A80ED011A1168C1F30661C3
:1011D00001EE101AB8EE411A31EE000A80EE801AC4
:1011E000BCEEC10A80ED020A30BD04E001EE901AA7
:1011F000DFED092ABAE70021016041608160F3E771
:101200002844025800000039384402580024744A27
:101210000090D0030024744C20BCBE4B494930B52B
:10122000484C0B1D0A681C3409681D68246802F0CC
:101230000303C5F30022C1F30551C4F3CC04002914
:1012400014FB02F200EE102AF8EE400A75D03F4A75
:101250009FED3D1AB7EE000A6BB1DFED3D1A012B91
:1012600001D0022B64D002EE101A1168F8EE422A67
:1012700081EEA22A21E0334C283C23689B0612D53C
:10128000344B246801EE901A1168C4F3C104F8EEDF
:10129000612AE34001EE903AC1F30801F8EE611AC9
:1012A00081EEA22A0BE001EE901ADFED2B2A00BF9F
:1012B000F8EE611A116882EEA12AC1F3080101EE6D
:1012C000901A1168F8EE611A40EE811A71EE800AE8
:1012D00062EE200AC1F3462101EE101AB8EE411A5F
:1012E00031EE001AC0EE811ABCEEE11A80ED001A50
:1012F0001168C1F3064101EE101AB8EE411A31EE41
:10130000001AC0EE811ABCEEE11A80ED011A1168D4
:10131000C1F3066101EE101AB8EE411A31EE000A6F
:1013200080EE801ABCEEC10A80ED020A30BD04E0F6
:1013300001EE901ADFED092ABAE700210160416051
:101340008160F3E728440258000000394044025805
:101350000024744A0090D0030024744C20BCBE4B7F
:101360002DE9FC5F044650F8241B002500902E4612
:101370000801FE4FDFF8F8831DD5606E50B1B0F55F
:10138000801F0CD0B0F5001F0ED0B0F5401F1DD04F
:1013900001250FE0386840F40030386016E0022183
:1013A000201D01F0D7FD03E00098022101F062FE4C
:1013B00005000BD02E462088C00523D5606D05287A
:1013C0001ED2DFE800F00C11161B1B00626ED8F86D
:1013D000001021F440111143C8F80010EBE7386801
:1013E00040F40030386009E00021201D01F0B2FD1A
:1013F00003E00098002101F03DFE05466DB100E0DC
:1014000001252E462088800528D5A06D80281ED075
:101410000CDC90B140280ED114E0626DD8F80010B9
:1014200021F007011143C8F80010EBE7C02813D0E2
:10143000B0F5807F10D001250FE0386840F400300F
:10144000386009E00021201D01F084FD03E00098D0
:10145000002101F00FFE054695B12E462088DFF8E9
:101460001093400509F108092CD5D4F8A400B0F573
:10147000800F20D00DDCA0B1B0F5001F0FD115E01A
:10148000A26DD8F8001021F4E0711143C8F80010E3
:10149000E4E7B0F5C00F13D0B0F5000F10D0012570
:1014A0000FE0386840F40030386009E00021201D6A
:1014B00001F050FD03E00098002101F0DBFD05463E
:1014C00075B12E46208800052DD5D4F8A800B0F1BE
:1014D000007F21D00EDCA8B1B0F1807F10D116E0E2
:1014E000D4F8A420D9F8001021F460011143C9F800
:1014F0000010E7E7B0F1407F13D0B0F1806F10D05B
:1015000001250FE0386840F40030386009E0002120
:10151000201D01F01FFD03E00098002101F0AAFD4D
:1015200005466DB12E46206880011FD5A06CD8B14C
:1015300010280FD0202812D0302815D0012514E013
:10154000D4F8A820D9F8001021F0E0611143C9F8BF
:101550000010E8E7386840F40030386004E0022109
:10156000201D01F0F7FC05466DB12E462088C00411
:101570002BD5E06DB0F5005F20D00DDCA0B1B0F54B
:10158000805F0FD115E07A48A26C001F016821F03E
:10159000300111430160E9E7B0F5405F13D0B0F5C9
:1015A000804F10D001250FE0386840F400303860DB
:1015B00009E00021201D01F0CDFC03E0009800218E
:1015C00001F058FD054685B12E462088800429D5B6
:1015D000206EB0F5403F23D010DC08B3B0F5803F5B
:1015E00014D0B0F5003F0FD115E0E26DD8F800102F
:1015F00021F4E0411143C8F80010E6E7B0F5802F70
:101600000ED0B0F5A02F0BD001250AE00121201D3E
:1016100001F0A0FC03E00098012101F02BFD05463C
:101620008DB12E46208840042AD5D4F8AC00B0F104
:10163000405F23D010DC08B3B0F1805F14D0B0F16C
:10164000005F0FD115E0226ED8F8001021F4E021E0
:101650001143C8F80010E5E7B0F1804F0ED0B0F1AB
:10166000A04F0BD001250AE00121201D01F072FCE2
:1016700003E00098012101F0FDFC05466DB12E4606
:10168000208800041FD5E06ED8B1B0F1805F0ED085
:10169000B0F1005F10D0012514E0D4F8AC20D9F8E7
:1016A000001021F0E0411143C9F80010E8E7386864
:1016B00040F40030386004E00121201D01F04AFCB4
:1016C00005466DB12E462068C0011ED5606CD0B1B4
:1016D00001280ED0022811D0032814D0012513E0D0
:1016E000E26ED8F8001021F040511143C8F8001004
:1016F000E9E7386840F40030386004E00221201D3A
:1017000001F028FC054685B12E462068DFF85CB064
:101710004002ABF11C0B57D51648016841F48071AB
:101720000160FFF707FB82460EE01148626C001F64
:10173000016821F0030111430160E6E7FFF7FAFABF
:10174000A0EB0A0064283DD80A480068C005F5D51A
:101750007DBBDFF81CA0B4F8B0200AF1200ADAF84B
:10176000001002F4407001F4407105E02C4402586E
:101770005044025800480258814211D0DAF8001053
:10178000DAF8002021F4407142F48032CAF80020D7
:10179000DAF8002022F48032CAF80020CAF80010DB
:1017A000D4F8B000B0F5807F21D1FFF7C3FA0190E3
:1017B00019E008E0FFF7BEFA0199411A41F28830BA
:1017C000814210D903252E462078DFF844A4C007B3
:1017D0003DD0A06F182838D026DC80B3082829D047
:1017E000102825D12CE0DAF800008007E2D5D4F8E3
:1017F000B010C1F30120032858460DD0016821F430
:101800007C510160B4F8B020DAF80010C2F30B028A
:101810001143CAF80010D7E7FE4A036802EA111222
:1018200023F47C511143ECE720280ED028280CD05B
:1018300001250BE00121201D01F08CFB04E004E0F8
:101840000098012101F016FC05465DB12E46207876
:1018500080071ED5606F062819D2DFE800F0160C4D
:1018600011161616A26FDAF8001021F03801114394
:10187000CAF80010EBE70121201D01F06BFB03E02B
:101880000098012101F0F6FB054675B100E0012545
:101890002E46207840071FD5D4F89000062819D28C
:1018A000DFE800F0160C11161616626FDAF8001059
:1018B00021F007011143CAF80010EAE70121201DB9
:1018C00001F048FB03E00098012101F0D3FB05463D
:1018D0009DB100E001252E46207880062BD5D4F856
:1018E0008C00B0F1405F24D011DC10B3B0F1805F08
:1018F00015D0B0F1005F10D116E0D4F89020D9F8DF
:10190000001021F007011143C9F80010E4E7B0F11D
:10191000804F0ED0B0F1A04F0BD001250AE000217E
:10192000201D01F017FB03E00098022101F0A2FB4B
:1019300005468DB12E46207840062BD5D4F8980068
:10194000B0F5406F24D011DC10B3B0F5806F15D026
:10195000B0F5006F10D116E0D4F88C20DAF8001042
:1019600021F0E0411143CAF80010E4E7B0F5805FD0
:101970000ED0B0F5A05F0BD001250AE00021201D9C
:1019800001F0E8FA03E00098022101F073FB05463C
:101990008DB12E46207800062BD5D4F89C00B0F5EA
:1019A000C04F24D011DC10B3B0F5005F15D0B0F5F6
:1019B000804F10D116E0D4F89820D9F8001021F407
:1019C000E0511143C9F80010E4E7B0F5004F0ED024
:1019D000B0F5204F0BD001250AE00021201D01F0B9
:1019E000B9FA03E00098022101F044FB05464DB12D
:1019F0002E46207800071ED5D4F88000B0F5805F11
:101A00000AD00FE0D4F89C20D9F8001021F46041EE
:101A10001143C9F80010ECE70098022101F02AFBFD
:101A200000B10126D4F88020DAF8001021F44051EA
:101A30001143CAF800102078C00613D5D4F89400DA
:101A4000B0F5807F05D10098022101F013FB00B1B1
:101A50000126D4F89420D9F8001021F440711143E4
:101A6000C9F800102068000316D5D4F8A00038B1DA
:101A7000B0F5803F09D0B0F5003F0BD001250AE05A
:101A80000021201D01F066FA03E00098022101F018
:101A9000F1FA054685B12E462068400322D5D4F8D8
:101AA0008400B0F5801F11D0B0F5001F13D0B0F541
:101AB000401F15D0012514E0D4F8A020D9F800105B
:101AC00021F440311143C9F80010E5E7386840F4CB
:101AD0000030386004E00098012101F0CBFA05469F
:101AE00055B12E462068C0031CD5E06C70B1B0F52E
:101AF000803F10D0012514E0D4F88420DAF80010DB
:101B000021F440111143CAF80010EBE7386840F4A3
:101B10000030386004E00221201D01F01BFA054668
:101B2000CDB12E462068800005D50098022101F035
:101B3000A1FA00B10126206880031BD5E06FB8B17F
:101B4000B0F5807F10D0B0F5007F11D0B0F5407FA8
:101B50000ED001250DE02E48E26C0838016821F412
:101B6000803111430160DDE7386840F400303860AF
:101B7000F5B32E462068C00207D5226FD8F80010B2
:101B800021F000411143C8F800102068C00008D5BA
:101B9000D4F8B420DBF8001021F480411143CBF8D5
:101BA00000102068800207D5A26ED8F8001021F03E
:101BB00080711143C8F80010206840000CD5DBF894
:101BC000001021F40041CBF80010DBF80010D4F82D
:101BD000B8201143CBF800102068002807DA0C4821
:101BE000226D0838016821F040511143016000E086
:101BF00014E02068000208D5D4F88820DAF8001034
:101C000021F440011143CAF8001086B1012003E01D
:101C100054440258CFFFFF00BDE8FC9FE26FDAF8A2
:101C2000001021F440711143CAF80010A2E700200F
:101C3000EDE700002DE9F05F04000F467ED0DFF8ED
:101C40003882D8F8000000F00F00B8420CD2D8F863
:101C5000001021F00F013943C8F80010D8F8000037
:101C600000F00F00B84269D12078844D40070AD5B2
:101C70002069296801F07001884204D9296821F09F
:101C800070010143296020787C4E361D00070AD57B
:101C90006069316801F07001884204D9316821F02F
:101CA0007001014331602078C0060AD5A06931680F
:101CB00001F4E061884204D9316821F4E061014314
:101CC00031602078DFF8B4B180060BF1080B0CD539
:101CD000E1695846DBF8002002F07002914204D915
:101CE000026822F070020A430260207880070AD559
:101CF000E068296801F00F01884204D9296821F0C1
:101D00000F01014329602078C0073ED05B49A268DB
:101D10002868183920F47060104328606068022831
:101D200018D0032819D00968012819D049070029BB
:101D30004ADADFF848A1AAF1080A00E044E0DAF83C
:101D4000002022F007020243CAF80020FEF7F2FF4B
:101D5000814612E009688903E9E709688901E6E735
:101D6000C905E4E7FEF7E6FFA0EB090141F2883080
:101D7000814202D90320BDE8F09F6168DAF80000D3
:101D800000F03800B0EBC10FECD1207880070AD505
:101D9000E068296801F00F01884204D2296821F027
:101DA0000F0101432960D8F80010404601F00F01EF
:101DB000B9420BD9016821F00F0139430160006875
:101DC00000F00F00B84201D00120D4E7207840078E
:101DD0000AD52069296801F07001884204D2296877
:101DE00021F0700101432960207800070AD560695D
:101DF000316801F07001884204D2316821F070012D
:101E0000014331602078C0060AD5A069316801F429
:101E1000E061884204D2316821F4E061014331601D
:101E2000207880060CD5E1695846DBF8002002F0E6
:101E30007002914204D2026822F070020A430260EA
:101E400000F06CF80E492A682B68C2F3032203F0F5
:101E50000F038A5CC95C02F01F0201F01F01D04031
:101E6000084A20FA01F11160074908600748006834
:101E7000BDE8F05FFFF786B8002000521844025812
:101E8000905D000818000024140000240C000024B9
:101E900030B500F043F80B4A0B490C4B1568146839
:101EA000C5F3032204F00F048A5C095D02F01F02EF
:101EB00001F01F01D040064A20FA01F119601060BC
:101EC000084630BD18440258905D000818000024F0
:101ED0001400002400B5FFF7DBFF05490968054A37
:101EE000C1F30211515C01F01F01C84000BD0000A8
:101EF0001C440258905D000800B5FFF7C9FF054972
:101F00000968054AC1F30221515C01F01F01C84074
:101F100000BD00001C440258905D0008454970B5A2
:101F200045480968434B103B11F0380208D00111B5
:101F3000082A03D0102A0BD0182A0BD0084670BDEF
:101F400019688906FBD51968C1F3C101C84070BD85
:101F50003A4870BD3749374D18310C1D24350A6891
:101F6000096826682D6802F0030406F00102C1F337
:101F70000511C5F3CC0515FB02F200EE102AB8EEF0
:101F8000400AE9B32F4ADFED2E0AB7EE001A6CB112
:101F9000DFED2D1A012C01D0022C43D002EE101AD5
:101FA0001068F8EE422A81EEA22A1EE01C68A40600
:101FB00011D51B6801EE901A1168C3F3C103F8EE46
:101FC000612AD84001EE900AC1F30800F8EE611AC8
:101FD00081EEA22A0BE001EE901ADFED1C2A00BF71
:101FE000F8EE611A106882EEA12AC0F3080001EE33
:101FF000900AF8EE611A40EE201A31EE810A00E0F4
:1020000015E022EE000A1068C0F34620401C00EEE6
:10201000900AF8EE600A80EE201ABCEEC10A10EEBB
:10202000100A70BD01EE901ADFED092AD8E70020F2
:1020300070BD0000104402580090D00340787D012C
:1020400000000039304402580024744A0024744CC3
:1020500020BCBE4B2DE9F05F04007DD0FF4F2078FF
:10206000FE4D1837DFF8F493103DC00748D0D9F87B
:102070000000396800F03800102815D0182803D166
:1020800001F0030002280FD06068B0F5803F12D045
:1020900010B1B0F5A02F18D0286820F48030286047
:1020A000286820F4802009E02868800328D560682B
:1020B0000028D2D024E0286840F48030286060688E
:1020C00088B1FEF737FE064609E0286840F4802014
:1020D0002860F0E7FEF72EFE801B64286FD8286882
:1020E0008003F7D50CE0FEF725FE064605E000BFAD
:1020F000FEF720FE801B6428F0D828688003F7D400
:10210000207841F20308D54E0C3E800769D5D9F8F6
:102110000000396810F038000ED0182801D1880767
:102120000AD0E06890B3296821F0190101432960C1
:10213000FEF700FE824631E02868400702D5E068DD
:1021400000288AD0E168286820F019000843286038
:10215000FEF7F0FD824607E0DFE000BFFEF7EAFD94
:10216000A0EB0A000228B9D828684007F6D500BFBE
:10217000FEF7DAFD40451BD82069402812D03168AF
:1021800021F47C3141EA003030602AE018E000BFE1
:10219000FEF7D0FDA0EB0A0002289FD82868400770
:1021A000F6D5E5E7306820F47C3040F40030EBE70A
:1021B000207C316821F0FE4141EA0060E4E70DE156
:1021C000286820F001002860FEF7B4FD824605E093
:1021D000FEF7B0FDA0EB0A0002288DD82868400762
:1021E000F6D42078C0065DD5D9F80000DFF86CB2CF
:1021F000396800F03800ABF1040B082810D018281B
:1022000003D101F0030001280AD0E0690028286802
:1022100038D040F080002860FEF78CFD824623E035
:102220002868C00523D5E069802876D11FE0206AA0
:10223000202821D0316821F0F84141EA80603060E7
:1022400030E000BF94F82010DBF8002022F07C5230
:1022500042EA0161CBF8001024E000BFFEF76AFDFE
:10226000A0EB0A00022898D82868C005F6D5FEF72A
:102270005BFD4045E6D8DAE7306820F0F84040F0F2
:102280008040DCE720F080002860FEF753FD064622
:1022900005E000BFFEF74EFD801B02289DD8286890
:1022A000C005F7D42078000729D56C4861696430EF
:1022B00000298046016811D041F001010160FEF75C
:1022C00039FD064605E000BFFEF734FD801B0228FD
:1022D000C9D8D8F800008007F6D510E021F0010138
:1022E0000160FEF727FD064605E000BFFEF722FD70
:1022F000801B022872D8D8F800008007F6D4207816
:10230000800623D5A0690028286810D040F48050AA
:102310002860FEF70FFD064605E02CE1FEF70AFDFA
:10232000801B02285AD828688004F7D50EE020F4D4
:1023300080502860FEF7FEFC064604E0FEF7FAFC3B
:10234000801B02284AD828688004F7D420784007E8
:102350004FD5DFF80C81D8F8001041F48071C8F82F
:102360000010FEF7E7FC064605E000BFFEF7E2FCC2
:10237000801B642832D8D8F80000C005F6D5374E47
:10238000A068603601280AD008B1052813D030684B
:1023900020F001003060306820F0040002E0306876
:1023A00040F001003060A06841F2883A90B1FEF739
:1023B000C1FC80460AE0306840F004003060EEE77F
:1023C000FEF7B8FCA0EB0801514507D8306880073C
:1023D000F6D50EE0FEF7AEFC804607E084E000BFD5
:1023E000FEF7A8FCA0EB080151457DD830688007B6
:1023F000F6D4606AB0B3DFF86480D9F8001008F151
:102400002008C1F3C20103296FD00228286820F0F8
:102410008070286003D0FEF78DFC044680E0FEF754
:1024200089FC064605E000BFFEF784FC801B0228FD
:1024300073D828688001F7D4E26A40F2F331386833
:1024400054F8283F884340EA021018433860217B43
:102450004FF4FE0C22894FF0FE4704E0104402586E
:102460000048025889E0208A4902521E267DA1F5C3
:10247000007189B2401EC2F308021143761E0CEAB5
:10248000004001433E4807EA066211433C4AC8F84F
:1024900000100832016821F00101016011684FF657
:1024A000F876236AB14341EAC30111600168A26969
:1024B00021F00C01114301600168E26921F0020181
:1024C00011430160016841F480310160016841F409
:1024D00000310160016841F480210160016841F030
:1024E00001010160286801E017E01DE040F0807004
:1024F0002860FEF71FFC044605E000BFFEF71AFC4B
:10250000001B022809D828688001F7D535E000BFF4
:10251000FEF710FC001B022802D90320BDE8F09F43
:1025200028688001F4D428E039680128D8F8000030
:1025300021D0A26A01F0030393421CD1E26AC1F3E5
:1025400005118A4217D1216BC0F30802491E8A4245
:1025500011D1616BC0F34622491E91420BD1A16B90
:10256000C0F30642491E914205D1E16BC0F30660FB
:10257000491E814201D00120D0E70020CEE70000B3
:102580002C4402582DE9F047040029D0504A4FF05E
:10259000000920684F4B504D9042C4F8289006D057
:1025A000984204D0A84202D0E1680F2918D8E16807
:1025B0004FF0010AE76B0831C9080AEB571671435F
:1025C000904205D0984203D0A84201D0082907D8EC
:1025D000904203D0984201D0A84204D1102902D9D8
:1025E0000120BDE8F08794F8810020B9204684F8E6
:1025F000809000F073F8022084F881002068016860
:1026000021F0010101602168A0698A68B0F1806F42
:1026100002F4F81010D16268B2F5800F01D01AB13F
:102620000AE0A26B22B107E0A26BB2F1805F03D196
:102630000A6842F480520A60A66AE169E26B256882
:102640003143E368024311431943A960D4E90D0201
:10265000D4E90571636A25691843D4F820C00A4398
:10266000266810432843A56D3843D4E90182D4E994
:10267000123140EA0C0040EA0800084310431843B6
:102680002843F060606868B92068816821F4C0510F
:1026900041F4006181602068816821F4C06141F4E7
:1026A000806181602068016D21F001010165606831
:1026B000400206D52068626DC16821F000411143D7
:1026C000C160C4F8849084F881A0002089E70000EC
:1026D0000030014000380040003C0040F0B5B5B08B
:1026E000044614212FA8FEF746F8BC216846FEF7E1
:1026F00042F825492068884244D102AB0225C02116
:10270000062283E8260000240595052608948027E4
:1027100080141790CDE90674CDE900066846FEF7EF
:102720001FFE08B1FEF7C6F81848016841F4805151
:102730000160006800F4805034901448103801683B
:1027400041F002010160016801F002013491016869
:1027500041F00801016000682FA9CDE9305400F074
:102760000800349018202F900948CDE93246FEF732
:10277000BFF908482FA9CDE93054CDE932462F974B
:10278000FEF7B6F935B0F0BD00300140F044025814
:1027900000040258000C025870B5040015460E469D
:1027A00003D094F8450010B107E0012070BD00206F
:1027B00084F84400204600F025F8206804F1080160
:1027C000FEF79AF8A26831462068FEF7DFF8E36A60
:1027D0002946D4E90102FEF76FF8A16801232068B9
:1027E000074A50F8215045F0010540F82150106883
:1027F00040F00040106084F84530002070BD0000BB
:1028000000400052FEF7F6B8401EB0F1807F10B5D0
:1028100001D3012010BD4FF0E02460610F2160174B
:1028200001F01EF90020A0610721216110BD30B523
:1028300090F88010012918D0012280F880202421EE
:10284000C0F884100022202450F8641B0B680D6827
:1028500023F0005325F001050D60026050F8641C60
:102860000B6004620277104630BD022030BD70B5A7
:10287000044690F8800001281DD0012284F88020B1
:102880002420C4F8840020680568026822F0010250
:1028900002602068826822F060620A4382602046FB
:1028A00000F0ECFD2268202100201560C4F884109F
:1028B00084F8800070BD022070BD70B5044690F8A9
:1028C000800001281DD0012284F880202420C4F833
:1028D000840020680568026822F001020260206816
:1028E000826822F060420A438260204600F0C6FD02
:1028F0002268202100201560C4F8841084F880002C
:1029000070BD022070BD10B5040003D0D4F884005F
:1029100010B107E0012010BD002084F8800020469F
:1029200000F026F82420C4F884002068016821F013
:1029300001010160204600F057FE0128EBD0A06A9B
:1029400010B1204600F0BCFD2068416821F49041A0
:1029500041602068816821F02A0181602068016857
:1029600041F0010101602046BDE8104000F00CBEBE
:1029700030B5B5B0044614212FA8FDF7FCFEBC21EC
:102980006846FDF7F8FE17492068884228D10225DD
:102990006846002400951D94FEF7E2FC08B1FDF79F
:1029A00089FF1148016841F000410160006800F0B2
:1029B000004034900C480838016841F4007101600F
:1029C00000680821CDE9305400F400703490CDE95E
:1029D00032414FF440702F9004482FA9FEF788F839
:1029E00035B030BD007C0040E84402580024025855
:1029F0002DE9F8430446D0F884001F4616460D46DC
:102A0000202852D1DDB1D6B194F8800001284CD0F5
:102A1000012084F8800021224FF00008C4F88C8047
:102A2000C4F884201834FEF785F9814654F8100C58
:102A3000A687E687183CB0F5805F03D004E001204C
:102A4000BDE8F883206920B12E46002584F88080F7
:102A500010E00026FAE78021204600F09BFFB8B97D
:102A6000C6B116F8010B21688862B4F85600401E02
:102A7000A4F85600B4F856004B464FF000020097F9
:102A80000028E8D14FF04001204600F083FF38B124
:102A90000320D5E735F8020B2168C0F30800E3E70F
:102AA0002020C4F884000020CAE70220C8E7000004
:102AB0002DE9F04788B01C216846FDF75CFE2A48E6
:102AC0000024DFF89C801026DFF89890FF270F2560
:102AD0004FF0110AC0F800800022C0E90194C460E0
:102AE0006946C0E904468461C46104624462846248
:102AF000C462046344638463C46304640095CDE9E1
:102B00000157CDE905A4CDE90356FFF745FE08B10D
:102B1000FDF7D0FE14480223002269464C30C0E97C
:102B20000234C0E904468461C46104624462846280
:102B3000C462046344638463C4630464C0E90089B9
:102B40000095CDE90157CDE905A4CDE90356FFF77E
:102B500023FE002801D0FDF7ADFE08B0BDE8F087E8
:102B60000040005204410052AC0000242DE9F04F17
:102B700087B014216846FDF7FEFDA448016841F4C2
:102B800080610160016801F480610591016841F094
:102B900040010160016801F040010591016841F0C8
:102BA00008010160016801F008010591016841F028
:102BB00010010160016801F010010591016841F008
:102BC00002010160016801F002010591016841F014
:102BD00001010160016801F001010591016841F006
:102BE00004010160016801F004010591016841F4EC
:102BF00080710160016801F480710591016841F004
:102C000020010160016801F020010591016841F097
:102C100080010160016801F080010591016841F4C3
:102C20000071016000680122DFF8E4A1202100F4B6
:102C3000007005905046FEF771F8DFF8D8B1002219
:102C400068215846FEF76AF84FF44247724800225E
:102C50003946FEF763F84FF4007870480022414689
:102C6000FEF75CF84FF488596D4800224946FEF79C
:102C700055F86C4800224FF48061FEF74FF86A481F
:102C800000224FF48061FEF749F8684800224FF4B3
:102C90006051FEF743F8664800228021FEF73EF8B7
:102CA000012469462020CDE900040020CDE902047A
:102CB0005046FDF71DFF4FF4041569464020CDE94D
:102CC0000005002002905448FDF712FF00206946DD
:102CD00010260290CDE900605046FDF709FF6820FC
:102CE0006946CDE900040020029003905846FDF7A4
:102CF000FFFE002000966946CDE901505846FDF7D9
:102D0000F7FE002000976946CDE901400390424854
:102D1000FDF7EEFEA0026946CDE900050020029015
:102D20003E48FDF7E5FE0020CDF800806946CDE97C
:102D300001403A480394FDF7DBFE002160030A4698
:102D40008DE807003B486946FDF7D2FE0021344874
:102D5000CDE90094CDE902116946FDF7C9FE0021D5
:102D6000A002CDE90004CDE902112E486946FDF725
:102D7000BFFEA0020021CDE90004CDE902142A48DB
:102D80006946FDF7B5FE00214FF42050CDE900045F
:102D9000CDE9021125486946FDF7AAFE200300216E
:102DA000CDE90004CDE9021420486946FDF7A0FEF4
:102DB00000211C200A468DE807001B486946FDF7E4
:102DC00097FE00208021CDE90014CDE902001848CB
:102DD0006946FDF78DFE00220A201146FEF70EF926
:102DE0000A20FEF7FDF8002217201146FEF706F92B
:102DF0001720FEF7F5F8002228201146FEF7FEF80E
:102E00002820FEF7EDF807B0BDE8F08FE044025847
:102E1000002802580010025800040258000002580E
:102E2000002002580014025800240258000C0258D6
:102E3000001C0258000802581348002110B5114C1C
:102E40000123124A0460C0E90121C0E90331416154
:102E50008161C1610162FDF7C9FF08B1FDF72AFD7B
:102E600009480021FDF76CFF08B1FDF723FD064876
:102E70000021FDF791FF002803D0BDE81040FDF7C9
:102E800019BD10BD0054004044010024B1757030DC
:102E900070B5144807224FF48004114D002123011E
:102EA000C0E9021201611A01C0E90513C1610162A2
:102EB00041628162C162C0E90D21C1630164416464
:102EC0008164C164016541658165C0E90054FFF713
:102ED00059FB002803D0BDE87040FDF7EBBC70BD86
:102EE00000300140900100241848002110B5164C14
:102EF0000C224FF461330460C0E90131C160C0E9C4
:102F000004128161C161016241628162FFF7FBFCD1
:102F100008B1FDF7CFFC0D480021FFF7CEFC08B14A
:102F2000FDF7C8FC09480021FFF7A1FC08B1FDF737
:102F3000C1FC0648FFF77BFC002803D0BDE8104029
:102F4000FDF7B8BC10BD0000007C00401802002452
:102F5000FEE700002DE9F047454D044689464FF055
:102F6000000A2868C04380070AD0414E283E3068D6
:102F700020F080603060FDF7DDFE0746B04608E0D7
:102F80000120BDE8F08700BFFDF7D4FEC01B02287A
:102F900067D8D8F800000001F6D4206829684FF4FB
:102FA000FE0721F47C313E0241EA00302860207A9D
:102FB000A389B4F804C040022D4D2D495B1E227C2C
:102FC000ACF1010C1035091DA0F5007080B2521E45
:102FD000CCF3080C07EA034340EA0C00184306EA66
:102FE0000262104328600868626920F0C000104344
:102FF00008600A68A06922F0200202430A60281DC6
:103000000A6822F010020A6002684FF6F873E46959
:103010009A4342EAC40202600868B9F1000F40F026
:1030200010020A6011D00868B9F1010F11D040F404
:1030300000100860D8F80000444640F08060C8F8EE
:103040000000FDF777FE05460DE0086840F400201B
:10305000EFE740F48010ECE7FDF76CFE401B022820
:1030600001D903208DE720680001F5D5504688E797
:10307000284402582DE9F047454D044689464FF053
:10308000000A2868C04380070AD0414E283E3068B5
:1030900020F080503060FDF74DFE0746B04608E056
:1030A0000120BDE8F08700BFFDF744FEC01B0228E9
:1030B00067D8D8F800008000F6D4208829684FF43B
:1030C000FE0721F07C713E0241EA00502860207A20
:1030D000A389B4F804C040022D4D2D495B1E227C0B
:1030E000ACF1010C1835091DA0F5007080B2521E1C
:1030F000CCF3080C07EA034340EA0C00184306EA45
:103100000262104328600868626920F4406010433E
:1031100008600A68A06922F4007202430A60281D50
:103120000A6822F480720A6002684FF6F873E46954
:103130009A4342EAC40202600868B9F1000F40F401
:1031400080720A6011D00868B9F1010F11D040F007
:1031500080700860D8F80000444640F08050C8F8FD
:103160000000FDF7E7FD05460DE0086840F480002B
:10317000EFE740F40000ECE7FDF7DCFD401B022820
:1031800001D903208DE720688000F5D5504688E7F7
:1031900028440258704710B501F07AFF02F0D6FAC1
:1031A000BDE8104001F082BFF0B59DB04C216846EB
:1031B000FDF7E1FA202113A8FDF7DDFA0220FDF763
:1031C0004FFF244800242449026842F44042026030
:1031D00002680A6842F001020A60096801F0010110
:1031E0001B9101688904FCD51C4908250A68022046
:1031F0000123052722F00302921C0A604FF4A02647
:103200000990C021CDE90A07CDE90C10CDE90E5097
:10321000CDE91054CDE9003668461294FEF71AFF46
:1032200008B172B6FEE740201A903F210301CDE9B4
:1032300016500322CDE9180313AB13A883E8160038
:103240000421FEF7F7FC002801D072B6FEE71DB09E
:10325000F0BD0000184802582C04005828440258B9
:10326000454870B5444B0168103B444811F03801A3
:1032700005D0082908D0102908D0182908D01968C5
:10328000C1F3C101C84063E03D4861E03D485FE0F3
:103290003949394D18310C1D24350A6809682668EA
:1032A0002D6802F0030406F00102C1F30511C5F315
:1032B000CC0515FB02F200EE102AB8EE400AC9B3A5
:1032C000324ADFED310AB7EE001A1CB1012C13D0DF
:1032D000022C30D01B6801EE901A1168C3F3C103B1
:1032E000F8EE612AD84001EE900AC1F30800F8EE2A
:1032F000611A81EEA22A04E001EE901ADFED242A81
:103300001DE001EE900A1068F8EE611A40EE201AF6
:1033100031EE810A22EE000AC0F34620401C00EE86
:10332000900AF8EE600A80EE201ABCEEC10A10EE98
:10333000100A0DE00BE001EE901ADFED162A10687E
:10334000F8EE611AC0F3080082EEA12AD9E7002046
:103350000949114B0831114A0C680D68C4F3032167
:1033600005F00F04595C1B5DC84003F01F0120FAF3
:1033700001F1C2E9000170BD104402580090D00371
:1033800000093D0040787D010000003930440258BA
:103390000024744A20BCBE4B905D00081400002439
:1033A0002C48F0B52C4A016841F4700101601068A6
:1033B00000F00F00072804D2106820F00F00C01D95
:1033C000106026490020254C10340B68244D43F032
:1033D00001030B6020600B682B400B60136803F047
:1033E0000F03072B04D9136823F00F03DB1D1360B1
:1033F0001A4C1C4A18341C4B261D371D2060174CD4
:103400001A4D28343060261D3860371D23603B1D5F
:1034100035601C1D3A60251D2E1D1860331D22606D
:103420002860326018600A680C4B114C22F480222C
:1034300060330A60186020686FF30F00B0F1005F1E
:1034400003D20C490120C1F8080143F2D2000A4915
:103450000860F0BD88ED00E00020005200440258F2
:103460007FEDF6EA80020101000202020000FF0186
:103470000010005C008000510040005230B5416EE9
:10348000B9B101680D4B03F108048A688968C2F379
:103490004262490F5D5C615C2D01B5FBF1F1A0F862
:1034A0006A10995CA25C0901B1FBF2F1A0F8681006
:1034B00030BD0121A0F86A10F8E70000805D000827
:1034C00090F82810C90706D00168C36A4A6822F438
:1034D00000321A434A6090F82810890706D501681F
:1034E000036B4A6822F480321A434A6090F828102D
:1034F000490706D50168436B4A6822F480221A43C3
:103500004A6090F82810090706D50168836B4A685D
:1035100022F400421A434A6090F82810C90606D5E2
:103520000168C36B8A6822F480521A438A6090F85B
:103530002810890606D50168036C8A6822F40052B7
:103540001A438A6090F82810490611D50168436C27
:103550004A6822F480121A434A60416CB1F5801F18
:1035600006D10168836C4A6822F4C0021A434A609B
:1035700090F82810090606D50168C26C486820F446
:103580000020104348607047F8B500260446C0F894
:103590008C60FDF7CFFB054620686FF07E47006822
:1035A000000708D500222B464FF400112046009753
:1035B00000F0F0F960B92068006840070AD50022E1
:1035C0002B464FF480012046009700F0E3F908B144
:1035D0000320F8BD2020C4F88400C4F88800E66603
:1035E000002084F88060F8BD2DE9F043044680682F
:1035F000D84E87B0D84B2168D4E90427D4F81CC032
:1036000010430A68002547EA0C073843324002435A
:103610000A602068E268416821F44051114341602A
:103620002268A1699A4201D0206A01439768DFF8B5
:103630002CC3CB4ECB4807EA0C070F439760216899
:10364000676ACA6A22F00F023A43CA622268B2422B
:103650000ED1006800F03800182873D047DCB8B3EA
:10366000082879D010286FD178E028287ED17BE017
:10367000BD498A4209D1006800F00700062875D2CA
:10368000DFE800F0546A6C6E7072B8498A4209D162
:10369000006800F00700062868D2DFE800F0475D08
:1036A0005F616365B2498A4209D1006800F0070092
:1036B00006285BD2DFE800F03A5052545658AD4924
:1036C0008A420BD1006800F0070006284ED200E0C5
:1036D00010E0DFE800F02B4143454749A6498A4204
:1036E0000AD1006800F03800182839D0B7DD20284A
:1036F000BBD13CE001203AE0A0498A4209D10068F0
:1037000000F00700062831D2DFE800F01026282A52
:103710002C2E9B498A420BD1006800F00700062836
:1037200024D2DFE800F003191B1D1F2100201EE03A
:103730009A421BD18B48001D006800F00700062844
:1037400014D202E00CE007E010E0DFE800F003052F
:1037500007090B0D02200AE0042008E0082006E01B
:10376000102004E0202002E0402000E08020854975
:10377000DFF814829A42854A4FF400434FEA21173A
:103780004FF000064ED110281AD006DC022809D0CE
:1037900004280BD008287CD10DE020283ED04028FA
:1037A00077D13DE0FDF786FC014610E06846FDF765
:1037B00093FC01990BE003A8FDF730FD049906E0A6
:1037C0001068800605D51068C0F3C100C14000290B
:1037D00070D0606A676838F8102007EB4703B1FBC8
:1037E000F2F0834255D8B0EB073F52D80023084689
:1037F0001946FCF75BFE02467808130E120243EAF4
:10380000012110183A4671410023FCF74FFE604A2F
:10381000A0F5407191423CD821688FE03946D8E745
:103820001946D6E7D4F81CC04FF6EF799C4546D12F
:10383000082819D005DC58B101280CD0042875D10E
:103840000DE0102815D0202835D040286ED134E066
:10385000FEF740FB01E0FEF74FFB014610E0684633
:10386000FDF73AFC01990BE003A8FDF7D7FC04999A
:1038700006E01068800604D51068C0F3C100C1409E
:10388000C1B1636A606838F81330B1FBF3F14900E5
:1038900000E04BE001EB5001B1FBF0F0A0F11001B2
:1038A000494543D84FF6F0732168C0F342021840EF
:1038B000104343E043E03946E3E71946E1E70828CF
:1038C00019D005DC58B101280CD004282ED10DE008
:1038D000102815D020282BD0402827D12AE0FEF729
:1038E000F9FA01E0FEF708FB014610E06846FDF733
:1038F000F3FB01990BE003A8FDF790FC049906E0A7
:103900001068800604D51068C0F3C100C140B1B191
:10391000636A606838F81330B1FBF3F101EB5001D2
:10392000B1FBF0F0A0F11001494505D9012506E0F1
:103930003946EDE71946EBE7216880B2C8600120FF
:10394000A4F86A00A4F8680028462667666707B0EE
:10395000BDE8F083F369FFCF000C0058FFF4FF11BE
:103960000010014054440258004400400048004008
:10397000004C00400050004000140140007800401E
:10398000007C00400090D003685D000800440258AD
:10399000FFFC0F002DE9F0479A4617460E460446F5
:1039A000089D4FF000094FF020084CE0681C4AD0F9
:1039B000FDF7C0F9A0EB0A00A8422AD84DB3206851
:1039C000016849073FD5C069C04300053BD4216861
:1039D0004FF400600862216851E8000F20F4D070B5
:1039E00041E80002002AF6D12068083050E8001FA4
:1039F00021F0010140E80012002AF5D1C4F88480CA
:103A000084F88090C4F88880C4F88C800320BDE8D6
:103A1000F087206850E8001F21F4D07140E80012C0
:103A2000002AF6D12068083050E8001F21F001017B
:103A300040E80012002AF5D1C4F8848084F8809010
:103A4000C4F88880E2E72068C06936EA000004D044
:103A50000020B842AAD00020D9E70120F9E7FEE70C
:103A6000090700284FEA116104DB00F1E02080F82B
:103A70000014704700F00F0000F1E02080F8141DE2
:103A800070470000002807D00E4910F0FF0F04D047
:103A900051FA80F00078401C704710F47F4F04D03A
:103AA000C0F30720085C0930704710F47F0F04D082
:103AB000C0F30740085C1130704701EB10600078DC
:103AC00019307047A05D00082DE9F04F00249246A0
:103AD00089B08B46064600E0641C305D202803D088
:103AE000092801D05C45F7D34FF0FF387CB31A4862
:103AF00004F10609174F056811E02868062217A18E
:103B0000FCF78EFD50B9286822463146801DFCF72F
:103B100087FD18B9296811F8090020B10C353868FB
:103B20008542EAD314E0AC688CB120216846FCF7EA
:103B300022FE6A465946304600F0AEFF38B169466B
:103B4000A047CAF80000002009B0BDE8F08FFFE7E9
:103B50004046F9E7200000241C0000245F5F636DED
:103B6000645F00002DE9FC411F4604461C30DDE97E
:103B70000831DDE90A65406000601846C4E90A279B
:103B8000C4E90C3124340A46232101F0F0FA201D47
:103B90000FC81A440E4B121F01F05EFA0146216055
:103BA000A67600206676C4E9070565626061207626
:103BB000E0652066243C2346064A194600900190A1
:103BC00004F14C0001F056FE0020BDE8FC8100002D
:103BD000C15400088F5600081C3001F0A5BA70B51A
:103BE0000546FCF7C9FBD5F88010044609B1284604
:103BF00088472046BDE87040FCF7C2BB1BA010B54B
:103C000001F062FA1C4C21781CA001F05DFA2078CA
:103C1000C00702D01FA001F057FA2078800702D514
:103C20001FA001F051FA2078400702D51FA001F033
:103C30004BFA2078000702D520A001F045FA207841
:103C4000C00602D520A001F03FFA2078000607D573
:103C500009480F3001681EA0BDE8104001F034BAD9
:103C6000BDE810401EA001F02FBA0000627573205D
:103C70006661756C743A0A0029ED00E05343425FB7
:103C8000434653525F424653523A307825303258B9
:103C900020000000494255534552522000000000C8
:103CA000505245434953455252200000494D50520D
:103CB000454349534552522000000000554E53548D
:103CC0004B4552522000000053544B4552522000A5
:103CD0005343422D3E424641523A253038580A005D
:103CE0000A00000010B500F0BFFB002010BD00006E
:103CF000104810B5416991F82910890703D40E497D
:103D00000020087014E0016929B10B484FF480725B
:103D1000FCF758FD0CE000F0BDFE08B107A100E083
:103D200008A10548FCF739FC034808A1FCF7C3FCCF
:103D3000014810BD1C000024A80200246D736820F7
:103D40000000000066696E73682000003E000000FD
:103D50000449496991F8292060F3410281F829203A
:103D6000704700001C000024014AC2E900017047AE
:103D70001C0000247FB514491448FFF7F5FF144CCC
:103D80000A23144D15224FF4806105F1880000F5D7
:103D9000806666618DE80F000F4A002388380FA106
:103DA00001F0DAFB0023064660690EA11A4601F015
:103DB000CBFA0120FFF7CCFF16B9284601F030FC02
:103DC00004B0002070BD0000B86100081061000858
:103DD0001C000024AC030024ED3D000874736865EA
:103DE0006C6C000073687278000000009B4C606986
:103DF00090F8291041F0010180F82910FFF778FFB1
:103E000001F062F95FF0000600F0DCFF0500FBD472
:103E10001B2D07D0606990F82810012907D00229CE
:103E20000ED017E06169012081F82800ECE75B2DD6
:103E300002D080F828600DE0022180F82810E3E726
:103E4000412D80F82860DFD0422DDDD0442D38D0C0
:103E5000432D42D0002DD7D0FF2DD5D0092D4ED0E7
:103E60007F2D76D0082D74D00D2D71D00A2DFCD069
:103E7000B0F87A10502901D3A0F87A60B0F87C30FD
:103E8000B0F87A108B427DD200F12A07CA1A2B3083
:103E9000D919184401F052F96069B0F87C102A3041
:103EA0000D54606990F82910C90706D0B0F87C104D
:103EB0002A3001446AA001F007F96069B0F87C502B
:103EC000A6E0B0F87C0000289ED066A001F0FCF8C7
:103ED0006069B0F87C10491E0EE0B0F87C10B0F8B4
:103EE0007A20914290D22A30095C5FA001F0ECF870
:103EF0006069B0F87C10491CA0F87C1084E70025AC
:103F000003E058A001F0E0F86D1C6069B0F87C0097
:103F1000A842F6DC656955A02A3501F0D5F800F015
:103F2000B9FD012802D1284600F0F0FCFFF7E0FEC1
:103F300001462A464EA001F0C7F860692A30FCF716
:103F400050FB6169A1F87A00A1F87C005CE700E011
:103F50003DE0B0F87C100029D0D0B0F87A20491E9E
:103F60008BB2A0F87C30521E91B2A0F87A10994220
:103F700024D900F12B05CA1A2A305919184401F026
:103F8000DDF800E04AE06069B0F87A102A300E549B
:103F90006069B0F87C102A30014437A001F094F831
:103FA0006069B0F87C5003E02EA001F08DF86D1C24
:103FB0006069B0F87A00A842A0DBF5E730A001F014
:103FC00083F86069B0F87A102A300E541CE700F0CC
:103FD00061FD01280DD1606990F82900C00702D069
:103FE00022A001F071F86069B0F87A102A3000F070
:103FF000E3FCFFF77DFE01F067F8606950212A308D
:10400000FCF797FB606923E016A001F05DF86D1CDA
:104010006069B0F87A00A842F6DC0AE02A300D5454
:10402000606990F82900C00703D00FA0294601F06D
:104030004BF86069B0F87A10491C89B220F87A1FF1
:104040005029418801F101014180A0F17A00BDD3DE
:10405000A0F87A60A0F87C60D6E600001C0000247E
:104060002573000008000000256300000A0000001E
:104070002573257300000000082573202008000028
:104080000820080010B5124C2068800702D511A046
:1040900001F01AF82068400011D50D48C01E0078C4
:1040A00008B1FFF7ABFD0A48001F007808B100F027
:1040B000C1FB0748801E008808B101F0E3FD2068BD
:1040C000002804DABDE8104008A000F0FDBF10BDD4
:1040D0002CED00E06661696C656420766563746F41
:1040E000722066657463680A00000000646562758A
:1040F00067206576656E740A0000000002A010B5A6
:1041000000F0E2FF002010BD48656C6C6F20525437
:104110002D546872656164210A00000070B50CA01E
:1041200000F0D2FF10480F4D04680BE02068022217
:104130000EA1FCF775FA20B1D4E900120CA000F032
:10414000C3FF0C3428688442F0D3002070BD000007
:104150002D2D46756E6374696F6E204C6973743AC9
:104160000A000000200000241C0000245F5F000003
:10417000252D313673202D2D2025730A00000000D7
:104180002DE9F0411E46174604460D46084601F04B
:1041900021F80021001D206025726760C4E90361D9
:1041A000BDE8F0812DE9F0410D46CA680021296182
:1041B00092B1297A81B12E6888B10446FCF7DCF807
:1041C00001462A7AA4F11400007C20F0800090427D
:1041D00009D00846FCF7D4F80020BDE8F081344649
:1041E000FCF7CAF80146686800272468B44201D188
:1041F000002404E010C0EA687F1CBA42F5D10846EA
:10420000FCF7BEF820462F61E7E700002DE9F041FA
:1042100096B00026082305212DA40CAA05A8FFF7B7
:10422000AFFF10202246804601462BA000F04CFF35
:10423000404600F099FC31A000F046FF05A9304649
:10424000FFF7B0FF0025064639E00CA850F82540DE
:10425000143CFCF791F8217C9DF81C2021F0800192
:10426000914202D0FCF78CF828E0FCF789F8E0696D
:1042700004F11C07B842384613D000F043FF218DEB
:104280002346628D029024A0CDE9002110224146F0
:1042900000F01AFF384601F0C3FC25A000F014FF1F
:1042A0000CE000F02FFF218D2346628D029021A0AB
:1042B000CDE900211022414600F006FF6D1C09984F
:1042C000A842C2DC002EB9D116B00020BDE8F081B2
:1042D0006D61696C626F7800252D2A2E7320656EE2
:1042E0007472792073697A652073757370656E6472
:1042F000207468726561640A00000000202D2D2D75
:104300002D20202D2D2D2D202D2D2D2D2D2D2D2D04
:104310002D2D2D2D2D2D0A00252D2A2E2A732025F9
:104320003034642020253034642025643A000000B5
:104330000A000000252D2A2E2A73202530346420FF
:1043400020253034642025640A0000002DE9F04166
:1043500094B00026082302212BA40BAA04A8FFF77F
:104360000FFF10202246804601462AA000F0ACFE36
:10437000404600F0F9FB2EA000F0A6FE04A930464E
:10438000FFF710FF0025064635E00BA850F8254042
:10439000143CFBF7F1FF227C9DF8181022F08002FC
:1043A0008A4202D0FBF7ECFF24E0FBF7E9FFE0696B
:1043B00004F11C07B842384611D000F0A3FEA18CCE
:1043C0001022CDE9001020A02346414600F07CFEDB
:1043D000384601F025FC15A000F076FE0AE000F05A
:1043E00091FEA18C1022CDE900101BA0234641466E
:1043F00000F06AFE6D1C0898A842C6DC002EBDD1F4
:1044000014B00020BDE8F08173656D6170686F7253
:1044100065000000252D2A2E73207620202073753C
:104420007370656E64207468726561640A000000D0
:10443000202D2D2D202D2D2D2D2D2D2D2D2D2D2DC6
:104440002D2D2D0A00000000252D2A2E2A7320254F
:104450003033642025643A00252D2A2E2A73202526
:104460003033642025640A002DE9F041B8B00026FD
:10447000082301213CA42FAA29A8FFF781FE1020C0
:104480002246804601463A4800F01EFE404600F0B3
:104490006BFB38A000F018FE29A93046FFF782FE1A
:1044A0000025064657E02FA850F82540143CFBF79E
:1044B00063FF217C07469DF8AC0021F0800181421A
:1044C00003D03846FBF75CFF44E08822214605A86C
:1044D000FCF7FDF83846FBF753FF94F83D00102237
:1044E00023464146009033A000F0EEFD94F83C00D6
:1044F00000F00F00012807D0022807D040B104289F
:1045000008D0032808D00AE02DA006E02FA004E080
:1045100031A002E033A000E035A000F0D5FD206B13
:10452000014600E0401C0278232AFBD0D4E90D2785
:10453000401A4FF0640C101AA36C00FB0CF0CDE98C
:104540000037B0FBF2F0636AC91A114403462BA08E
:1045500000F0BAFD6D1C2D98A842A4DC002E9BD162
:1045600038B00020BDE8F0817468726561640000B5
:10457000C45E0008202D2D2D20202D2D2D2D2D2D1C
:104580002D202D2D2D2D2D2D2D2D2D2D202D2D2D75
:104590002D2D2D2D2D2D2D20202D2D2D2D2D2D2072
:1045A000202D2D2D2D2D2D2D2D2D2D202D2D2D0A78
:1045B00000000000252D2A2E2A73202533642000B8
:1045C00020726561647920200000000020737573FB
:1045D00070656E640000000020696E697420202000
:1045E0000000000020636C6F736520200000000055
:1045F0002072756E6E696E670000000020307825AD
:104600003038782030782530387820202020253028
:104610003264252520202030782530387820253038
:1046200033640A00F0B593B0002608230A2125A4BC
:104630000BAA04A8FFF7A4FD1027224623A03946A1
:1046400000F042FD384600F08FFA2AA000F03CFD51
:1046500004A93046FFF7A6FD0025064624E00BA876
:1046600050F82540143CFBF787FE227C9DF818107B
:1046700022F080028A4202D0FBF782FE13E0FBF7B1
:104680007FFED4E90B0110222346CDE9000122A0D0
:10469000394600F019FD607CC00701D024A000E07D
:1046A00026A000F011FD6D1C0898A842D7DC002E52
:1046B000CED101F045F8014624A000F005FD13B06D
:1046C0000020F0BD74696D6572000000252D2A2E52
:1046D000732020706572696F64696320202074699B
:1046E0006D656F757420202020202020666C616726
:1046F0000A000000202D2D2D2D2D2D2D2D2D2D20AE
:104700002D2D2D2D2D2D2D2D2D2D202D2D2D2D2DE6
:104710002D2D2D2D2D2D0A00252D2A2E2A732030EA
:10472000782530387820307825303878200000001F
:104730006163746976617465640A0000646561632D
:10474000746976617465640A0000000063757272B2
:10475000656E74207469636B3A3078253038780A56
:1047600000000000FEF702FAFEF7A2F9FEF790FB48
:10477000FEF762FBFEF7B8FB012225489102FCF729
:10478000CDFA4FF48054234D234F4FF40048DFF807
:104790008C906610DFF888B04FF4804AC82000F093
:1047A000F3FE002221462846FCF7B8FA00223146E3
:1047B0003846FCF7B3FA002241464846FCF7AEFA09
:1047C000002251464846FCF7A9FA002258468021AB
:1047D000FCF7A4FAC82000F0D7FE012221462846A3
:1047E000FCF79CFA012231463846FCF797FA012281
:1047F00041464846FCF792FA012251464846FCF7EA
:104800008DFA012258468021FCF788FAC6E700009D
:104810000014025800200258000C025800040258EC
:10482000001C025810B500F071FABDE81040FFF707
:1048300099BF000018A010B500F046FC1B4C217871
:104840001BA000F041FC2078C00702D01EA000F0A1
:104850003BFC2078800702D51EA000F035FC2078B4
:10486000000702D51EA000F02FFC2078C00602D55C
:104870001EA000F029FC2078000607D50B480C305C
:1048800001681DA0BDE8104000F01EBCBDE810404E
:104890001D4800F019BC00006D656D206D616E61F2
:1048A0006765206661756C743A0A000028ED00E0C7
:1048B0005343425F434653525F4D4653523A30781A
:1048C00025303258200000004941434356494F4C9F
:1048D000200000004441434356494F4C2000000053
:1048E0004D554E53544B4552522000004D53544B9E
:1048F00045525220000000005343422D3E4D4D4191
:10490000523A253038580A00F45C00082DE9F04787
:104910000025804600782C4618B12248224F0668B0
:1049200031E0BDE8F0470021084600F077B8306874
:1049300006221EA1FBF774FE20BB306800F10609B9
:104940004046FBF74EFE024649464046FBF768FEEE
:10495000C0B925B94C464846FBF743FE05464946D3
:10496000204601E0401C491C02781AB10B780BB1BB
:104970009A42F7D0001BA84200DA054649460DA02E
:1049800000F0A2FB0C3638688642D0D3002C06D04B
:104990002A4621464046BDE8F04700F047BDBDE845
:1049A000F08700001C000024200000245F5F636D7E
:1049B000645F000025730A0038B5044601E0491E13
:1049C000641C59B120782028F9D00928F7D06A460C
:1049D0002046FFF779F818B1204604E0002038BDE2
:1049E000009838BD401C0178202901D00029F9D158
:1049F0000021017003A0214600F066FB4FF0FF305C
:104A000038BD000025733A20636F6D6D616E6420C0
:104A10006E6F7420666F756E642E0A0070B50EA0FE
:104A200000F052FB1448134D04680CE02068062285
:104A300012A1FBF7F5FD28B9D4E9001211A0891DD8
:104A400000F042FB0C3428688442EFD310A000F041
:104A50003BFB002070BD000052542D54687265610C
:104A600064207368656C6C20636F6D6D616E647338
:104A70003A0A0000200000241C0000245F5F636DE0
:104A8000645F0000252D313673202D2025730A0028
:104A90000A0000000120704770B515460022134639
:104AA00014464BE05B1C00F8012B0678202E01D049
:104AB000092E01D18B42F5D3082C11D321A000F08F
:104AC00003FB002606E000BF55F8261025A000F0E5
:104AD000FBFA761CA642F7D321A000F0F5FA2FE0EE
:104AE0008B422DD2F6B2222E03D045F82400641C4E
:104AF0001BE0401C5B1C45F82400641C08E05C2E95
:104B000004D14678222E01D1401C5B1C401C5B1C4A
:104B10000678222E01D08B42F1D38B4210D25B1C3F
:104B200000F8012B0AE0401C5B1C0678202E03D005
:104B3000092E01D08B42F6D38B4201D28B42B4D3E3
:104B4000204670BD546F6F206D616E792061726771
:104B5000732021205765206F6E6C79205573653A5C
:104B60000A0000002573200010B5044602E003A0EF
:104B700000F0AAFA641EFAD210BD00002D00000059
:104B80002DE9F04F85B09A46109CDDE90EB566061A
:104B9000AE4601D5464B01E0454B113BE606994632
:104BA00001D524F00104E30701D0302300E02023E5
:104BB0004FF00006A70704930BD5002A02DA5242F1
:104BC0002D2606E0630701D52B2602E0230700D53A
:104BD00020264FF00003D2B15FF00A07BAF10A0FA6
:104BE0001AD002F00F0C1209002A19F80C800DF8E7
:104BF000038003F10103F1D1AB4200DD1D464FF00C
:104C0000200714F0110FABEB05020DD01AE0302293
:104C10008DF800200123EFE7B2FBF7F89446B2FBD2
:104C2000F7F207FB18CCDFE73EB1002A05DD521E84
:104C300003E0884200D20770401CB2F1000CA2F1E0
:104C40000102F6DC26B1884200D20670401C521EDA
:104C5000E40605D508E0884201D2049C0470401C9B
:104C6000141EA2F10102F6DC30249D42A5F10105DB
:104C70000ADD884200D20470401CF6E7884201D267
:104C8000E55C0570401C00E06C461D1EA3F10103AD
:104C900007DDBEF1000FF1D103E0884200D20770BA
:104CA000401C131EA2F10102F7DC05B0BDE8F08F35
:104CB000B15E00081FB50A4C14230A22A4F5007047
:104CC0004FF400718DE80F00064A002306A120462C
:104CD00000F042FC04B02046BDE8104000F0A0BC4B
:104CE000B80A0024254800086D61696E00000000C4
:104CF00070B5044C044D02E020688047241DAC428E
:104D0000FAD370BDFC6000080461000870B5044C63
:104D1000044D02E020688047241DAC42FAD370BDE8
:104D2000046100080C61000810B5FBF725FB044A7C
:104D30005188491C5180BDE81040FBF721BB0000A1
:104D40008C00002410B5FBF717FB0B4C6188491E43
:104D500009B2618000290ADC00216180FBF710FBA9
:104D60006068002807D0BDE8104000F075BABDE8C3
:104D70001040FBF705BB10BD8C00002470B5FCF79C
:104D8000D3F8FEF76DFAFEF70FFA0C494FF47A707C
:104D90000968B1FBF0F0401EB0F1807F09D2084BEA
:104DA0004FF0E021FF220024486107251A700D61B1
:104DB0008C61BDE87040FFF79BBF00001400002429
:104DC00023ED00E00B4810B54FF0FF340068C169D7
:104DD000C943890602D4406AC4B208E0C169C94324
:104DE000090701D4082101620A2000F0CDFBE0B2DE
:104DF00010BD000018020024F8B50D210646002061
:104E00008DF8001004460D4981F88000304600F00E
:104E100005FB05460FE0305D0A2805D10123074850
:104E20001A466946FDF7E4FD0123044831191A4684
:104E3000FDF7DEFD641CAC42EDD3F8BD1802002482
:104E400070B5054630482C1D016805F1280011B1E8
:104E50008847002857D0216C2CA000F035F9616AF2
:104E60002EA000F031F9A16A30A000F02DF9E16A1E
:104E700032A000F029F9216B34A000F025F9616817
:104E800036A000F021F9A16838A000F01DF9E16812
:104E90003AA000F019F921693CA000F015F9616908
:104EA0003EA000F011F9A16940A000F00DF9E16900
:104EB00042A000F009F9216A44A000F005F9616BF5
:104EC00046A000F001F9A16B48A000F0FDF8E16BED
:104ED0004AA000F0F9F82878400708D500F07AFBDE
:104EE00001464AA000F0F0F8FFF7BEFA02E04FA03A
:104EF00000F0EAF82878C00602D453A000F0E4F8E5
:104F0000FFF7C0F8FEE770BD380000247073723AF6
:104F1000203078253038780A000000007230303AAE
:104F2000203078253038780A000000007230313A9D
:104F3000203078253038780A000000007230323A8C
:104F4000203078253038780A000000007230333A7B
:104F5000203078253038780A000000007230343A6A
:104F6000203078253038780A000000007230353A59
:104F7000203078253038780A000000007230363A48
:104F8000203078253038780A000000007230373A37
:104F9000203078253038780A000000007230383A26
:104FA000203078253038780A000000007230393A15
:104FB000203078253038780A000000007231303A0D
:104FC000203078253038780A000000007231313AFC
:104FD000203078253038780A000000007231323AEB
:104FE000203078253038780A00000000206C723AB2
:104FF000203078253038780A000000002070633AAD
:10500000203078253038780A00000000686172642A
:10501000206661756C74206F6E20746872656164BF
:105020003A2025730D0A0D0A0000000068617264C1
:10503000206661756C74206F6E2068616E646C65AB
:10504000720D0A0D0A000000465055206163746914
:105050007665210D0A00000070B5121D0B4E00246C
:10506000054622F00700443840F82460641C112CE7
:10507000FAD3002283634FF08073C0E90912C26241
:10508000026342630260C0E90F5370BDEFBEADDE44
:1050900010B5FBF771F9044A1178491C1170BDE88D
:1050A0001040FBF76DB900004800002410B5FBF775
:1050B00063F9044A1178491E1170BDE81040FBF7EE
:1050C0005FB90000480000240FB40648FF2110B566
:1050D00003AB029A00F040FC0248FFF78DFE10BCC3
:1050E0005DF814FB480C00240268516002680A60F5
:1050F0000160486070470268516002680A600160A0
:10510000486070470021024600E0491C0068904258
:10511000FBD108467047D0E900124A60D0E900127E
:105120001160406000607047D0E900124A60D0E929
:105130000012116040600060704700000346994211
:1051400010B511D28C189C420ED9811804E000BF12
:1051500014F8013D01F8013D521EF9D210BD00BF07
:1051600011F8014B03F8014B521EF9D210BD10B5D6
:10517000042A0346CCB218D3810716D144EA04238B
:10518000014643EA034305E00B604B608B60CB6054
:105190001031103A102AF7D201E0121F08C1042A78
:1051A000FBD20B4601E003F8014B521EFBD210BDAF
:1051B00010B5044600202074FBF7DEF8D4E9051290
:1051C0004A60F4E90512116064602460BDE8104093
:1051D000FBF7D6B8074A002102EB01131B78834284
:1051E00002D102EB01107047491C0429F4DB0020B6
:1051F000704700004C0000242DE9F0411746054699
:105200000E460846FFF7E6FF0446FFF78DFD61688E
:10521000201D00E009688142FCD1FFF793FD46F0B4
:105220008000394610222874284600F0FFF8FBF76A
:10523000A3F8616814354D606168296044F8045F23
:105240006C60BDE8F041FBF79BB8007C000601D51F
:10525000012070470020704770B5FBF78DF8114CA6
:1052600005466088B0B9A068FEF70CFC0E49401EE8
:10527000626851F830101C3991420BD020700B48F5
:105280006160007801F12401002802F1240006D0B9
:10529000FBF779F82846BDE87040FBF771B8FBF7DB
:1052A00072F8F7E78C000024480D00244800002421
:1052B00010B50446FBF760F8024694F83C000E4B2C
:1052C00020F00F00401C84F83C0094F83D1004F1DD
:1052D0001C0003EBC1014B6818604B6823624860F7
:1052E0000648E161216C836819438160BDE8104084
:1052F0001046FBF745B80000480D00248C00002440
:1053000010B50446FBF738F804F11C01D1E900237D
:105310005360D1E900231A602162E161084994F8E1
:105320003D2051F8323001EBC2018B4204D10549D6
:10533000236C8A689A438A60BDE81040FBF720B866
:10534000480D00248C0000242DE9F04116461F462C
:1053500005460A460221FFF74FFF05F11C042C62A7
:10536000EC610020AE846F74BDE8F08109A008B53F
:10537000FFF7AAFE0AA0FFF7A7FE12A000900523E0
:105380000122032112A0FFF79FFEBDE8084018A0EC
:10539000FFF79ABE0A205C207C202F0A0000000044
:1053A0002D205254202D2020202020546872656129
:1053B00064204F7065726174696E672053797374ED
:1053C000656D0A004A756E2032302032303232006C
:1053D000202F207C205C202020202025642E256486
:1053E0002E2564206275696C642025730A00000014
:1053F0002032303036202D203230323020436F7052
:105400007972696768742062792072742D74687289
:10541000656164207465616D0A000000014600E06A
:10542000491C0A78002AFBD1081A7047002A10B5D7
:1054300007D0034611F8014B03F8014B2CB1521E63
:10544000F8D110BD03F8011B00E00021521EF9D174
:1054500010BD00000A49002310B50A4C18464B80C5
:1054600004EBC002401C202852601260F8DB1F20B1
:10547000087003484B600C308B604060006010BDCA
:105480008C000024480D002410B5074CA068FEF7DE
:10549000F9FA0649401E51F830001C386060BDE83A
:1054A00010402430FAF7B5BF8C000024480D0024CA
:1054B0000148406000607047A4000024704700006D
:1054C000144870B50468FAF757FF05462046FEF702
:1054D00086FB2046FFF714FF042084F83C0004F10B
:1054E0004C0000F0B3F92046FFF7AFFE01280CD0C6
:1054F000094804F11C01FFF7F7FD00BFFFF7ACFE00
:105500002846BDE87040FAF73BBF2046FFF750FE43
:10551000F4E700009000002498000024FEE700005B
:105520001FB5094820231F2280218DE80F00074A5C
:105530000023883806A100F00FF804B0024888382C
:10554000BDE8104000F06CB8C80B00241D550008E1
:105550007469646C650000002DE9FF5F924699460E
:105560000EAA0C46834692E8E0010A460121FFF7A5
:1055700043FE8DE8E0014B46524621465846FEF771
:10558000F1FA04B0BDE8F09F10B500F0BFF8BDE837
:10559000104000F025B870B5044690F83C0000F0CB
:1055A0000F00022802D04FF0FF3070BDFAF7E4FE82
:1055B000054604F11C00FFF7AEFD04F14C0000F0BD
:1055C000B3F92846FAF7DCFE2046FFF771FE00200B
:1055D00070BD000001480068704700009000002482
:1055E000F1B5FAF7C9FE05460C480468204600F0FC
:1055F0002DF804F14C006A460021064600F002F93D
:10560000304600F04FF92846FAF7BAFEFFF724FEBD
:10561000A06B801C00D1A0630020F8BD9000002486
:1056200010B590F83E10012280F83D1002238A4008
:10563000026480F83C30FFF7AEFF0348006808B111
:10564000FFF70AFE002010BD9000002470B504464C
:1056500090F83C0000F00F00012802D04FF0FF301E
:1056600070BDFAF789FE05462046FFF749FE94F81B
:105670003C0020F00F00801C84F83C0004F14C003A
:1056800000F052F92846FAF77BFE002070BD10B5F5
:105690006FF00101044681631C30FFF73CFD20469A
:1056A000FFF706FEBDE81040FFF7D6BD70B5FAF76C
:1056B00063FE06461348046894F83C0000F00F00AF
:1056C000012819D1D4E90701884215D004F11C0042
:1056D0000546FFF720FD94F83D000B4901EBC000A3
:1056E00041680D6041686960456028603046FAF79E
:1056F00047FEFFF7B1FD02E03046FAF741FE002019
:1057000070BD000090000024480D002430B5002832
:1057100002DA4FF0FF3030BD4FF47A7290FBF2F4B2
:1057200090FBF2F1531E02FB1400514300EB4004C6
:10573000C4EBC01003EBC00090FBF2F0084430BD96
:10574000014800687047000034000024094810B583
:105750000168491C0160FFF73DFF816C491E8164AF
:1057600003D1416C8164FFF7A1FFBDE8104000F058
:1057700003B80000340000242DE9FC41CDF804D02A
:10578000CDF800D0FFF7DCFF0646FAF7F5FD1C4D1B
:1057900007462DE060691C3C6FF00041301A8842DA
:1057A00029D22046FEF718FA607C810702D420F047
:1057B0000100607404F11C0168468846FFF79BFCF9
:1057C000D4E909108847FFF7BBFF064600986946F1
:1057D00088420DD04046FFF7A7FC607C810707D5C3
:1057E000C10705D020F001006074204600F05AF88F
:1057F0002C68AC42CED13846FAF7C2FDBDE8FC8138
:10580000A400002470B515460E460446FAF7B4FD10
:10581000052E17D2DFE806F00503080C1100E16A37
:105820000FE02968E1620DE0617C21F0020102E0F5
:10583000617C41F00201617404E0617CC90700D021
:1058400001212960FAF79CFD002070BD70B5044667
:10585000FAF792FD05462046FEF7BEF9607C20F07F
:10586000010060742846FAF78BFD2046FFF7A0FC84
:10587000002070BD2DE9F04117461E4604460A4639
:105880000A21DDE90658FFF7B7FC002128F00102E4
:105890006274C4E90B51C4E909761C346460246065
:1058A000BDE8F0812DE9F8430446FAF765FD80462E
:1058B0002046FEF791F9607C20F001006074FFF74C
:1058C0003FFF184A0146E36A00206FF000470B448F
:1058D000236302EBC00500925DF8202069466E68E4
:1058E0000AE01268A2EBC0056D699D4202D0ED1A74
:1058F000BD4203D341F82020B242F2D10948001F33
:105900000168491C0160009804F11C01FFF7F3FBDA
:10591000607C40F0010060744046FAF731FD0020E1
:10592000BDE8F883A400002470B50446407CC0079D
:105930000ED0FAF721FD05462046FEF74DF9607CB2
:1059400020F0010060742846FAF71AFD002070BDAF
:105950004FF0FF3070BD00002DE9FF4F89468046B3
:1059600000EB09074FF0FF3A47454FF0200B83B09B
:10597000044602D2C4F1FF3957460FE1252803D06F
:10598000BC4200D2207082E000260599491C059196
:1059900008782D2811D02B2812D0202813D02328A6
:1059A00014D0302815D00A785546303A0A2A13D236
:1059B00005A800F04DF905461BE046F01006E4E7A7
:1059C00046F00406E1E746F00806DEE746F020066A
:1059D000DBE746F00106D8E72A280AD10698491CD9
:1059E0000591011D06910568002D02DA6D4246F011
:1059F00010060598D44601782E2919D1401C05902F
:105A00000178A1F130020A2A04D205A800F020F999
:105A1000844608E02A2909D1401C05900698011DFA
:105A20000691D0F800C0BCF1000F01DA4FF0000C75
:105A3000059A00211078682801D06C2802D1521CE8
:105A4000014605920A2310786F2875D00CDC632874
:105A50001FD004DC252870D058280DD186E064289A
:105A600001D0692808D185E0702868D073282DD02E
:105A7000752873D078287BD0BC4201D225202070B5
:105A80000598641C0178E9B3BC4200D22170641C03
:105A900081E0F00608D458466D1E002D04DDBC429E
:105AA00000D22070641CF7E70698BC4210F8041B73
:105AB0000690C8B200D22070584602E0BC4200D224
:105AC0002070641C6D1E002DF8DC64E0069802C88E
:105AD000069001B941A1002000E0401CA84202D07C
